:020000040040BA
:10000000D8410020792C4000752C4000752C400010
:10001000752C4000752C4000752C4000000000003D
:100020000000000000000000000000000D02400081
:10003000752C400000000000752C4000C1014000FC
:10004000752C4000752C4000752C400001044000C8
:10005000752C4000752C4000752C4000752C40001C
:10006000752C4000350A4000000000007D23400050
:1000700091234000A5234000752C4000710A4000E8
:100080000000000000000000752C4000752C4000AE
:10009000752C4000752C4000752C4000752C4000DC
:1000A000752C4000752C4000752C4000752C4000CC
:1000B000752C4000752C4000752C4000752C4000BC
:1000C000752C4000752C4000752C400010B5054C77
:1000D000237833B9044B13B10448AFF300800123F4
:1000E000237010BD080E0020000000006C7F40004F
:1000F0000C4B43B10C480D4910B5AFF300800C48D0
:10010000036823B910BD0A48036833B97047094B27
:10011000002BF7D0BDE810401847064B002BF5D058
:10012000184700BF000000006C7F40000C0E00204C
:100130006C7F400000000000034B1B6843F48023E9
:100140001943016000207047240E002041B9094A7C
:10015000136823F0807313600268134303607047D1
:10016000044A136843F0807313600268134303600A
:10017000704700BF240E0020036823EA0101024BF0
:100180001B68194301607047240E00208268836851
:100190009A4203D0826883689342FBD11846704725
:1001A000C06870477047000008B5014B984708BD0C
:1001B000411B4000014B1860704700BF60110020D8
:1001C00008B5024B1B68984708BD00BF5C110020B2
:1001D00038B518B909200A4B984738BD014643F293
:1001E000B062002343F2AF6400250648E0FB0145FE
:1001F00020462946044CA047014B984738BD00BF14
:1002000001000020000E2707793A40000D4B1B68C3
:100210001847EFF309807047EFF3148343F00103AD
:1002200083F31488BFF36F8F7047EFF3148343F0A9
:10023000020383F31488BFF36F8F704780F309883C
:10024000704700006011002008B50B2802D00D286F
:100250000ED008BD042906D00129FAD10C4B1B6829
:100260000120984708BD0A4B1B680020984708BD2D
:10027000B1F1005F07D0B1F1804FEAD1044B1B68A8
:1002800003209847E5E7024B1B680220984708BD0A
:10029000280E002070B582B0064602AC022344F856
:1002A000043D094D21462846084B98474FF400125B
:1002B000074B5A63EE605620064B98472146284666
:1002C000054B984702B070BD00800040791C40008B
:1002D00000120E4001000020A91C400030B585B07E
:1002E000044600230C224FF000610C480C4DA84737
:1002F00009200C4B98470C4B019302944FF4006378
:1003000003930A4C01A92046094B98472046094B04
:1003100098472046084B984705B030BD00100E4066
:10032000C51F400065254000000E270700080E404D
:10033000ED2A4000232B4000292B400030B587B028
:10034000054600234FF4C0024FF000610F48104CE7
:10035000A0470F200F4CA04700230393049305935D
:100360000095C02301934FF4006302930F20A04730
:10037000094C0A4A69462046094B98472046094BD2
:1003800098472046084B984707B030BD000E0E40F6
:10039000C51F40006525400000800240000E270771
:1003A000DD2B4000312C4000372C400010B5054BB0
:1003B00098470B20044CA0470C20A0470D20A047D5
:1003C00010BD00BF511D40006525400038B50446F2
:1003D000084D00212846084B984704EB4414B4F517
:1003E000004F28BF4FF40044A1B22846034B984762
:1003F00038BD00BF30140E404D01400039014000AF
:1004000008B50548054B984710F0020F00D108BD0C
:10041000034B1B689847FAE730140E40A1014000D7
:100420002C0E002008B5064B0822C3F88020C3F824
:1004300080214FF400310348034B984708BD00BFAB
:1004400000E100E030140E407901400008B5024898
:10045000024B984708BD00BF30140E408D0140008C
:100460000F4B4FF400021A61C3F8A0204FF4801222
:100470001A61C3F8A02002F18042A2F5F9324FF4CC
:1004800080311161C2F8A0104FF480021A61C3F8E4
:10049000A0204FF400221A61C3F8A020704700BFCB
:1004A00000120E4004281BD8DFE800F003121416D7
:1004B00018005722530903F5001303F207735B0278
:1004C00081B102F01F02012101FA02F25A63704762
:1004D0005422EFE71022EDE75622EBE75322E9E73B
:1004E0000022E7E702F01F02012101FA02F21A637B
:1004F000704704281ED8DFE800F0031517191B0009
:100500005722530903F5001303F207735B02D96BFB
:1005100002F01F02012303FA02F20A420CBF18463E
:10052000002070475422ECE71022EAE75622E8E761
:100530005322E6E70022E4E710B50020054B984778
:10054000054CA0470028FCD000210448044B9847E4
:1005500010BD00BF9D244000C124400060140E4027
:10056000B925400070B582B00446084D01230093C0
:10057000C368026941692846054EB047236862682E
:10058000A1682846034CA04702B070BD60140E401D
:100590003127400029264000F0B585B0044604AD5F
:1005A000002345F8043D0A4E0346021D00F10801F0
:1005B0003046084FB847009504F10C0304F11002CF
:1005C00004F114013046044CA04705B0F0BD00BF53
:1005D00060140E40CF254000BD26400008B5014BF9
:1005E000984708BD950E40002DE9F04782B02038AD
:1005F0001F4B53F820703B7803B301241D4EDFF8E6
:100600008090DFF8808017F804A002AD022345F83F
:10061000043D29463046C8474FF40013C8F830302F
:10062000C6F80CA05620144B984729463046134B69
:1006300098470134E4B23B78A342E4D202AC0223EF
:1006400044F8043D0B4D214628460D4B98474FF486
:1006500000120C4B1A630023EB605620064B9847A0
:1006600021462846054B984702B0BDE8F08700BFF9
:10067000AC0200200080004001000020A91C4000C6
:10068000791C400000120E402DE9F04F83B04FF06E
:10069000000ADFF878B05746DFF874900AF00700D8
:1006A00040F0B000D8471020D8473846D8478026B9
:1006B000134DDFF8608002AC022344F8043D21466C
:1006C0002846C0474FF40013C9F83030EF60562079
:1006D0000C4B9847214628460B4B9847013EEAD1E0
:1006E0000AF1010ABAF1040FD8D1B020074CA04793
:1006F0001020A0470020A04703B0BDE8F08F00BF46
:100700000080004001000020A91C4000950240002C
:1007100000120E40791C400070B50D46C6B2C6F3FB
:10072000021040F01000054CA04706F00F00A04753
:1007300005F0070040F0B000A04770BD95024000F2
:100740000420704738B510B101281CD038BD4FF0D7
:10075000205120200D4B98471D200D4B98470D4CE4
:1007600000230D4A0D4920460D4DA847042120467F
:100770000C4B98470122002120460B4B98472046FE
:100780000A4B984738BD0A4B984738BDAD2040000A
:10079000652540000080034040420F00000E2707FF
:1007A000611E4000A91E4000951E4000A31E40008F
:1007B0004D0F40000000000010B584B018B10128B2
:1007C0001AD0002016E004211B481C4B98471C4BF4
:1007D000984717A3D3E900231A4CA04700221A4BCD
:1007E0001A4CA04702460B4600201749184CA04758
:1007F000184B984704B010BD00220023CDE9002318
:1008000003220023CDE90223134C6846A04750B1D0
:10081000DDE90223501C43F10001CDE90201002B68
:1008200008BF042AF1D3DDE900010A4B9847E1E74C
:100830000000000000FEAF4000800340B31E4000F7
:100840002935400069384000000059401536400005
:10085000AD324000393A4000B90F40002DE9F04F69
:1008600083B0384B18600B20DFF8F4A0D0470A2281
:1008700004213548DFF8EC90C847DFF8EC80CDF86C
:100880000080792304220B212F48304FB847304E87
:100890004FF4006BC6F800B005220B212A482D4DFD
:1008A000A847042128482C4CA0470B20D0470A22F7
:1008B00001212548C847CDF80080792301220B216A
:1008C0002148B847C6F800B005220B211E48A847AA
:1008D00001211D48A0470D20D0470A224FF00051AA
:1008E0001E48C847CDF8008079234FF000520D21F3
:1008F0001A48B8474FF4005BC6F800B005220D2136
:100900001648A8474FF000511448A0470D20D04783
:100910000A224FF080411148C847CDF80080792362
:100920004FF080420D210D48B847C6F800B00522AF
:100930000D210A48A8474FF080410848A04703B05E
:10094000BDE8F08F280E0020000E0E400D23400061
:1009500000E100E0B92340007F20400000120E407B
:1009600065254000C11E40004902400008B510B195
:10097000012804D008BD0846034B984708BD084627
:10098000024B984708BD00BFDD0240003D03400018
:1009900008B510B1012809D008BD094A536913F000
:1009A000020FFBD00648074B984708BD064A53691B
:1009B00013F0020FFBD00448044B984708BD00BF5A
:1009C00000080E40332B400000800240412C4000C4
:1009D00030B583B000238DF8073028B1012810D03E
:1009E0009DF8070003B030BD0C4D0D4C2846A047C4
:1009F00010F0010FFAD00DF107010848094B984794
:100A0000EEE7094D094C2846A04710F0010FFAD037
:100A10000DF107010448064B9847E1E700080E4036
:100A20002F2B4000432B4000008002403D2C400013
:100A3000552C400000B583B009480A4B984710F088
:100A4000010F02D103B05DF804FB0DF1070104486A
:100A5000054B9847054B1B689DF807009847F1E741
:100A600000080E402F2B4000432B4000300E00208A
:100A700000B583B009480A4B984710F0010F02D126
:100A800003B05DF804FB0DF107010448054B9847DE
:100A9000054B1B689DF807009847F1E7008002406E
:100AA0003D2C4000552C4000340E0020704770470C
:100AB000012817D1F8B50122134B1A704C20134BA3
:100AC000984708B10020F8BD114B98470B24114DF1
:100AD000114F124E0020A84730B1013CF2D03846E9
:100AE000B047F7E7002070470D4C4FF40C7200211F
:100AF00020460C4B9847214600200B4B9847B0FAF4
:100B000080F04009F8BD00BF681000208F20400031
:100B100055124000811240006E281A00010000208A
:100B2000380E002059434000012F400038B52C4BAF
:100B3000984704684568836913F8023C102B4ED827
:100B4000DFE803F0091015191D21262A2E33363A45
:100B50003F434D474A00291C18BF01212046214B25
:100B6000984738BD2046204B9847287038BD20460E
:100B70001E4B984738BD20461D4B984738BD204630
:100B80001C4B984738BDE9B220461B4B984738BDEF
:100B900020461A4B984738BD2046194B984738BD18
:100BA0002046184B9847286038BD174B984738BDEA
:100BB000E0B2164B984738BD29462046144B98475B
:100BC00038BD144B9847206038BD2046124B9847DB
:100BD00038BD124B984738BD114B9847206038BD3F
:100BE00013024000A5044000F30440005D084000EB
:100BF000990540006505400091094000D109400079
:100C000045074000B907400089064000E90540005B
:100C10001907400041074000CD0340002504400073
:100C20004D04400008B50248024B984708BD00BF7C
:100C30002D0B4000B50140002DE9F84301210020B3
:100C40001A4CA04701210846A04701210220A047D5
:100C500001210320A04701210420A0470027B94615
:100C6000DFF85880124E39464846C0475F247C253D
:100C70002846B047013CFBD10137042FF3D1C820EF
:100C80000C4B984700210846084CA0470021012042
:100C9000A04700210220A04700210320A0470021F7
:100CA0000420A047044B9847BDE8F883A504400002
:100CB000E9054000D10140008906400019074000C5
:100CC00030B587B00020124CA0470120A047114B3F
:100CD0009847114B98474FF4E13100200F4CA04743
:100CE0004FF4E1310120A0470D4B984701200D4BF7
:100CF00098476C460C4D0FCD0FC495E8030084E86F
:100D000003006846094B9847094B984707B030BD28
:100D10004507400039054000DD0540006D094000F1
:100D200061044000B10A4000F47B400065054000CA
:100D3000390C400008B5074B9847074B9847074BBD
:100D40009847074B9847074B9847074B9847074BDF
:100D5000984708BDA9014000AD034000AF0A40001C
:100D6000AD0A4000C10C4000A5014000250C400028
:100D700070B582B0064602AC022344F8043D094D2A
:100D800021462846084B98474FF40012074B5A63F8
:100D9000EE605620064B984721462846054B98475B
:100DA00002B070BD00800040791C400000120E406F
:100DB00001000020A91C400001290CD049B10229E2
:100DC0000CBF2421002101704280838001238371A4
:100DD00070472221F7E72121F5E70000837903B965
:100DE000704770B50446007900F0070040F0B0008D
:100DF000084EB047A578ED00EDB2C5F3021040F003
:100E00001000B04705F00800B0472078024B984723
:100E100070BD00BF710D4000E905400083880133BB
:100E20009BB2032B98BF8380704783880BB1013B33
:100E30008380704743880BB1013B438070474388F0
:100E400001339BB20F2B98BF4380704770B582B0BF
:100E5000064602AC022344F8043D094D21462846CB
:100E6000084B98474FF40012074B5A63EE60562028
:100E7000064B984721462846054B984702B070BD5F
:100E800000800040791C400000120E40010000204C
:100E9000A91C4000F0B585B0254D4FF000466E63AB
:100EA0005620244CA0472E635620A047022704AEAC
:100EB00046F8047D204C2046204B9847002500959D
:100EC0001F4B2A46314620461E4EB0470123236061
:100ED000A8201D4CA0471F20A047D320A04728468C
:100EE000A0474020A047A120A047C820A047DA2063
:100EF000A0473846A0478120A0478F20A047A420C4
:100F0000A047A620A047D520A0478020A0478D203D
:100F1000A0471420A047DB20A0474020A047D920AD
:100F2000A047F120A047AF20A04705B0F0BD00BF0B
:100F300000120E400100002000800040A51B400070
:100F4000404B4C00F91B40004D0E400000B585B0F1
:100F500000230393074B019342F210730293132073
:100F6000054B984701A90548054B984705B05DF822
:100F700004FB00BF000E27076525400000800140EC
:100F8000C929400010B586B000240194059401439E
:100F90008DF8041001210291039304924F238DF8E0
:100FA000143001A90248034B9847C0B206B010BDE7
:100FB000008001402D2A400070B582B00446002018
:100FC0008DF804008DF8050001AB02220146274D83
:100FD000A847054610BB9DF804209DF8053043EA5C
:100FE00002231BB29AB2002BBABFC2F30E024FF01B
:100FF000FF3001201E4B1B78DBB2032B0ED8DFE83D
:1010000003F002101C29D20900FB02F0194B98478B
:101010000022194B194EB047C4E90001284602B01E
:1010200070BD920900FB02F0124B98470022144B4E
:10103000124EB047C4E90001F0E7520900FB02F08C
:101040000C4B984700224FF07F530C4EB047C4E939
:101050000001E3E7120900FB02F0064B984700226B
:10106000084B064EB047C4E90001D7E7850F4000A2
:1010700069100020493540000000E03F153640006F
:101080000000D03F0000B03F10B5074B196891F841
:101090002230003318BF01234A7C096803480078D6
:1010A000034CA04710BD00BF6C1000207110002041
:1010B0000118400008B104207047334B9A68530967
:1010C00003F5001303F207735B02D96B02F01F02F2
:1010D000012303FA02F20A4210D02B4B9B7B012B17
:1010E00004D00422284B9A7302207047274B1B78A8
:1010F000002BF6D00022264B1A60F2E710B5224BE7
:101100009B7B042B05D0012B19D0032B2CD1032062
:1011100010BD01221C4B9A731D4B1B683BB91B4B26
:101120001A701B4B1B4959601A60022010BD002227
:10113000164B1A701848194B9847022010BD134BD4
:101140001B783BB1124B1B6813F4803F1AD000226E
:101150000F4B1A600C4B02229A73114A1A6001223B
:101160005A74002283F8222000220E4B1A70064C7B
:101170000D4B1C600D4B9847A07B022814BF00202C
:10118000012010BD022010BD280400207010002096
:1011900010E000E0C0E1E40025CA82000100002068
:1011A000801A0600711000206C1000208910400089
:1011B0002DE9F041094C0027094E0A4D394641F608
:1011C0000D30B047804630B1A847C0B218B1013CDD
:1011D000F4D14FF000084046BDE8F081410D030016
:1011E000291A4000411A400010B582B00D4B1B680F
:1011F000998901230093102291400B480B4CA04782
:10120000034610B9184602B010BD064B18680121FC
:101210001230074B984703460028F3D0054B9847F8
:101220000346EFE76C10002009110800A1184000E8
:10123000C11A40003D1B400008B5044B1B7803B1A8
:1012400008BD0020024B9847FAE700BF711000204C
:101250004118400008B50D20054B98470422054B66
:101260009A73FF22044B1A70044B984708BD00BFC5
:10127000652540002804002071100020D11740008F
:101280002DE9F04387B09A4B98470446012805D0D2
:10129000984B9847204607B0BDE8F083964B1B68F3
:1012A0000122DA7300251D749D81944B98472946CD
:1012B0004FF48850924B984730B98F4B1B680324EA
:1012C0009C738C4B9847E5E74FF4D57145F2085075
:1012D0008B4B9847002829D10027874B1B68DB7B65
:1012E00013F0010F40F0DF81834B1B68DB7B03F0C1
:1012F0000903012B11D14FF4007141F21010804B02
:1013000098470028D9D07C4B1B68DB7B13F0010F7A
:1013100003D07C4B98470028CFD07B4B9847764B27
:101320001B6800229A73734B9847B3E7774B984733
:10133000B0F1FF3F00F0B581C0F30B00B0F5D57FF1
:10134000BBD10127C9E7002140F23A506C4B9847C6
:10135000F0B9694B1B680222DA7300214FF4885000
:10136000674B98470028A8D041F6EF354FF00008AA
:10137000634E664F414641F20110B04700289CD0B1
:10138000B84710F0010F00F08480013DF2D194E7DE
:101390005E4B984710F0804F05D0574B1A68D37BAF
:1013A00043F00803D373002141F23B10544B98479C
:1013B000002882D0504B1B68DB7B13F0010F00F03C
:1013C0009081534B984700283FF477AF4A4B1B68F6
:1013D0005A7D02F007004F4951F820004FF47A710E
:1013E00001FB00F1C2F3C3024B4850F8222002FB7C
:1013F00001F21A609A7C920940F02A81997E587E07
:101400001A7E920242EA800242EAA112187FD97E35
:10141000490041EAE011C2F30B02013201F0070179
:1014200002318A40D97D01F00F018A40920A5A6048
:101430009989090441F23710314B984700283FF44D
:101440003CAF01230093082200213448344DA847C3
:1014500000283FF432AF012104A8324B98470028FE
:101460003FF42BAF304B984700283FF426AF9DF850
:10147000103003F00F03012B00F00481002B00F06B
:10148000F480022B00F003811B4B1B6810221A749E
:10149000EFE0002140F23A50194B984700283FF402
:1014A0000CAF1A4B984700F0C040B0F1804F05D107
:1014B000114B1A68D37B43F00803D373002141F228
:1014C0003B100F4B984700283FF4F7AE104B98475E
:1014D00000283FF4F2AE084B1A68937CC3F38303F1
:1014E000013B032B22D8DFE803F08D90939600BFD9
:1014F000B5104000391240006C10002069184000FF
:10150000291A4000B111400089104000411A4000E2
:10151000E91140004C7C4000687C40003311080019
:10152000A1184000C11A40003D1B40001223137453
:10153000537DC3F3C30003F007036D4951F8231033
:101540004FF47A7303FB01F36A4951F8201003FB4F
:1015500001F31360917E507E137E9B0243EA800369
:1015600043EAA113C3F30B0340F6FF718B420FD084
:10157000107FD17E490041EAE011013301F00701FB
:1015800002318B40D17D01F00F018B409B0A5360EB
:10159000137C3F2B4BD90021009101234FF40072A3
:1015A0005548564DA84700283FF487AE0025544EB5
:1015B00003A8B04700283FF480AE0135ADB2322D0C
:1015C000F6D1504B1B689A7E597E1B7E9B0243EAE4
:1015D000810343EAA213C3F30B0340F6FF72934265
:1015E0000ED1474E04A8B04700283FF466AE01353F
:1015F000ADB2352DF6D9434B1A68049B5B08536096
:101600003F4E12E01423137492E7222313748FE7E2
:10161000302313748CE74023137489E704A8B04780
:1016200000283FF44AAE0135ADB27F2DF6D94FF414
:10163000007141F21010344B984700283FF43DAE42
:10164000324B984700283FF438AE314B984766E656
:10165000D97E987E5A7E120442EA00220A43C2F3DF
:101660001502013252025A60E2E6264B1B68102234
:101670001A74244B1B68DB7B03F00903012B7FF4F6
:1016800042AE38E61F4B1B681A221A74F1E79DF828
:101690001230DB091B4B1B6814BF302220221A7446
:1016A000E7E7002719E6BF0741F6EF354FF00008DE
:1016B000154EDFF86090414641F23710B0470028E0
:1016C0003FF447AE394641F22910B04700283FF4B5
:1016D00040AEC84710F0010F3FF435AE013DEAD1EE
:1016E00037E603F00903012B7FF417AE03E600BFD2
:1016F0004C7C40000C7C400008110800A118400000
:101700004D1A40006C100020291A4000B111400011
:1017100089104000411A400070B582B002ACFF232E
:1017200004F8013D0F4E0122214630460E4DA847D8
:10173000012221463046A847012221463046A847CB
:101740000A4C9DF80730FF2B08D001220DF107014C
:101750003046A847013CF4D1002000E0012002B04F
:1017600070BD00BF00800040FD1C4000400D030024
:10177000F0B583B002AD002305F8013D104C114FC8
:10178000114E012229463846B0479DF8073013F024
:10179000F00F08D0FE2B10D0013CF2D104220B4BED
:1017A0001A70002007E013F0070F14BF07220B2266
:1017B000064B1A70002003B0F0BD0120FBE700BF0C
:1017C00020A1070000800040FD1C40007410002094
:1017D0000022084B1A70084B1B6913F4803F00D09D
:1017E000704710B5044C2046044B984701232360F2
:1017F00010BD00BF7410002000800040A51B4000F9
:1018000070B582B00022094B1A70094C04EB8004B9
:10181000084D00920B4621462846074EB047214608
:101820002846064B984702B070BD00BF74100020D8
:101830004C04002000800040F91B4000791C40004F
:1018400008B50022044B1A70044901EB80010448DA
:10185000044B984708BD00BF741000204C040020C2
:1018600000800040A91C4000F0B583B002ADFF230A
:1018700005F8013D0022074B1A700A24064F074E57
:10188000012229463846B047631E13F0FF04F7D102
:1018900003B0F0BD7410002000800040C91C40005F
:1018A0002DE9F04385B0044691469846FF238DF814
:1018B0000F300023534A137000F03F0242F0400201
:1018C0008DF808200A0E8DF809200A0C8DF80A20E0
:1018D0000A0A8DF80B208DF80C1002AF4FF0080C9F
:1018E0000DF10D0E01E0774512D017F8011B62468D
:1018F0005B00DBB283EA010010F0800F18BF83F0B9
:1019000009034900C9B2013A12F0FF02F0D1EAE737
:101910005B0043F001038DF80D303B4F01220DF1C8
:101920000F013846394DA847062202A93846A84774
:1019300004A9FF2301F8093D01223846344B98479A
:101940000727314E324D01220DF107013046A847DD
:101950009DF8073013F0800F0BD07B1E13F0FF07AC
:10196000F1D10222274B1A700023184605B0BDE8BA
:10197000F083284A136013F0080F19D113F0040FF5
:101980001BD133F001031DD114F4005F1FD114F4F7
:10199000007F25D114F4806F2AD11F4BA3F800904B
:1019A0001E4BA3F8008000221D4B1A600123DCE7C8
:1019B0000622144B1A700023D7E70922114B1A7024
:1019C0000023D2E701220F4B1A700023CDE7154BFD
:1019D000984703460028DAD103210A4A1170C4E768
:1019E0000C4900230B6001220748094B9847D1E7B7
:1019F000084C042221460448054B984723681BBA2B
:101A00002360CAE77410002000800040C91C400019
:101A1000FD1C40007810002072100020761000207D
:101A20007C1000201917400010B582B000220092EF
:101A30001346024CA04702B010BD00BFA1184000E1
:101A4000014B1868704700BF7810002010B582B0B5
:101A500004460022144B1A70144B1A88144B196850
:101A6000B1FBF2F302FB13131BB9124B9847034669
:101A700080B1042221461048104B98470C4A136845
:101A800004331360094A1188B3FBF1F201FB1233EE
:101A90001BB10123184602B010BD022201A906485D
:101AA000064B98470123F5E77410002072100020C0
:101AB0007C1000207117400000800040FD1C400099
:101AC0002DE9F04F83B00022164B1A7039B34C1E2B
:101AD000A4B281461546DFF85CB0DFF85C80124F97
:101AE000D8478246B8B1B8F8002009EB050138465E
:101AF0000E4EB047B8F800100D440D4A13680B4461
:101B00001360022201A93846B047013CA4B24FF647
:101B1000FF739C42E4D1504603B0BDE8F08F4FF014
:101B2000010AF8E77410002000800040FD1C40000E
:101B30007C100020711740007210002001207047B7
:101B400010B50E480E4B98473E2100200D4B98478C
:101B50000D4CA0470028FCD00C4B98470C4A0D4B6D
:101B60009A620D4CA0470028FCD010200B4B9847E0
:101B70000B4B98470148024B984710BD000E2707B2
:101B8000352E4000E1244000352540004525400029
:101B9000013F132000040E40552540003924400029
:101BA000252D400010B50446104B98478023236034
:101BB000636843F001036360636843F0100363608C
:101BC000636823F08003636000212046084B984738
:101BD000636823F002036360636823F004036360B7
:101BE00000212046034B984710BD00BFE927400065
:101BF000F92740000F2840002DE9F04104460D462A
:101C0000164615491846154B9847074600231A46AD
:101C100029682046DFF85C80C047082229682046F2
:101C20000F4B9847FAB2296820460E4B9847082276
:101C3000296820460C4B98477208296820460B4BB0
:101C4000984786F0010202F0010229682046084BFD
:101C50009847BDE8F08100BF000E2707B728400075
:101C6000A3284000CD2840005D28400021284000E6
:101C70003F284000F328400008B5436813F0040FE4
:101C800006D009680F2900D908BD064B984708BD42
:101C900009680329F8D8012303FA01F1C943014B6C
:101CA0009847F1E7F927400010B50446236913F47B
:101CB000007FFBD00F212046024B98474FF08073E6
:101CC000236010BDF92740001AB110B40C4611442E
:101CD00006E00020704714F8013BC360A1420BD01E
:101CE00043F69923026912F0020FF4D1013BF9D1B6
:101CF0006FF0020010BC70470020FBE73AB170B4EF
:101D000015460C460D44FF2640F2012112E000204A
:101D10007047C66043F69923026931EA020204D093
:101D2000013BF9D16FF002000EE0836804F8013B3B
:101D3000A5420BD043F69923026912F0020FE8D1B5
:101D4000013BF9D16FF0020070BC70470020FBE747
:101D5000F8B53848384B98470B20384CA0470C2032
:101D6000A0470D20A047364B4FF400021A631A61BA
:101D7000C3F8A020334C04256561C4F8A050656603
:101D8000C4F8905065656562C4F88050226F22F0F7
:101D900004022267626F22F0040262674FF480122D
:101DA0001A631A61C3F8A0204FF4803222632261C3
:101DB000C4F8A0204FF480021A631A61C3F8A0206F
:101DC0004FF000620C212048204B9847204F3946A5
:101DD0000320204EB04739462846B04739460C20EC
:101DE000B04739460D20B04739460E20B0474FF076
:101DF00080510920B04718490A20B04707F14057E1
:101E000039465520B04739465F20B04713494C202A
:101E1000B0476566C4F8905065656562C4F8805047
:101E2000236F23F004032367636F23F004036367C6
:101E3000F8BD00BF50140E406D2C400065254000D9
:101E400000120E40000E0E4000100E40CD2140004A
:101E500001000008AD204000010000100100002832
:101E600030B4012404600024446040F20225C0F82C
:101E70002051C0F80441C0F8144145685200B1FB3C
:101E8000F2F2013A120292B22B431A434260204608
:101E900030BC70474368D201D2B219430A43426052
:101EA0007047022303607047012303FA01F10161C7
:101EB00070470F299ABF503050F82100002070471A
:101EC000C0F8841053004FF40042B2FBF3F2013A21
:101ED000C2F30D02C0F88C2070474264B1F1C05FBC
:101EE00039D013D8B1F1006F25D0B1F1805F0AD19C
:101EF000036F13430367436F416F0B4023EA0203F1
:101F00004367426070470029FBD17047B1F1205F01
:101F100020D009D8B1F1005FF3D1036F13430367F9
:101F2000436F13434367ECE7B1F1405F12D0B1F167
:101F3000605F0FD0E5E710B4016F046FD343214019
:101F40001C4619400167436F416F0B4023404367B4
:101F5000426010BC7047036F016F0B4023EA02031D
:101F60000367436F13434367CBE7416412F0010FEC
:101F700014BF4166016612F00A0F14BF016241628C
:101F800012F0020F07D112F0080F18BFC0F884102A
:101F9000416101607047C0F88010F9E710B4019CFE
:101FA000416444B9016643B1016542B941630161CD
:101FB000016010BC70474166F5E74165F5E70163D4
:101FC000F5E7000070B582B0054616461C46B1F133
:101FD000005F14D00AD9B1F1405F22D0B1F1605F47
:101FE0001FD0B1F1205F16D0002012E0B1F1805F68
:101FF00005D0B1F1C05F02D0B1F1006FF4D132462B
:102000002846104B984714F0010F14BF6E662E66D9
:10201000012002B070BD1A4631460B4B9847012093
:10202000F7E704F001030093C4F38003B1F1605FAC
:1020300014BF0022012231462846044CA04701204B
:10204000E7E700BFDB1E40006B1F40009D1F400004
:1020500012F0100F10D0C0F8B01012F0200F14BF03
:10206000C0F8D410C0F8D01012F0400F14BFC0F860
:10207000C010C0F8C4107047C0F8B41070470164B5
:10208000704741647047C06C7047806C704743096B
:1020900003F5001303F207735B02DB6B00F01F0014
:1020A00023FA00F000F001007047000070B582B024
:1020B0000D46430903F5001303F207735C0201F0B8
:1020C000F043B3F1005F53D00AD8B3F1805F2DD055
:1020D000B3F1C05F3BD0B3F1006F15D0002023E017
:1020E000B3F1405F55D0B3F1605F52D0B3F1205FE0
:1020F000F4D100F01F0101262A4606FA01F120461C
:102100002F4B984730460FE000F01F000126864015
:1021100032464FF0006120462A4B984715F0010FD8
:1021200014BF66662666012002B070BD00F01F0075
:102130000126864032464FF080512046214B984779
:1021400015F0010F14BF666626660120ECE700F06B
:102150001F000126864032464FF0C0512046194BE1
:10216000984715F0010F14BF666626660120DBE76D
:1021700000F01F000126864032464FF000512046F5
:10218000104B984715F0010F14BF666626660120B4
:10219000CAE705F0605200F01F01012605EA0603B8
:1021A0000093C5F38003B2F1605F14BF00220122E7
:1021B00006FA01F12046044CA0473046B4E700BFC0
:1021C0006B1F4000DB1E40009D1F400070B582B0B9
:1021D00005460E46144602F0F043B3F1005F3DD0D1
:1021E0000AD8B3F1805F21D0B3F1C05F2AD0B3F138
:1021F000006F0ED0002017E0B3F1405F3AD0B3F18A
:10220000605F37D0B3F1205FF4D1234B98470120B2
:102210000AE00A464FF00061204B984714F0010F86
:1022200014BF6E662E66012002B070BD0A464FF0E4
:1022300080511A4B984714F0010F14BF6E662E663A
:102240000120F1E70A464FF0C051144B984714F0B3
:10225000010F14BF6E662E660120E5E70A464FF0B7
:1022600000510E4B984714F0010F14BF6E662E6696
:102270000120D9E704F0605204F001030093C4F395
:102280008003B2F1605F14BF00220122314628466C
:10229000034CA0470120C7E76B1F4000DB1E400036
:1022A0009D1F40002DE9F84381460F46124B984789
:1022B00005464846114B9847054013D0104C04F191
:1022C000600603E0B4420DD010345DB12068B8421E
:1022D000F8D161682942F5D0E3689847636825EA38
:1022E0000305EFE7074B1B6823B1074B1B680BB1D6
:1022F00048469847BDE8F883872040008B2040007F
:102300008010002064110020F4100020F8B5184C53
:102310002668062E29D84FF0000C6446154F04E0BD
:102320000134E4B2A446A64209D3A64625017D594C
:102330008D42F5D107EB04156D689542F0D10D4D36
:102340004FEA0E1E05EB0E0445F80E106260A36006
:102350000699E1600136664504BF05490E601146E5
:102360001A46054B98470020F8BD0120F8BD00BF74
:10237000F0100020801000205120400008B50B21F3
:102380000148024B984708BD000E0E40A5224000B0
:1023900008B50C210148024B984708BD00100E40BB
:1023A000A522400008B50D210148024B984708BD01
:1023B00000120E40A5224000F8B505460C4617460F
:1023C000184B984706464FF0FF312846164B984762
:1023D0002846164B9847E2B202F01F0301219940AC
:1023E00063099B0003F1604303F56143C3F8801068
:1023F000C3F88011002C0DDB3F01FFB204F16044F3
:1024000004F5614484F80073196031462846084B8E
:102410009847F8BD02F00F023F01FFB2054887540C
:10242000F2E700BF8B20400083204000872040005F
:102430007F20400014ED00E0174A136B23F0700377
:1024400018431063936E13F0080F0AD14FF4006322
:1024500011498A6E12F0080F03D1013BF9D1012016
:1024600070470D4A136B23F0030343F00203136319
:10247000936E13F0080F0AD14FF4006306498A6E79
:1024800012F0080F05D1013BF9D10120704700205F
:1024900070470020704700BF00040E40012803D0A1
:1024A000054A064B1A607047044A936843F0254377
:1024B00043F480139360F3E7080000A510140E4066
:1024C000054B5B6913F0800F1DBF044B986EC0F382
:1024D000C0100020704700BF10140E4000040E40D2
:1024E000C8B9114A136A090289B223F45C1323F0B4
:1024F000030343F45C1343F001030B431362936E35
:1025000013F0010FFBD0084A136A43F09B7343F4A6
:1025100080331362704704490B6A044A1A40044B23
:1025200013430B62704700BF00040E40FCFFC8FE5F
:1025300002003701024B986E00F48030704700BFF4
:1025400000040E404FF00052014B9A62704700BFEA
:1025500000040E40024B986E00F00200704700BF6E
:1025600000040E4022281ED81F280CD8114B9A694F
:1025700001238340934318D0012303FA00F00D4B4D
:1025800018610020704720380A4BD3F80821012336
:10259000834093430BD0012303FA00F0054BC3F8AB
:1025A0000001002070470120704700207047002084
:1025B000704700BF00040E4021B9436823F00103B7
:1025C00043607047436843F001034360704730B491
:1025D00085688468A54203D085688468AC42FBD1D5
:1025E00061B1C4F3015000EB8005C4F3034000EB7C
:1025F000450014F4800F18BF0C30086042B1C4F3DA
:10260000023101EB8101C4F3032000EB41011160B1
:1026100043B1C4F3021202EB820204F00F0404EB94
:1026200042041C6030BC7047F0B4446814F0010FE1
:1026300005D00C293DD90C394FF4800700E0002764
:102640001D4CA4FB0356F60806EB8605A3EB4503D9
:1026500043EA0613A4FB0265ED0843EA053305EBE4
:102660008505A2EB450543EA05233B43A4FB014254
:10267000D20843EA025302EB8202A1EB420143EA91
:102680000141836913F0040FFBD0036843F0010399
:102690000360836913F0010FFBD00123C3618160E4
:1026A000036823F001030360C06A00F00100F0BC7E
:1026B00070470027C4E700BFCDCCCCCCF0B4049E5B
:1026C000C568C468A54203D0C568C468AC42FBD1E4
:1026D00099B1C4F3033000EB8000C4F3032707EB88
:1026E0004007C4F3021000EB800504F00F0000EB7C
:1026F0004500642505FB0070086042B1C4F300503A
:1027000081000844C4F3034101EB4001116043B16F
:10271000C4F3017202EB8202C4F3036101EB4202D3
:102720001A6016B1C4F342543460F0BC7047000024
:1027300070B42A4DA5FB0346F608039C640544EAE1
:10274000067406EB8606A3EB460344EA0363A5FB87
:102750000264E40843EA045304EB8404A2EB440259
:1027600043EA02421E4BA3FB01439B0942EA0312C8
:102770001C4BA3FB01435B09A5FB0364E40804EBCA
:102780008404A3EB44031A43A5FB0143DB0803EBDA
:102790008304A1EB440142EA0122A5FB0315ED08E5
:1027A00005EB8505A3EB450542EA0532836913F085
:1027B000040FFBD0036843F002030360836913F046
:1027C000010FFBD00123C361C260036823F0020341
:1027D0000360C06A00F0020070BC7047CDCCCCCC66
:1027E000D34D62101F85EB5108B51520014B98475A
:1027F00008BD00BF65254000436823F47023436093
:102800004368090401F4702119434160704743682B
:1028100023F07F434360436843EA016141607047AE
:1028200032B900EB8100036B23F0010303637047AF
:1028300000EB8100036B43F001030363704732B97F
:1028400000EB8100036B23F002030363704700EB8E
:102850008100036B43F0020303637047042A03D033
:102860006AB1082A16D0704700EB8100036B23F091
:1028700008030363036B43F004030363704700EB37
:102880008100036B23F008030363036B23F004034D
:102890000363704700EB8100036B43F0080303639D
:1028A000E1E700EB81010B6B23F0F0030B630B6B93
:1028B0001A430A637047431E1944B1FBF0F0431EEC
:1028C000FE2B94BF00B24FF0FF30704772B110B4CE
:1028D000144600EB81010B6B23F47F430B630A6BFF
:1028E00042EA04220A63002010BC70474FF0FF3018
:1028F000704710B400EB8101086B80B208630C6B69
:1029000044EA036343EA02430B6310BC70470000D0
:102910002A4B994249D8A3F57A5399422BD910B43E
:10292000274CA4FB0234A40B043C264B0B449B0015
:10293000B2FBF3F2043AFF2C39D9002101316408CB
:10294000FF2C0DD90729F9D113029BB2090401F418
:10295000E0210B43E4B223430361002010BC704725
:10296000FF2AF1D90629EFD801315208FF2AEBD905
:102970000629F9D9E8E74900B2FBF1F2043AFF2A47
:1029800011D9002301335208FF2A01D9072BF9D1AD
:10299000110289B21B0403F4E0230B43D2B21A43A1
:1029A0000261002070470023F2E701207047FF2AF0
:1029B00088BF0021D8D80021C6E700BF801A0600D2
:1029C000F11976050012FD3F38B504460D464FF06B
:1029D000FF338362036A80230360036B0823036071
:1029E00020230360042303600A684968054B984765
:1029F000012814BF002001206B7A012B04BF402363
:102A0000236038BD112940000A4659B103780129D5
:102A1000C4BF417841EA0323022A04DD827842EAF6
:102A2000032300E00023184670470000F8B5CC6887
:102A3000002C4FD00B4605468E68002068604A681F
:102A4000120202F4407242F48052097C090401F43B
:102A5000FE010A436A60E86059681846224B9847AD
:102A6000E860012C0FD001232B6000202B6A13F4A7
:102A7000807F36D147F22F5147F230574FF0010E89
:102A80004FF0020C19E003232B600120EEE70A4609
:102A900070460CE008B9C5F800C013F0020FF6D07C
:102AA00070462B6B3370013C01363A4664B12B6A99
:102AB00013F4807F11D1511E8AB1012CEAD013F09A
:102AC000020FEED10A46F1E72B6A13F0010FFBD09B
:102AD0002B6A00E001242046F8BD0524FBE7092409
:102AE000F9E70524F7E700BF092A400010B4AC233A
:102AF00003600B684A68B3FBF2F31B095C1E4FF6D8
:102B0000FE7294420BD803628B68436040F202234A
:102B1000C0F8203150230360002010BC7047012012
:102B2000FBE7402303607047102303607047406950
:102B30007047436913F0020F1ABFC16100200120E2
:102B40007047436913F0010F1DBF83690B700020AC
:102B50000120704710B40B01934214D9C9004B08EF
:102B600003EBC202B2FBF1F2D3085C1E4FF6FE711A
:102B70008C4201D9012017E0416841F400214160F5
:102B80000CE0012010E0590801EBC202B2FBF3F2A5
:102B9000D3085C1E4FF6FE718C42F2D8120402F488
:102BA000E0221A430262002010BC70470A4BC0F8B2
:102BB000E43000234360436283628823036024235C
:102BC00003604FF4807303604FF4002303604FF4FD
:102BD00000330360704700BF0041535570B5054690
:102BE0000C4616460F4B984700220F4B1A60A4B1B3
:102BF0003246216828460D4B9847024678B96368EB
:102C0000A1680B4321690B43E1680B4306490B6044
:102C100069680B436B60104670BD0122FBE701221F
:102C2000F9E700BFAD2B4000F8100020552B400005
:102C3000402303607047102303607047406970476A
:102C4000436913F0020F1DBFC1F30801C1610020E9
:102C500001207047436913F0010F05D08369C3F366
:102C600008030B6000207047012070474FF40043B9
:102C700043607047FEE7000008B5214B214A9A42A5
:102C800028D9214B1E4A9A420CD2013B9B1A23F0B1
:102C90000303043313441B4951F8040B42F8040B9B
:102CA0009A42F9D100BF194B194A9A420AD2013B04
:102CB0009B1A23F0030304331344002142F8041B3E
:102CC0009A42FBD1134B144A9A60144B9847144B09
:102CD0009847FEE70A4B0B4A9A42E3D20A4B084850
:102CE000181A1146043A02440028DBD0C1F104014D
:102CF00052F8040943F8040DCA42F9D1D2E700BFE3
:102D0000000000206C7F4000080E0020D811002039
:102D1000080E002000ED00E000004000893D40006A
:102D2000C12F40003C4B1B6B03F00303032B0ED859
:102D3000DFE803F0021C3838384B5B6913F0800F72
:102D400014BF4FF400424FF4FA42354B1A60324B35
:102D50001B6B03F07003702B55D02F4B1A6B30494F
:102D6000C2F302120B68D3400B6070472A4B1B6AF8
:102D700013F0807F03D02B4A294B1A60E7E72A4AD9
:102D8000274B1A60244B1B6A03F07003102B05D0ED
:102D9000202BDCD1234A224B1A60D8E7234A204B50
:102DA0001A60D4E71C4B1B6A13F0807F18D01D4AB1
:102DB0001B4B1A60184B1B6B03F00303022B164AC4
:102DC00007BF916A926AD16AD26A1548C1F30A4173
:102DD000036801FB0333D2B2B3FBF2F30360B6E73F
:102DE000114A0F4B1A600C4B1B6A03F07003102B37
:102DF00005D0202BDED10B4A094B1A60DAE70B4ACB
:102E0000074B1A60D6E7064A13680949A1FB03136A
:102E10005B081360704700BF00040E4010140E40A2
:102E200050040020001BB70000093D0000127A008A
:102E3000ABAAAAAA1A4B984214D91A4B984219D98C
:102E4000194B98421DD9194B984221D9184B9842D9
:102E500094BF4FF00423174B174A136002F500721A
:102E6000136070474FF08063134A136002F50072DD
:102E700013607047114B104A136002F50072136023
:102E800070470F4B0C4A136002F5007213607047D5
:102E90000C4B094A136002F500721360704700BFC3
:102EA000FF2C3101FF596202FF869303FFB3C40474
:102EB000FFE0F50500050004000A0E4000010004D3
:102EC00000020004000300040A4B1B6853B1094BC5
:102ED0001B681A180849914208DB1046054A106021
:102EE00018467047054A034B1A60F0E74FF0FF3071
:102EF000704700BFFC100020FC3F0120D84100209B
:102F0000072801D90B207047064B53F820300BB12E
:102F100000221A7009B100230B70024B43F82010F5
:102F200000207047001100200122024B1A70024B52
:102F300018607047201100206C1100202DE9F84323
:102F40000E4B1D780E4C04F13C07DFF83C90DFF887
:102F50003C800C4E06E02068C84754F8040BB0478C
:102F6000BC4204D0002DF6D02068C047F5E785F0BC
:102F70000105024B1D70BDE8F88300BF540400201A
:102F800070110020350E40002B0E40001D0E400039
:102F90002DE9F0410646451E0024074FDFF81C804E
:102FA00003E015F8010FC04701343046B8478442AA
:102FB000F7D3BDE8F08100BF81444000E90540003F
:102FC0002DE9F04F91B09D4B98479D489D4B9847F8
:102FD0004FF0000B8DF80FB0DFF8C0921EE1033701
:102FE000BFB2019B01339BB201930F2F14D0002578
:102FF000ABB2FC18A4B2029A02EBC406019A59467D
:1030000004A8D04733460498059903C348F82460C0
:103010000135032DECD1E2E707AC02235A4601212A
:103020002046894DA847894B1C6009AC5B465A462F
:1030300002212046A847864B1C609DF80F308DF872
:103040002A30DFF85CA20AF13C05544654F8040F1C
:10305000C847AC42FAD17D4B1868C8477D4BA3F8EE
:1030600000B079E0794B18687B4B984788E0784B43
:103070001B689A79002A40F0838001229A71734973
:103080000A68528801325A800B689A88704B1B6814
:103090009A8075E06D4B1868704B984770E080F827
:1030A00006B078E06E4B984775E06E4B98476E4BD4
:1030B0001B88052B08BF5B4673D070E004338B423E
:1030C00014D00028FAD01A685788BEF80250AF42D0
:1030D000F4D19788BEF80450AF42EFD19579002D16
:1030E00018BF9046002D18BFAC46E7E7BCF1000FB3
:1030F00007D088F806B08EF806B0564A13880A330F
:1031000013805A4B9847554601E0A54206D055F822
:10311000040F8379002BF8D0C847F6E74B4B1868AB
:10312000C8474B4B186883791BB9514B18785346E5
:1031300003E0C847F9E79D420CD053F8042F5188AB
:103140000029F8D19279002A18BF1646002A18BF24
:103150001046F0E7002E32D1454B1E78002E31D1BB
:10316000C820444B9847444B1B7863B1434B1B68C2
:10317000022B3FF47CAF032B8CD0012B3FF472AFBA
:103180003D4B83F800B0324B186843880F2B86D034
:103190008379002B86D1344B1B88052B85D00133D6
:1031A0009BB2314A13802A4BD3F800E09EF8060008
:1031B000334B03F13C01B4464FF0000881E72C4B40
:1031C0001870C9E702982F4B9847284B9847214B16
:1031D0001A882D490BA82D4B98470BA82C4B9847C4
:1031E000254B1B78BBB901252A4C29462846A04708
:1031F00029460220A04729460320A04759462846D1
:10320000A04759460220A04759460320A0471A4B21
:103210001B78002BE9D0184B83F800B0144B9DF8B5
:103220000F201A7078201C4B984702900A230193B4
:103230005F46DFF814A0DFF84880D8E6350D40007F
:10324000292F40005D084000B90D4000AC1100205E
:1032500068110020221100202B0E40001D0E40009E
:103260003F0E40003D2F4000241100208906400001
:1032700021110020D1014000201100206C110020FC
:1032800070110020E93D4000A87C4000314440001E
:10329000912F4000A5044000D93D4000DD0D4000C5
:1032A0006C11002081F0004102E000BF83F0004378
:1032B00030B54FEA41044FEA430594EA050F08BFD1
:1032C00090EA020F1FBF54EA000C55EA020C7FEA95
:1032D000645C7FEA655C00F0E2804FEA5454D4EB12
:1032E0005555B8BF6D420CDD2C4480EA020281EADC
:1032F000030382EA000083EA010180EA020281EA14
:103300000303362D88BF30BD11F0004F4FEA013165
:103310004FF4801C4CEA113102D0404261EB410174
:1033200013F0004F4FEA03334CEA133302D05242FA
:1033300063EB430394EA050F00F0A780A4F10104B6
:10334000D5F1200E0DDB02FA0EFC22FA05F28018F0
:1033500041F1000103FA0EF2801843FA05F35941D6
:103360000EE0A5F120050EF1200E012A03FA0EFC55
:1033700028BF4CF0020C43FA05F3C01851EBE3717F
:1033800001F0004507D54FF0000EDCF1000C7EEB9C
:1033900000006EEB0101B1F5801F1BD3B1F5001FDA
:1033A0000CD349085FEA30004FEA3C0C04F10104F9
:1033B0004FEA445212F5800F80F09A80BCF1004F22
:1033C00008BF5FEA500C50F1000041EB045141EAA4
:1033D000050130BD5FEA4C0C404141EB010111F4A5
:1033E000801FA4F10104E9D191F0000F04BF014650
:1033F0000020B1FA81F308BF2033A3F10B03B3F12E
:1034000020020CDA0C3208DD02F1140CC2F10C02BD
:1034100001FA0CF021FA02F10CE002F11402D8BF1B
:10342000C2F1200C01FA02F120FA0CFCDCBF41EAE7
:103430000C019040E41AA2BF01EB0451294330BDB6
:103440006FEA04041F3C1CDA0C340EDC04F1140493
:10345000C4F1200220FA04F001FA02F340EA03006A
:1034600021FA04F345EA030130BDC4F10C04C4F1B0
:10347000200220FA02F001FA04F340EA0300294690
:1034800030BD21FA04F0294630BD94F0000F83F4DA
:10349000801306BF81F480110134013D4EE77FEABD
:1034A000645C18BF7FEA655C29D094EA050F08BF09
:1034B00090EA020F05D054EA000C04BF19461046EA
:1034C00030BD91EA030F1EBF0021002030BD5FEA2E
:1034D000545C05D14000494128BF41F0004130BD56
:1034E00014F580043CBF01F5801130BD01F00045AA
:1034F00045F0FE4141F470014FF0000030BD7FEA1D
:10350000645C1ABF194610467FEA655C1CBF0B4617
:10351000024650EA013406BF52EA033591EA030F2E
:1035200041F4002130BD00BF90F0000F04BF002126
:10353000704730B54FF4806404F132044FF0000559
:103540004FF0000150E700BF90F0000F04BF0021D2
:10355000704730B54FF4806404F1320410F0004538
:1035600048BF40424FF000013EE700BF42004FEA33
:10357000E2014FEA31014FEA02701FBF12F07F43B0
:1035800093F07F4F81F06051704792F0000F14BFAD
:1035900093F07F4F704730B54FF4607401F00045F1
:1035A00021F0004120E700BF50EA010208BF704748
:1035B00030B54FF000050AE050EA010208BF70473D
:1035C00030B511F0004502D5404261EB41014FF4A6
:1035D000806404F132045FEA915C3FF4DCAE4FF0AA
:1035E00003025FEADC0C18BF03325FEADC0C18BF91
:1035F000033202EBDC02C2F1200300FA03FC20FAE2
:1036000002F001FA03FE40EA0E0021FA02F114442E
:10361000C1E600BF70B54FF0FF0C4CF4E06C1CEA43
:1036200011541DBF1CEA135594EA0C0F95EA0C0FB8
:1036300000F0DEF82C4481EA030621EA4C5123EA2B
:103640004C5350EA013518BF52EA033541F480115A
:1036500043F4801338D0A0FB02CE4FF00005E1FB0D
:1036600002E506F00042E0FB03E54FF00006E1FB57
:1036700003569CF0000F18BF4EF0010EA4F1FF049A
:10368000B6F5007F64F5407404D25FEA4E0E6D41DA
:1036900046EB060642EAC62141EA55514FEAC520EB
:1036A00040EA5E504FEACE2EB4F1FD0C88BFBCF567
:1036B000E06F1ED8BEF1004F08BF5FEA500E50F118
:1036C000000041EB045170BD06F0004646EA0101DE
:1036D00040EA020081EA0301B4EB5C04C2BFD4EB10
:1036E0000C0541EA045170BD41F480114FF0000E09
:1036F000013C00F3AB8014F1360FDEBF002001F077
:10370000004170BDC4F10004203C35DA0C341BDCF0
:1037100004F11404C4F1200500FA05F320FA04F0C2
:1037200001FA05F240EA020001F0004221F00041F6
:1037300010EBD37021FA04F642EB06015EEA430E69
:1037400008BF20EAD37070BDC4F10C04C4F1200599
:1037500000FA04F320FA05F001FA04F240EA02004C
:1037600001F0004110EBD37041F100015EEA430E1D
:1037700008BF20EAD37070BDC4F1200500FA05F23D
:103780004EEA020E20FA04F301FA05F243EA0203BC
:1037900021FA04F001F0004121FA04F220EA0200CB
:1037A00000EBD3705EEA430E08BF20EAD37070BD11
:1037B00094F0000F0FD101F00046400041EB0101F1
:1037C00011F4801F08BF013CF7D041EA060195F0D3
:1037D000000F18BF704703F00046520043EB03038D
:1037E00013F4801F08BF013DF7D043EA060370477A
:1037F00094EA0C0F0CEA135518BF95EA0C0F0CD085
:1038000050EA410618BF52EA4306D1D181EA0301CA
:1038100001F000414FF0000070BD50EA410606BFC4
:103820001046194652EA430619D094EA0C0F02D109
:1038300050EA013613D195EA0C0F05D152EA03364E
:103840001CBF104619460AD181EA030101F000416C
:1038500041F0FE4141F470014FF0000070BD41F0B5
:10386000FE4141F4780170BD70B54FF0FF0C4CF48F
:10387000E06C1CEA11541DBF1CEA135594EA0C0FAE
:1038800095EA0C0F00F0A7F8A4EB050481EA030EFB
:1038900052EA03354FEA013100F088804FEA0333E2
:1038A0004FF0805545EA131343EA12634FEA0222B0
:1038B00045EA111545EA10654FEA00260EF0004171
:1038C0009D4208BF964244F1FD0404F5407402D2C3
:1038D0005B084FEA3202B61A65EB03055B084FEA54
:1038E00032024FF480104FF4002CB6EB020E75EB51
:1038F000030E22BFB61A754640EA0C005B084FEA79
:103900003202B6EB020E75EB030E22BFB61A7546F5
:1039100040EA5C005B084FEA3202B6EB020E75EB40
:10392000030E22BFB61A754640EA9C005B084FEAB8
:103930003202B6EB020E75EB030E22BFB61A7546C5
:1039400040EADC0055EA060E18D04FEA051545EAB4
:1039500016754FEA06164FEAC30343EA52734FEA5D
:10396000C2025FEA1C1CC0D111F4801F0BD141EAD6
:1039700000014FF000004FF0004CB6E711F4801F3B
:1039800004BF01430020B4F1FD0C88BFBCF5E06F1B
:103990003FF6AFAEB5EB030C04BFB6EB020C5FEA2B
:1039A000500C50F1000041EB045170BD0EF0004E80
:1039B0004EEA113114EB5C04C2BFD4EB0C0541EAB2
:1039C000045170BD41F480114FF0000E013C90E6AF
:1039D00045EA060E8DE60CEA135594EA0C0F08BF73
:1039E00095EA0C0F3FF43BAF94EA0C0F0AD150EA72
:1039F00001347FF434AF95EA0C0F7FF425AF104605
:103A000019462CE795EA0C0F06D152EA03353FF42C
:103A1000FDAE1046194622E750EA410618BF52EAA9
:103A200043067FF4C5AE50EA41047FF40DAF52EA7D
:103A300043057FF4EBAE12E74A0011D212F50012F3
:103A400011D20DD56FF47873B3EB62520ED44FEAF6
:103A5000C12343F0004343EA505323FA02F0704776
:103A60004FF00000704750EA013002D14FF0FF30B4
:103A700070474FF00000704753B94AB9002908BF9A
:103A800000281CBF4FF0FF314FF0FF3000F07AB933
:103A9000ADF1080C6DE904CE00F006F8DDF804E0A5
:103AA000DDE9022304B070472DE9F0478C460D464E
:103AB0000446089E002B51D18A4217466DD9B2FAAE
:103AC00082FEBEF1000F0BD0CEF1200C01FA0EF5F4
:103AD00020FA0CFC02FA0EF74CEA050C00FA0EF480
:103AE0004FEA174A250CBCFBFAF81FFA87F90AFBC4
:103AF00018CC45EA0C4508FB09F3AB420AD9ED198D
:103B000008F1FF3280F02381AB4240F22081A8F11E
:103B100002083D44ED1AA4B2B5FBFAF00AFB1055B9
:103B200044EA054400FB09F9A14509D9E41900F16B
:103B3000FF3380F00A81A14540F2078102383C44FE
:103B4000A4EB090440EA08400021002E61D024FAC9
:103B50000EF4002334607360BDE8F0878B4207D910
:103B6000002E54D0002186E821000846BDE8F087E9
:103B7000B3FA83F1002940F08E80AB4202D3824237
:103B800000F2FA80841A65EB03050120AC46002E92
:103B90003FD086E81010BDE8F08712B90127B7FBC7
:103BA000F2F7B7FA87FEBEF1000F34D1EB1B3A0CE7
:103BB0001FFA87FC0121B3FBF2F8250C02FB183336
:103BC00045EA03450CFB08F3AB4207D9ED1908F1B0
:103BD000FF3002D2AB4200F2D1808046ED1AA3B290
:103BE000B5FBF2F002FB105543EA05440CFB00FC68
:103BF000A44507D9E41900F1FF3302D2A44500F22D
:103C0000B8801846A4EB0C0440EA08409DE7314612
:103C10003046BDE8F087CEF1200405FA0EF307FA2E
:103C20000EF720FA04F83A0C25FA04F448EA0308DF
:103C3000B4FBF2F14FEA184502FB11441FFA87FC6E
:103C400045EA044501FB0CF3AB4200FA0EF409D936
:103C5000ED1901F1FF3080F08A80AB4240F287809D
:103C600002393D44EB1A1FFA88F5B3FBF2F002FB70
:103C7000103345EA034500FB0CF3AB4207D9ED19BD
:103C800000F1FF386FD2AB426DD902383D44EB1AD8
:103C900040EA01418FE7C1F1200722FA07F88B4083
:103CA00005FA01F448EA030320FA07FE4FEA134C31
:103CB000FD404EEA040EB5FBFCF94FEA1E440CFB36
:103CC00019551FFA83F844EA054509FB08F4AC428C
:103CD00002FA01F200FA01FA08D9ED1809F1FF30F1
:103CE00043D2AC4241D9A9F102091D442D1B1FFA50
:103CF0008EFEB5FBFCF00CFB10554EEA054400FBB4
:103D000008F8A04507D9E41800F1FF3529D2A045ED
:103D100027D902381C4440EA0940A4EB0804A0FB60
:103D200002894C45C6464D4615D312D056B1BAEB62
:103D30000E0364EB050404FA07F7CB401F43CC40A5
:103D4000376074600021BDE8F0871846F8E69046B9
:103D5000E0E6C245EAD2B8EB020E69EB0305013892
:103D6000E4E72846D7E7404691E78146BEE70146AB
:103D700078E702383C4445E7084608E7A8F102081E
:103D80003D442BE7704700BF70B50F4E0F4D761BBB
:103D9000B61018BF002405D0013455F8043B9847ED
:103DA000A642F9D10A4E0B4D761B04F0C9F8B610A5
:103DB00018BF002406D0013455F8043B9847A642AA
:103DC000F9D170BD70BD00BF4C7F40004C7F4000FA
:103DD000547F40004C7F4000024B0146186800F0C1
:103DE0000BB800BF58040020024B0146186802F0CF
:103DF0001BBE00BF580400202DE9F04F01F10B0657
:103E0000162E83B0054640F29E8036F0070600F17C
:103E1000BD80B14200F2BA8000F0ECFAB6F5FC7F4A
:103E2000C0F09382730A00F0B880042B00F279810D
:103E3000B30903F1390003F1380EC300BF4F3B440F
:103E4000A3F108015C68A14206D10CE0002A80F2CF
:103E5000AA80E468A14206D0636823F003039A1B9A
:103E60000F2AF3DD70463C69DFF8E4E2744500F0A8
:103E7000AB81636823F003039A1B0F2A00F3908140
:103E8000002AC7F814E0C7F810E080F29D80B3F56F
:103E9000007F80F06181DB0803F1010C99107A68E2
:103EA00057F83C80C4F8088001238B4007EBCC0115
:103EB00013430839E1607B6047F83C40C8F80C4088
:103EC0008210012494409C4200F28B801C4206D157
:103ED00020F0030064001C4200F10400FAD007EB5C
:103EE000C009CC468046DCF80C309C4507D16DE11A
:103EF000002A80F27B81DB689C4500F0678159686D
:103F000021F003018A1B0F2AF2DDD3F80CC0D3F88D
:103F1000088000939C19284646F0010642F00105EE
:103F20005E60C8F80CC0CCF808807C613C61C4F8C5
:103F30000CE0C4F808E065605A5000F061FA009B9C
:103F400003F108041EE0102920D800F053FA1026CF
:103F500018230220794F3B44A3F108025C68944285
:103F600000F03D816368E168A66823F00303234401
:103F700028465A68F16042F001028E605A6000F0F3
:103F80003FFA0834204603B0BDE8F08F00240C232C
:103F900020462B6003B0BDE8F08F40204FF4007343
:103FA0004FF03F0E4AE72344E1685A68A66842F0A2
:103FB0000102F16028468E605A6000F021FA083450
:103FC000204603B0BDE8F08F234428465A6842F0EB
:103FD00001025A6000F014FA0834204603B0BDE82C
:103FE000F08FBC68636823F00308B04504D3A8EBE6
:103FF00006030F2B00F38580DFF85891504BD9F85A
:1040000000201B680132334404EB080A00F055819C
:1040100003F580530F3323F47F6B2BF00F0B5946BE
:10402000284600F0F3F9411C024600F0FC8082456E
:1040300000F2F780434B19685944196000F04D8134
:10404000D9F8000001301BBFA2EB0A0A5144C9F89D
:104050000020196012F0070100F01581C1F108007D
:10406000C1F580510244083102EB0B09C9F30B0979
:10407000A1EB0909494628460193009200F0C6F9D0
:10408000431C9DE80C0000F04381801A484440F036
:1040900001001968BA604944BC425060196017D0E9
:1040A000B8F10F0F40F2FB806068A8F10C0222F01B
:1040B000070204EB020E00F001004FF0050C104364
:1040C0000F2A6060CEF804C0CEF808C000F2178155
:1040D0001D4BBC681A68914288BF19601B4B1A6857
:1040E0009142626888BF196022F003029642A2EBF7
:1040F000060301D80F2B04DC284600F081F90024C8
:1041000040E7A21943F0010346F001066660284625
:10411000BA60536000F074F90834204603B0BDE87B
:10412000F08F142B71D9542B00F2A380330B03F1C1
:104130006F0003F16E0EC30080E600BF8808002008
:104140005811002028110020501100205411002087
:1041500090080020900C00205A0A042A5BD9142AE7
:1041600000F2AE8002F15C01C9005B3207EB010C8A
:104170007958ACF1080C8C4500F088804A6822F030
:104180000302934273D289688C45F7D1DCF80C2086
:104190007B68E260C4F808C09460CCF80C408FE6FD
:1041A000A11946F0010C42F00106C4F804C02846EB
:1041B00079613961C1F80CE0C1F808E04E60E25065
:1041C00000F01EF90834DDE67B6879E608F10108A5
:1041D00018F0030F0CF1080C7FF485AE2DE0DC68BD
:1041E000A34208BF02303FF43EAEBBE619441C4672
:1041F0004A68DB6854F8086F42F001024A602846BA
:10420000F3609E6000F0FCF8BCE603F15C0003F193
:104210005B0EC30012E69A0902F13901C900383277
:10422000A4E7BC4254D0BC68626822F003025DE798
:1042300059F80839994540F0868010F0030F00F1D5
:10424000FF30F5D17B6823EA04037B6064009C4265
:104250003FF6C7AE002C3FF4C4AE1C4240467FF48C
:104260003EAE64001C4200F10400FAD037E68C46F2
:104270008CE7B3F5AA7F15D8F30B03F1780003F1AF
:10428000770EC300DAE54FF48051EDE67B689210BB
:10429000012101FA02F213437B60624679E70123B0
:1042A000536029E740F25452934222D8B30C03F1F1
:1042B0007D0003F17C0EC300C0E503F1100BAEE6F8
:1042C000542A29D81A0B02F16F01C9006E324DE74A
:1042D000204B196859441960B2E6CAF30B00002854
:1042E0007FF4AEAE08EB0B03BA6843F001035360F2
:1042F000EEE67F204FF47E734FF07E0E9EE504F1D4
:1043000008012846009302F08FFB009B1968DFE646
:1043100001204FF00009BCE6B2F5AA7F05D8DA0B00
:1043200002F17801C900773220E740F254518A4205
:1043300005D89A0C02F17D01C9007C3216E74FF4D2
:104340007E717E2212E77B6880E7F00806F10803A1
:1043500000E600BF2811002070B4860746D0541E26
:10436000002A41D0CAB2034602E014F1FF343BD325
:1043700003F8012B9D07F8D1032C2ED9CDB245EAC5
:1043800005250F2C45EA054519D903F110022646EB
:10439000103E0F2E42F8105C42F80C5C42F8085CAC
:1043A00042F8045C02F11002F2D8A4F1100222F0EB
:1043B0000F0204F00F041032032C13440DD91E46D3
:1043C0002246043A032A46F8045BFAD8221F22F058
:1043D00003020432134404F003042CB1C9B21C4498
:1043E00003F8011B9C42FBD170BC70471446034686
:1043F000C2E700BF014802F00BBC00BFC0110020A3
:10440000014802F007BC00BFC011002038B5074CBE
:104410000023054608462360FEF756FD431C00D0E6
:1044200038BD2368002BFBD02B6038BDD411002091
:104430000EB4F0B59CB021AB0F4953F8042B019397
:1044400005466FF00044086802954FF402774FF676
:10445000FF7602A90695ADF8147004940794ADF8A0
:10446000166000F07BF8029B00221A701CB0BDE8B9
:10447000F04003B0704700BF580400200000000067
:1044800090F800F06DE9024520F007016FF0000C94
:1044900010F0070491F820F040F049804FF000043C
:1044A0006FF00700D1E9002391F840F000F1080017
:1044B00082FA4CF2A4FA8CF283FA4CF3A2FA8CF34F
:1044C0004BBBD1E9022382FA4CF200F10800A4FAB6
:1044D0008CF283FA4CF3A2FA8CF3E3B9D1E904230A
:1044E00082FA4CF200F10800A4FA8CF283FA4CF341
:1044F000A2FA8CF37BB9D1E9062301F1200182FAFB
:104500004CF200F10800A4FA8CF283FA4CF3A2FA00
:104510008CF3002BC6D0002A04BF04301A4612BA0E
:10452000B2FA82F2FDE8024500EBD2007047D1E911
:10453000002304F00305C4F100004FEAC50514F0A0
:10454000040F91F840F00CFA05F562EA05021CBF71
:1045500063EA050362464FF00004A9E72DE9F04F36
:10456000C3B00C460B9192460F930C9002F042FBA5
:1045700003681A931846FFF783FFA3891990190659
:1045800003D52369002B01F0038000230DF1C80936
:104590001393159314932793269318931B930993BE
:1045A000CDF89490C846169317939AF80030544665
:1045B000E3B1252B02D119E0252B03D014F8013FDC
:1045C000002BF9D1A4EB0A0585B1269B279AC8F8E0
:1045D00000A001332A44072BC8F8045027922693E1
:1045E0007FDC08F10808099B2B4409932378002BF2
:1045F0007FD000231A468DF8773019460D939B46DD
:104600004FF0FF3063780A9004F1010A0AF1010AC1
:10461000A3F12000582800F2C183DFE810F038022F
:10462000BF03BF034002BF03BF03BF03BF03BF03FA
:10463000BF0345020302BF035D006B02BF03860296
:104640009D039D039D039D039D039D039D039D036A
:104650009D03BF03BF03BF03BF03BF03BF03BF036C
:10466000BF03BF03BF0337035703BF035703BF0392
:10467000BF03BF03BF039803BF03BF03AD03BF0363
:10468000BF03BF03BF03BF035902BF03BF031E0322
:10469000BF03BF03BF03BF03BF03BF03BF03BF030A
:1046A000BF03BF03C602DB025703570357038B0246
:1046B000DB02BF03BF039002BF039D02CC01B40223
:1046C0000802BF03E101BF037E00BF03BF030D0269
:1046D0000D980F9340420D904BF0040B9AF8003068
:1046E00094E725AA0B990C9803F0A0F840B9C846A6
:1046F00079E7279B23B10C980B9925AA03F096F82C
:104700000B9B9B8913F0400F099B18BF4FF0FF33A1
:104710000993099843B0BDE8F08F1BF0200F119367
:1047200040F0DD810F9A1BF0100F134640F06E85AC
:104730001BF0400F00F06A85148804320025012325
:104740000F9200278DF877700A994A1C00F0658255
:104750002BF08002079254EA050240F0648200299F
:1047600040F03C84002B40F0D7841BF001030E93F3
:1047700000F0048642AE302306F8413D0A9B0E9AB3
:104780009342B8BF134608930023129317B1089BB6
:1047900001330893079B13F00203109302D0089B88
:1047A00002330893079B13F0840540F00E830D9BA2
:1047B000089AA3EB020BBBF1000F40F30683BBF199
:1047C000100F279C269A29DD43462146A84610272C
:1047D0000C9C0B9D06E0ABF1100BBBF1100F03F12D
:1047E000080318DD0132B74826921031072A2791B5
:1047F00083E88100EFDD25AA2946204603F016F85C
:1048000000287FF47DAFABF1100BBBF1100F27999F
:10481000269A4B46E6DC45460C4698460132A94BA3
:1048200026925C44072A279488E8080800F39884B5
:104830009DF8777008F1080877B1269B01330134A1
:104840000DF177010122072B2794269388E80600B3
:1048500000F3DB8308F10808109B6BB1269B013342
:1048600002341EA90222072B2794269388E806000B
:1048700000F3D68308F10808802D00F015830A9B09
:104880000E9A9F1A002F36DD102F269B8E4D27DDA6
:1048900042462146B0464FF0100B2E460C9C0B9D15
:1048A00004E0103F102F02F1080215DD0133103132
:1048B000072B2791269382E84008F2DD25AA294696
:1048C000204602F0B3FF00287FF41AAF103F102FEC
:1048D0002799269B4A46E9DC35460C4646469046D3
:1048E00001333C44072B2794269388E8A00000F36B
:1048F000818308F10808079BDF0500F16882269B89
:104900000E99C8F8006001330C44072B2794C8F8AF
:104910000410269300F34D8308F10808079B5B07FA
:104920003AD50D9B089A9D1A002D35DD102D269B3A
:1049300020DD10260C9FDDF82CB004E0103D102D7A
:1049400008F1080816DD01335E4A26931034072B60
:10495000279488E84400F1DD25AA5946384602F03C
:1049600065FF00287FF4CCAE103D102D279C269BC0
:10497000C846E8DC0133534A26932C44072B27947E
:1049800088E8240008DD25AA0B990C9802F04EFF58
:1049900000287FF4B5AE279C099B0D9A08998A429E
:1049A000ACBF9B185B180993002C40F00D830023CB
:1049B0002693C846F9E511931BF0200340F0E381EC
:1049C0001BF0100240F02E841BF0400300F02A84FC
:1049D0000F9913460A4604320C880F920025B0E660
:1049E0000F9A1193166800248DF87740151D002E3C
:1049F00000F0A7860A9A531C00F00986214630462B
:104A000002F026F9002800F0E186831B0E930A9439
:104A10000F95CDF81CB023EAE373089312949DF828
:104A20007770B3E69AF8003001222B21EEE54BF0C7
:104A3000200B9AF80030E9E51193002A40F09587A1
:104A4000224B18931BF0200F40F011810F9A1BF09E
:104A5000100F134640F0E1831BF0400F00F0DD83A0
:104A6000043314880F9300251BF0010F00F00C8114
:104A700054EA050300F0088130239DF844208DF8A6
:104A800078308DF879204BF0020B022359E69AF822
:104A9000003000297FF4BAAD01222021B6E54BF0A9
:104AA000010B9AF80030B1E50F9C23680D9318466E
:104AB0000028234603F10403FFF60AAE0F939AF889
:104AC0000030A3E5FC7C40000C7D4000DC7C400015
:104AD0004BF0100B1BF0200F11933FF423AE0F9DF2
:104AE000073525F0070303F10802D3E900450F92CB
:104AF000012326E69AF800302A2B0AF1010400F07F
:104B00002787A3F130000928A24600F2AD860023D2
:104B10001C461AF8013B04EB840400EB4404A3F1A7
:104B200030000928F5D90A9472E54BF0800B9AF809
:104B300000306BE54BF0400B9AF8003066E59AF8D0
:104B400000306C2B03BF9AF801304BF0200B0AF1B8
:104B5000010A4BF0100B59E5002A40F011871BF0B9
:104B6000200F40F0F9841BF0100F40F0AC841BF0D4
:104B7000400F00F0A8840F9A136804320F92BDF81A
:104B800024201A8011E50F99B34B0C68189330223A
:104B9000782304318DF8793011934BF0020B0F918B
:104BA00000258DF878200223CBE50F9911930A6830
:104BB0008DF8A02000230A461F468DF87730043276
:104BC00001230893CDF81CB00A9712970F920E9309
:104BD00028AEDFE51193002A40F0EA861BF0200F93
:104BE0005DD11BF0100F40F008831BF0400F00F068
:104BF00004830F99B1F900400431E51722462B4692
:104C00000F91002A73F1000358DB0A999DF8777021
:104C10004A1C4FF001037FF49BAD54EA050200F0FB
:104C2000DF81CDF81CB0012B00F07B82022B40F01D
:104C3000068218984E46230904F00F0143EA0573D3
:104C40002A091C461546435C06F8013D54EA050353
:104C5000F1D1A9EB06030E9390E51193002A40F0E1
:104C6000A3867E4B18931BF0200F3FF4EFAE0F9DF1
:104C7000073525F0070303F108021BF0010F0F921F
:104C8000D3E900457FF4F4AE02235AE51193002ADC
:104C900040F086864BF0100B1BF0200FA1D00F9D2B
:104CA000073525F00705D5E90023002A05F108019D
:104CB0001D4673F100030F911446A6DA2D276442B6
:104CC00065EB45058DF8777001233DE51193002ACA
:104CD00040F062860F9D073525F0070303F10802B7
:104CE0000F921A6815925B681493149B159D23F01C
:104CF0000044284621464FF0FF32594B02F03CFF5A
:104D0000002840F04A83284621464FF0FF32544B9A
:104D100002F014FF002840F0408315A80DC8149934
:104D200002F002FF002840F030859DF877704D4E6C
:104D30004D4B2BF080000790119803220021089220
:104D40000A914728D8BF1E460E9212911EE54BF0DD
:104D5000080B9AF8003059E4A3F1300000231C46F8
:104D60001AF8013B04EB840400EB4404A3F1300087
:104D70000928F5D90D944BE44BF0100B11931BF05F
:104D800020033FF41DAE0F9D073525F0070303F107
:104D90000802D3E900450F920023D2E41193002AC0
:104DA00040F0E785119A002A3FF4A3AC00230121CB
:104DB0001F4608918DF8A020CDF81CB08DF87730F3
:104DC0000A9312930E9128AEE4E4279C34E5119BDC
:104DD000652B40F3A78015A80DC8149902F09AFE20
:104DE000002800F05081269B204AC8F8002001339B
:104DF00001340122072B27942693C8F8042000F3DE
:104E00006A8308F108081F9B139A279C934203DBCF
:104E1000079BDD077FF582AD269B19991A9AC8F882
:104E2000002001330C44072BC8F804102794269364
:104E300000F39E8308F10808139B5E1E002E7FF787
:104E40006DAD102E269B0A4D40F3F58122461027AA
:104E5000DDF830B00B9C13E0DC7C4000C87C4000E7
:104E6000FFFFEF7FBC7C4000B87C4000F87C400036
:104E70000C7D400008F10808103E102E40F3DA8146
:104E800001331032072B2792269388E8A000F1DD2A
:104E900025AA2146584602F0C9FC00287FF430AC10
:104EA000279A269BC846E7E70D9B089A9F1A002F72
:104EB0007FF7E5AC102F269BB64D27DD42462146F5
:104EC000B0464FF0100B2E460C9C0B9D04E0103F9B
:104ED000102F02F1080215DD01331031072B279145
:104EE000269382E84008F2DD25AA2946204602F0F2
:104EF0009DFC00287FF404AC103F102F2799269BBF
:104F00004A46E9DC35460C464646904601333C4469
:104F1000072B2794269388E8A00000F3328208F13B
:104F20000808ACE4139B269F012B40F3FE81013758
:104F300001340123072F27942697C8F80060C8F88A
:104F4000043000F3038208F10808199A1A9BC8F884
:104F5000003001371444072F27942697C8F80420FF
:104F600000F3008208F1080815A80DC8149902F092
:104F7000D1FD139B002840F00181013B0137013630
:104F80001C44072F26972794C8F80060C8F80430FF
:104F900000F3278108F108081B9AC8F8042001379C
:104FA000144421AB072F27942697C8F800307FF7C9
:104FB000B3AC25AA0B990C9802F038FC00287FF4BA
:104FC0009FAB279CC846A9E425AA0B990C9802F030
:104FD0002DFC00283FF4EBACFFF792BBDDF81CB0D2
:104FE000012B00F03481022B25D1CDF81CB0002418
:104FF00000251EE625AA0B990C9802F017FC002844
:105000007FF47EAB279CC84675E425AA0B990C98C3
:1050100002F00CFC00287FF473AB279CC8461BE40D
:1050200025AA0B990C9802F001FC00287FF468ABCC
:10503000279CC84620E4CDF81CB000240025494632
:1050400000E03146E20842EA4572E80804F007034E
:1050500005461446303354EA050201F8013C01F1DB
:10506000FF36EED1079AD2077FF5F3AD302B3FF430
:10507000F0AD0239302306F8013CA9EB01030E9391
:105080000E46FFF77BBB1F99002940F32E82129B2F
:10509000139A9342A8BF1346002B1F460DDD269B93
:1050A000C8F8006001333C44072B2794C8F804700B
:1050B000269300F31F8308F10808129B002FA8BF56
:1050C000DB1B002B1F4640F3D680102F269B314D53
:1050D00040F3ED8142462146B0464FF0100B2E467C
:1050E0000C9C0B9D04E00832103F102F40F3DB8135
:1050F00001331031072B2791269382E84008F2DD17
:1051000025AA2946204602F091FB00287FF4F8AA40
:105110002799269B4A46E7E70A9B0E934E46FFF7E0
:105120002DBB002D08BF0A2CC0F08F804E462046B4
:1051300029460A220023FEF79FFC303206F8012D93
:105140002046294600230A22FEF796FC04460D4617
:1051500054EA0503EBD1A9EB06030E93FFF70EBB50
:1051600025AA0B990C9802F061FB00287FF4C8AACD
:105170009DF87770279CC846FFF75EBB5E1E002E29
:105180007FF70AAF102E034D22DD22464FF0100BA1
:105190000C9C06E00C7D4000103E102E08F1080823
:1051A00015DD01371032072F2792269788E820084F
:1051B000F2DD25AA0B99204602F038FB00287FF487
:1051C0009FAA103E102E279A269FC846E9DC144657
:1051D00001373444072F2794269788E860007FF72B
:1051E000D9AE25AA0B990C9802F020FB00287FF479
:1051F00087AA279C269FC846CEE60F9A14681346B6
:105200000433E5170F9322462B46FAE404321C6858
:105210000F9201230025FFF794BA1C6804330F9303
:10522000002521E40F990A4604320C680F920025EC
:10523000FFF787BA144601333444072B279426938B
:1052400088E860007FF768ABB3E6DDF81CB0CDF806
:105250001CB042AE3034012306F8414D0E93FFF7E7
:105260008DBA25AA0B990C9802F0E0FA00287FF479
:1052700047AA279CC8461F9A139B9A4244DB079B68
:10528000D90741D4139B12989A1A1D1A9542A8BFA8
:105290001546002D0EDD2699C8F80450013106444C
:1052A0002C440729C8F800602794269100F33B821C
:1052B00008F10808002DACBF561B1646002E7FF7DC
:1052C0002DAB102E269BB04DB5DD22461027DDF804
:1052D00030B00B9C04E008F10808103E102EA9DD48
:1052E00001331032072B2792269388E8A000F2DDC5
:1052F00025AA2146584602F099FA00287FF400AA10
:10530000279A269BC846E8E7269B19981A99C8F859
:10531000001001330444072B2794C8F80400269397
:1053200000F3F58108F10808ACE7079BDA073FF5C1
:10533000FEAD013701340123072F27942697C8F8C3
:105340000060C8F804307FF725AE4AE725AA0B991C
:105350000C9802F06BFA00287FF4D2A9279C269FB4
:10536000C846F2E525AA0B990C9802F05FFA0028CE
:105370007FF4C6A9279C269FC846F5E54E46FFF751
:10538000FDB925AA0B990C9802F050FA00287FF479
:10539000B7A9279CC846FFF772BA159C224620463B
:1053A000149C2346214602F0E7FB002840F0868249
:1053B0000A9B0133119B23F020030E9300F0E2813E
:1053C000472B00F01E814BF480730793149B1F1E24
:1053D000159B0893BBBF3B4603F1004700232D23D9
:1053E0001093119B662B00F0BB81462B00F0DF80F1
:1053F0000E9B089A452B0CBF0A9B0A9D23A820A947
:1054000008BF5D1C049003911FA802213B46029037
:10541000019500910C9800F073FB119B672B0646D9
:1054200040F0E0811BF0010F00F046827419169ADB
:105430000898179B394602F06DFB002840F0658103
:10544000239BA34206D230215A1C23921970239B1E
:105450009C42F9D89B1B13930E9B472B00F0E980CD
:10546000119B652B40F3CD81119B662B1F9B1293E3
:1054700000F09E81139B129A1946914200F38A8193
:105480001BF0010F40F0138222EAE27308936723B6
:105490000E921193109B002B40F0C4800A939DF84C
:1054A0007770FFF773B935460C4646469046013390
:1054B0003C44072B2794269388E8A0003FF7D1AE01
:1054C00008F10808D7E60F9A136804320F92099A78
:1054D0001A60FFF76AB825AA0B990C9802F0A6F992
:1054E00000287FF40DA9C8468DE4269B274AC8F8FA
:1054F0000020013301340122072B27942693C8F89A
:10550000042072DC08F1080829B9139B1BB9079B1A
:10551000D8077FF503AA269B19981A9AC8F8002085
:10552000013302462244072B2792C8F80400269331
:1055300000F38D8108F108080029C0F265811399F4
:10554000C8F8006001338C18072B27942693C8F8FD
:1055500004107FF7E1A92CE50F9A09991368CD177C
:105560000846043229460F92C3E90001FFF71DB82F
:1055700025AA0B990C9802F059F900287FF4C0A8CD
:10558000279CC84658E400BF0C7D4000F87C4000D2
:1055900040210C98FEF730FC0B9A10601061002837
:1055A00000F0F2810B9A40235361FEF7EEBF23A86F
:1055B00020A90A9C049003911FA803210290089A35
:1055C00001943B4600910C9800F09AFA2546064655
:1055D000119B462B06EB05047FF429AF3378302B63
:1055E00000F078811F9D2C4421E725AA0B990C9887
:1055F00002F01CF900287FF483A81F99279CC84655
:1056000082E70A9B002B08BF01230A93DBE63046A2
:105610000A94FEF735FF0F950E90CDF81CB00346A7
:10562000FFF7F9B92D2700238DF877700A93FFF75C
:10563000AEB81F9B12931A46033304DB0A9B19462C
:105640009142BFF617AF119B023B11939DF8443076
:105650008DF88430129B013B002B1F93BDBF129B22
:10566000C3F101032D222B22092B8DF8852040F355
:1056700016810DF193042046AB4D00E0104685FBEA
:105680000312D917C1EBA20101EB8102A3EB420285
:105690003032092900F8012C0B4600F1FF32EDDC15
:1056A00030330238D9B2844202F8011C40F26581DD
:1056B0000DF18600134601E013F8011B00F8011BF1
:1056C000A342F9D101339B1A0DF18602134421AA9A
:1056D0009B1A139A1B93012A13440E9340F31981CA
:1056E0000E9B199A13440E9323EAE3730893002345
:1056F0001293CFE625AA0B990C9802F097F8002890
:105700007EF4FEAF279CC846D7E42346A2E625AA2E
:105710000B990C9802F08AF800287EF4F1AF1F9ADA
:10572000279CC846AEE525AA0B990C9802F07EF896
:1057300000287EF4E5AF1F9A139B279C9A1AC8464F
:10574000B8E50A9B1296062B28BF06230A96374611
:1057500008930F95CDF81CB00E93744EFFF716B852
:1057600023A820A90A9D049003911FA80321029059
:10577000089A01953B4600910C9800F0C1F9064645
:1057800044192BE706230A931DE62D278DF8777021
:10579000FFF7CDBA199A139B1344129A0E93002A5D
:1057A00040F3B08023EAE37308936723119371E613
:1057B000002B40F3C3800A9A002A40F099801BF026
:1057C000010F40F0958008930E9363E60A9B0893BF
:1057D0000E930A900F95CDF81CB012909DF877703B
:1057E000FEF7D4BF119B472B7FF420AE1BF0010FB7
:1057F0007FF4EEAE239B9B1B13930E9B472B3FF432
:1058000018AF1F9B129321E74F421031484D2FDAFA
:105810001024DDF830B004E008F10808103F102F24
:1058200026DD01331032072B27922693C8F800504B
:10583000C8F80440F0DD25AA0B99584601F0F6FFA0
:1058400000287EF45DAF279A269BC846E6E725AA86
:105850000B990C9801F0EAFF00287EF451AF1F99D4
:10586000279A269BC84667E600200A90FEF7D0BE1E
:1058700001333A44072B88E8A0002792269308F1C9
:1058800008087FF75CAE25AA0B990C9801F0CEFFB3
:1058900000287EF435AF279A269BC8464FE6303362
:1058A00030228DF887308DF8862022AB0FE7129BCF
:1058B000199A13440E9375E7239BCBE5149B1D4E59
:1058C000002BB6BF2D279DF877708DF877701A4B97
:1058D000FFF72FBA169A0898179B394602F01AF963
:1058E00000287FF47FAEC5F101051F952C449EE58D
:1058F000129B199A13440A9A1A4422EAE2730E92EE
:105900000893C7E5129B0E9AC3F101031A4413468C
:10591000D0E71BF0010312937FF4E2AE0E9B23EA63
:10592000E3730893B6E500BF67666666F07C4000E7
:105930000C7D4000C47C4000C07C40000A9B13B931
:105940001BF0010F02D0199B0133D4E701233AE782
:105950000F9D9AF80130286840EAE0700A902846C6
:105960000430A2460F90FEF751BE8DF87710FFF776
:1059700067B88DF87710FFF715BA0DF18603A6E624
:105980008DF87710FFF7EBB80C9A0C2313604FF0EB
:10599000FF330993FEF7BDBE8DF87710FFF79AB974
:1059A0008DF87710FFF776B98DF87710FFF759B9B2
:1059B0008DF87710FFF712B9024B13B1024800F0CF
:1059C00005B87047000000005569400000230146FB
:1059D0001A46184601F0B6BF02690B69934200F3FC
:1059E0008D802DE9F04F03F1FF3801F1140700F12C
:1059F000140B57F828205BF828304FEA880483B04E
:105A00000132B3FBF2F90BEB0403009407EB040A39
:105A10000193B9F1000F39D000252E46BC46DE4671
:105A20005CF8044BDEF80030A2B209FB0255220CF0
:105A30002C0C09FB0242ADB2751B96B2C6EB1346A5
:105A400015FA83F306EB23469BB243EA0643E2458D
:105A50004FEA12454EF8043B4FEA2646E0D2009B3F
:105A60005BF8033093B9019C231F9B450CD254F87B
:105A7000043C4BB9A4F1080302E01A68043B1AB9CC
:105A80009B4508F1FF38F8D3C0F81080044601F0B8
:105A90002BFC00282EDB09F101095D46002357F895
:105AA000041B28688AB29A1A0B0C12FA80F2C3EB14
:105AB000104303EB224392B242EA0342BA4545F84F
:105AC000042B4FEA2343EAD25BF828200BEB880330
:105AD00082B91A1F93450BD253F8042C42B9083BE4
