:020000040040BA
:1000000040400020012D4000FD2C4000FD2C400010
:10001000FD2C4000FD2C4000FD2C400000000000A5
:10002000000000000000000000000000310240005D
:10003000FD2C400000000000FD2C4000B1014000FC
:10004000FD2C4000FD2C4000FD2C4000250440000C
:10005000FD2C4000FD2C4000FD2C4000FD2C4000FC
:10006000FD2C4000650A400000000000C92340004C
:10007000DD234000F1234000FD2C4000A10A400098
:100080000000000000000000FD2C4000FD2C40009E
:10009000FD2C4000FD2C4000FD2C4000FD2C4000BC
:1000A000FD2C4000FD2C4000FD2C4000FD2C4000AC
:1000B000FD2C4000FD2C4000FD2C4000FD2C40009C
:1000C000FD2C4000FD2C4000FD2C400010B5054CDF
:1000D000237833B9044B13B10448AFF300800123F4
:1000E000237010BD940C0020000000003448400034
:1000F000084B10B51BB108490848AFF30080084809
:10010000036803B910BD074B002BFBD0BDE81040BE
:10011000184700BF00000000980C00203448400041
:100120003448400000000000034B1B6843F4802368
:100130001943016000207047B00C002041B1094A0A
:10014000136843F0807313600268134303607047C1
:10015000044A136823F0807313600268134303603A
:10016000704700BFB00C0020036823EA0101024B76
:100170001B68194301607047B00C002082688368D7
:100180009A4203D0836882689A42FBD1184670472E
:10019000C0687047704700BF08B5014B984708BD5D
:1001A0007D1B4000014B1860704700BFEC0F002022
:1001B00008B5024B1B68984708BD00BFE80F002038
:1001C00038B568B30446E000610F4B0143EAD063E1
:1001D0004201101A63EB01018B0143EA9063820133
:1001E000101A63EB0101001941F100010B0143EA10
:1001F00010730201101A63EB01014B0243EAD05362
:1002000042021046194643F2B062002343F2AF6443
:10021000002500196941044CA047044B984738BD9C
:100220000920024B984738BD453A400001000020A4
:100230000D4B1B681847EFF309807047EFF31483E9
:1002400043F0010383F31488BFF36F8F7047EFF31C
:10025000148343F0020383F31488BFF36F8F704756
:1002600080F3098870470000EC0F002008B50B28C8
:100270000DD1042904D10F4B1B680020984708BDFD
:10028000012915D10B4B1B680120984708BD0D288B
:100290000ED1B1F1005F04D1064B1B6802209847D4
:1002A00008BDB1F1804F03D1024B1B680320984772
:1002B00008BD00BFBC0C002070B582B0064602AC81
:1002C000022344F8043D094D21462846084B98472F
:1002D0004FF40012074B5A63EE605620064B9847C6
:1002E00021462846054B984702B070BD008000406B
:1002F000B51C400000120E4001000020E11C40002F
:1003000030B585B0044600230C224FF000610C4844
:100310000C4DA84709200C4B98470C4B01930294B5
:100320004FF4006303930A4C01A92046094B9847F8
:100330002046094B98472046084B984705B030BDEA
:1003400000100E4009204000B5254000000E270790
:1003500000080E40612B4000992B4000A12B40006B
:1003600030B587B0054600234FF4C0024FF000615E
:100370000F48104CA0470F200F4CA04700230393B9
:10038000049305930095C02301934FF400630293F7
:100390000F20A047094C0A4A69462046094B984756
:1003A0002046094B98472046084B984707B030BD78
:1003B000000E0E4009204000B5254000008002409C
:1003C000000E2707612C4000B52C4000BD2C4000DA
:1003D00010B5054B98470B20044CA0470C20A047B4
:1003E0000D20A04710BD00BF891D4000B52540006D
:1003F00038B50446084D00212846084B984704EBC1
:1004000044142146B4F5004F28BF4FF4004189B28F
:100410002846034B984738BD30140E403D0140003C
:100420002901400008B50548054B984710F0020F18
:1004300002D0044B1B68984708BD00BF30140E4023
:1004400091014000C00C002008B5064B0822C3F8FB
:100450008020C3F880214FF400310348034B9847B4
:1004600008BD00BF00E100E030140E40690140000B
:1004700008B50248024B984708BD00BF30140E4033
:100480007D0140000F4B4FF400021A61C3F8A02019
:100490004FF480121A61C3F8A02002F18042A2F545
:1004A000F9324FF480311161C2F8A0104FF480028C
:1004B0001A61C3F8A0204FF400221A61C3F8A020EB
:1004C000704700BF00120E4004280ED8DFE800F08D
:1004D000030507090B00572208E0542206E010220A
:1004E00004E0562202E0532200E00022530903F503
:1004F000001303F207735B0231B902F01F020121FE
:1005000001FA02F21A63704702F01F02012101FA98
:1005100002F25A63704700BF04280ED8DFE800F0EB
:10052000030507090B00572208E0542206E01022B9
:1005300004E0562202E0532200E00022530903F5B2
:10054000001303F207735B02D96B02F01F02012351
:1005500003FA02F20A420CBF18460020704700BF9F
:1005600010B50020054B9847054CA0470028FCD04B
:1005700000210448044B984710BD00BFED24400003
:100580001125400060140E400926400070B582B06D
:100590000446084D01230093C36802694169284657
:1005A000054EB04723686268A1682846034CA047FF
:1005B00002B070BD60140E40852740007D264000CB
:1005C000F0B585B0044604AD002345F8043D0A4E5D
:1005D0000346021D00F108013046084FB847009558
:1005E00004F10C0304F1100204F114013046044C30
:1005F000A04705B0F0BD00BF60140E4021264000AA
:100600001127400008B5014B984708BDD50E4000A2
:100610002DE9F04782B020381F4B53F820703B780B
:1006200003B301241D4EDFF88090DFF8808017F8B7
:1006300004A002AD022345F8043D29463046C847D0
:100640004FF40013C8F83030C6F80CA05620144BF5
:10065000984729463046134B98470134E4B23B781B
:10066000A342E4D202AC022344F8043D0B4D2146E0
:1006700028460D4B98474FF400120C4B1A63002389
:10068000EB605620064B984721462846054B984775
:1006900002B0BDE8F08700BF3400002000800040B9
:1006A00001000020E11C4000B51C400000120E407B
:1006B0002DE9F04F83B04FF0000ADFF878B01A4F01
:1006C000DFF87490DFF874803E460AF0070040F0CF
:1006D000B000D8471020D8470020D847802502AC6A
:1006E000022344F8043D21463046C8474FF4001326
:1006F000C8F830300023FB6056200C4B9847214649
:1007000030460B4B9847013DE9D10AF1010ABAF195
:10071000040FDAD1B020074CA0471020A0470020DA
:10072000A04703B0BDE8F08F00800040010000202A
:10073000E11C4000B9024000B51C400000120E4010
:1007400070B50D46C6B2C6F3021040F01000054C5D
:10075000A04706F00F00A04705F0070040F0B000EA
:10076000A04770BDB90240000420704738B510B1F1
:1007700001281CD038BD4FF0205120200D4B984748
:100780001D200D4B98470D4C00230D4A0D49204666
:100790000D4DA847042120460C4B9847012200210B
:1007A00020460B4B984720460A4B984738BD0A4BCA
:1007B000984738BDF5204000B52540000080034033
:1007C00040420F00000E2707991E4000E51E400022
:1007D000CD1E4000DD1E40008D0F400000000000D7
:1007E00010B584B010B1012818D033E004211E48A0
:1007F0001E4B98471E4B984719A3D3E900231D4C65
:10080000A04700221C4B1D4CA04702460B4600206F
:1008100019491B4CA0471B4B98471CE000220023A2
:10082000CDE9002303220023CDE90223164C6846BC
:10083000A04750B1DDE90223501C43F10001CDE98E
:100840000201002B08BF042AF1D3DDE900010D4BA2
:10085000984700E0002004B010BD00BFAFF3008057
:100860000000000000FEAF4000800340F11E400089
:10087000F53440003538400000005940E135400073
:1008800079324000053A4000F90F40002DE9F04F61
:1008900083B0384B18600B20DFF8F4A0D0470A2251
:1008A00004213548DFF8EC90C847DFF8EC80CDF83C
:1008B0000080792304220B212F48304FB847304E57
:1008C0004FF4006BC6F800B005220B212A482D4DCD
:1008D000A847042128482C4CA0470B20D0470A22C7
:1008E00001212548C847CDF80080792301220B213A
:1008F0002148B847C6F800B005220B211E48A8477A
:1009000001211D48A0470D20D0470A224FF0005179
:100910001E48C847CDF8008079234FF000520D21C2
:100920001A48B8474FF4005BC6F800B005220D2105
:100930001648A8474FF000511448A0470D20D04753
:100940000A224FF080411148C847CDF80080792332
:100950004FF080420D210D48B847C6F800B005227F
:100960000D210A48A8474FF080410848A04703B02E
:10097000BDE8F08FBC0C0020000E0E405D2340004F
:1009800000E100E005244000C920400000120E40B4
:10099000B5254000011F40006D02400008B510B1B0
:1009A000012804D008BD0846034B984708BD0846F7
:1009B000024B984708BD00BF01034000610340009F
:1009C00008B510B1012809D008BD094A536913F0D0
:1009D000020FFBD00648074B984708BD064A5369EB
:1009E00013F0020FFBD00448044B984708BD00BF2A
:1009F00000080E40AD2B400000800240C92C400092
:100A000030B583B000238DF8073010B101280DD028
:100A100018E00E4D0E4C2846A04710F0010FFAD0FA
:100A20000DF1070109480B4B98470BE00A4D0B4CA1
:100A30002846A04710F0010FFAD00DF10701064833
:100A4000074B98479DF8070003B030BD00080E40E3
:100A5000A92B4000BD2B400000800240C52C400067
:100A6000DD2C400000B583B009480A4B984710F0D0
:100A7000010F09D00DF107010548074B9847074BB7
:100A80001B689DF80700984703B05DF804FB00BFA2
:100A900000080E40A92B4000BD2B4000B40C0020E4
:100AA00000B583B009480A4B984710F0010F09D0F0
:100AB0000DF107010548074B9847074B1B689DF848
:100AC0000700984703B05DF804FB00BF00800240B8
:100AD000C52C4000DD2C4000B80C0020704700BF42
:100AE000704700BF012817D1F8B50122144B1A70C6
:100AF0004C20144B984700BB134B98470B24134DC5
:100B0000134F144E03E0013C17D03846B047002085
:100B1000A8470028F7D101E0002070470E4C4FF4A1
:100B20000C72002120460D4B9847214600200C4BAB
:100B30009847B0FA80F04009F8BD0020F8BD00BF2A
:100B4000C40C0020D920400095124000C112400082
:100B50006E281A0001000020C80C00202D43400020
:100B60008D2F400038B52C4B984704684568836941
:100B700013F8023C102B4ED8DFE803F009101519CA
:100B80001D21262A2E33363A3F434D474A00291C61
:100B900018BF01212046214B984738BD2046204BE5
:100BA0009847287038BD20461E4B984738BD2046D0
:100BB0001D4B984738BD20461C4B984738BDE9B2BD
:100BC00020461B4B984738BD20461A4B984738BDE6
:100BD0002046194B984738BD2046184B9847286047
:100BE00038BD174B984738BDE0B2164B984738BD13
:100BF00029462046144B984738BD144B984720602F
:100C000038BD2046124B984738BD124B984738BD27
:100C1000114B9847206038BD37024000C90440009E
:100C2000190540008D084000C10540008D054000B9
:100C3000C1094000010A40006D074000E107400083
:100C4000B10640001106400041074000690740001E
:100C5000F1034000490440007104400008B5024817
:100C6000024B984708BD00BF650B4000A50140003E
:100C70002DE9F041012100201A4CA047012108462E
:100C8000A04701210220A04701210320A047012104
:100C90000420A0470027DFF85C80134E394600206F
:100CA000C0475F247C252846B047013CFBD1013773
:100CB000042FF3D1C8200D4B984700210846094C5A
:100CC000A04700210120A04700210220A0470021C9
:100CD0000320A04700210420A047054B9847BDE80A
:100CE000F08100BFC904400011064000C10140006E
:100CF000B10640004107400030B587B00020124CDB
:100D0000A0470120A047114B9847114B98474FF43B
:100D1000E13100200F4CA0474FF4E1310120A04702
:100D20000D4B984701200D4B98476C460C4D0FCD4D
:100D30000FC495E8030084E803006846094B984710
:100D4000094B984707B030BD6D0740006105400072
:100D5000050640009D09400085044000E50A40006A
:100D60004C4740008D054000710C400008B5074B12
:100D70009847074B9847074B9847074B9847074BAF
:100D80009847074B9847074B984708BD9901400083
:100D9000D1034000E10A4000DD0A4000F90C4000A8
:100DA000950140005D0C400070B582B0064602AC73
:100DB000022344F8043D094D21462846084B984734
:100DC0004FF40012074B5A63EE605620064B9847CB
:100DD00021462846054B984702B070BD0080004070
:100DE000B51C400000120E4001000020E11C400034
:100DF000012907D021B102290CBF2421002102E0E2
:100E0000222100E02121017042808380012383712F
:100E1000704700BF8379BBB170B50446007900F01C
:100E2000070040F0B000094EB047A578ED00EDB2E4
:100E3000C5F3021040F01000B04705F00800B047BD
:100E40002078034B984770BD704700BFA90D400044
:100E500011064000838801339BB2032B98BF838027
:100E6000704700BF83880BB1013B8380704700BF90
:100E700043880BB1013B4380704700BF4388013377
:100E80009BB20F2B98BF4380704700BF70B582B0F4
:100E9000064602AC022344F8043D094D214628468B
:100EA000084B98474FF40012074B5A63EE605620E8
:100EB000064B984721462846054B984702B070BD1F
:100EC00000800040B51C400000120E4001000020D0
:100ED000E11C4000F0B585B0254D4FF000466E6333
:100EE0005620244CA0472E635620A047022704AE6C
:100EF00046F8047D204C2046204B9847002500955D
:100F00001F4B2A46314620461E4EB0470123236020
:100F1000A8201D4CA0471F20A047D320A04728464B
:100F2000A0474020A047A120A047C820A047DA2022
:100F3000A0473846A0478120A0478F20A047A42083
:100F4000A047A620A047D520A0478020A0478D20FD
:100F5000A0471420A047DB20A0474020A047D9206D
:100F6000A047F120A047AF20A04705B0F0BD00BFCB
:100F700000120E400100002000800040E11B4000F4
:100F8000404B4C00351C40008D0E400000B585B034
:100F900000230393074B019342F210730293132033
:100FA000054B984701A90548054B984705B05DF8E2
:100FB00004FB00BF000E2707B5254000008001405C
:100FC000292A400010B586B00024019405940143FD
:100FD0008DF8041001210291039304924F238DF8A0
:100FE000143001A90248034B9847C0B206B010BDA7
:100FF000008001408D2A400070B582B00446002078
:101000008DF804008DF8050001AB02220146284D41
:10101000A8470546002847D19DF804209DF80530D3
:1010200043EA02231BB29AB2002BBABFC2F30E02EC
:101030004FF0FF3001201F4B1B78DBB2032B33D85E
:10104000DFE803F0020E1A27D20900FB02F01A4B68
:1010500098470022194B1A4EB047C4E9000123E01B
:10106000920900FB02F0144B98470022154B144ED6
:10107000B047C4E9000117E0520900FB02F00E4B33
:10108000984700224FF07F530D4EB047C4E900014E
:101090000AE0120900FB02F0074B984700220A4BB6
:1010A000074EB047C4E90001284602B070BD00BF3A
:1010B000C50F4000F80E0020153540000000E03F4D
:1010C000E13540000000D03F0000B03F10B5074BB5
:1010D000196891F82230003318BF01234A7C09684F
:1010E00003480078034CA04710BD00BFFC0E002051
:1010F000000F00204918400010B5002856D1344B8D
:101100009A68530903F5001303F207735B02D96B66
:1011100002F01F02012303FA02F20A420ED02C4B06
:101120009B7B012B05D12B4B1B7813B100222A4B43
:101130001A600422264B9A73022010BD244B9B7B1D
:10114000042B15D10122224B9A73234B1B683BB908
:10115000204B1A70204B214959601A60022010BDA3
:1011600000221C4B1A701E481E4B9847022010BDCF
:10117000012B0BD1174B1B78F3B1174B1B6813F4E2
:10118000803F15D00022144B1A6015E0032B11D0BC
:101190000022154B1A700E4C144B1C60144B9847D0
:1011A000A07B022814BF0020012010BD042010BD28
:1011B000022010BD032010BD054B02229A730D4A78
:1011C0001A6001225A74002283F82220E0E700BF4F
:1011D00028040020F90E002010E000E0C0E1E40047
:1011E00025CA820001000020000F0020FC0E002014
:1011F000CD104000801A06002DE9F041094C00276F
:10120000094E0A4D394641F60D30B047804630B19F
:10121000A847C0B218B1013CF4D14FF000084046D5
:10122000BDE8F081410D0300691A4000811A4000B9
:1012300010B582B00C4B1B689989012300931022D2
:1012400091400A480A4CA047034650B1064B186823
:1012500001211230074B9847034610B1064B9847BF
:101260000346184602B010BDFC0E0020091108000C
:10127000E9184000011B4000791B400008B5034BF2
:101280001B7813B90020024B984708BD000F0020BF
:101290008918400008B50D20054B98470422054BDE
:1012A0009A73FF22044B1A70044B984708BD00BF85
:1012B000B525400028040020000F00201918400028
:1012C0002DE9F04186B0AC4B9847012804D0044684
:1012D000AA4B984720462BE2A94B1B680122DA73E0
:1012E00000241C749C81A74B984721464FF48850DA
:1012F000A54B9847002800F0C8814FF4D57145F2FE
:101300000850A14B9847002800F0C7819F4B984791
:10131000B0F1FF3F00F0C381C0F30B00B0F5D57F03
:1013200040F0B3810126BBE1414641F23710A847A6
:10133000002800F0C381314641F22910A847002857
:1013400000F0BC81B84710F0010F02D0013CEBD196
:10135000B4E1002140F23A508B4B9847002800F04E
:10136000AD818A4B984710F0804F00F0B381844BD9
:101370001A68D37B43F00803D373ABE141F6EF3433
:101380000026814D814F314641F20110A8470028C7
:1013900000F07B81B84710F0010F02D0013CF2D180
:1013A00073E1002140F23A50774B9847002800F053
:1013B0006C81764B984700F0C040B0F1804F40F010
:1013C00092816F4B1A68D37B43F00803D3738AE191
:1013D0006F4B9847002800F05881694B19688B7C47
:1013E000C3F38303013B032B03D8DFE803F00508B5
:1013F0000B0E12230B740AE014230B7407E0222354
:101400000B7404E030230B7401E040230B744B7D1C
:10141000C3F3C30003F007035E4A52F823204FF4DE
:101420007A7303FB02F35C4A52F8202003FB02F3B9
:101430000B60887E4B7E0A7E920242EA830343EA77
:10144000A013C3F30B0340F6FF7293420FD0087F43
:10145000CA7E520042EAE012013302F00702023271
:101460009340CA7D02F00F0293409B0A4B600B7CB5
:101470003F2B3FD90021009101234FF400724748D0
:10148000474CA047002800F000810024454D03A8E8
:10149000A847002800F0F9800134A4B2322CF6D11C
:1014A000374B1A68917E537E127E920242EA830382
:1014B00043EAA113C3F30B0340F6FF7293420ED12C
:1014C000384D04A8A847002800F0DF800134A4B2FA
:1014D000352CF6D92A4B1A68049B5B085360314DB2
:1014E00006E004A8A847002800F0CF800134A4B289
:1014F0007F2CF6D94FF4007141F21010224B98471F
:10150000002800F0C280284B9847002800F0BD80DA
:10151000264B9847FCE01A4B1B68DB7B13F0010F4E
:1015200000F0F1801A4B9847002800F0AE80144B71
:101530001B685A7DC2F3C30002F00702154951F837
:1015400022104FF47A7202FB01F2194951F820106F
:1015500002FB01F21A609A7C92092BD0DA7E987E07
:10156000597E090441EA00210A43C2F315020132FF
:1015700052025A6038E000BFF91040007D1240006E
:10158000FC0E0020B1184000691A4000811A40008A
:1015900031124000A4474000C04740000811080035
:1015A000E91840008D1A4000F9114000CD104000AC
:1015B00064474000987E5A7E197E890241EA820281
:1015C00042EAA012187FD97E490041EAE011C2F335
:1015D0000B02013201F0070102318A40D97D01F08E
:1015E0000F018A40920A5A609989090441F2371022
:1015F000514B9847002848D001230093082200212E
:101600004E484F4CA04700283FD0012104A84D4B25
:101610009847002839D04C4B9847002835D09DF882
:10162000103003F00F03012B08D013B1022B0AD0A6
:1016300013E0464B1B6810221A745CE0434B1B6896
:101640001A221A7457E09DF81230DB093F4B1B68D1
:1016500014BF302220221A744DE03C4B1B6810222C
:101660001A7448E04FF4007141F21010324B984761
:1016700058B1364B1B68DB7B13F0010F02D0344BA3
:10168000984710B1334B984742E0304B1B68032416
:101690009C73314B984720464AE0002600E0002624
:1016A0002A4B1B68DB7B13F0010F39D0B60741F6DC
:1016B000EF344FF00008204D284F35E6234B1B68D0
:1016C0000222DA7300214FF488501B4B9847002800
:1016D000DBD053E6002141F23B10174B984700281E
:1016E0007FF419AFD1E7002141F23B10124B98472C
:1016F0000028CAD06CE6154B1B68DB7B03F009039E
:10170000012BB6D1AEE703F00903012BBAD1A9E74B
:101710000E4B1B6800229A730F4B9847012007E07D
:101720000A4B1B68DB7B03F00903012B9AD0A9E766
:1017300006B0BDE8F08100BF691A4000331108000F
:10174000E9184000011B4000791B4000FC0E0020FE
:10175000F9114000CD1040007D124000811A400078
:1017600070B582B002ACFF2304F8013D0F4E012298
:10177000214630460E4DA847012221463046A84753
:10178000012221463046A8470A4C06E001220DF10D
:1017900007013046A847013C05D09DF80730FF2BD4
:1017A000F4D1012000E0002002B070BD00800040B4
:1017B000351D4000400D0300F0B583B002AD00239D
:1017C00005F8013D104C114F114E06E0013C04D1CB
:1017D0000422104B1A70002014E0012229463846DA
:1017E000B0479DF8073013F0F00F08D113F0070F42
:1017F00014BF07220B22074B1A70002002E0FE2BB9
:10180000E4D1012003B0F0BD20A10700008000401A
:10181000351D40000A0F00200022084B1A70084BAB
:101820001B6913F4803F07D110B5054C2046054BCA
:1018300098470123236010BD704700BF0A0F0020A6
:1018400000800040E11B400070B582B00022094BCF
:101850001A70094C04EB8004084D00920B46214697
:101860002846074EB04721462846064B984702B007
:1018700070BD00BF0A0F00204C0400200080004013
:10188000351C4000B51C400008B50022044B1A70FE
:10189000044901EB80010448044B984708BD00BF90
:1018A0000A0F00204C04002000800040E11C400092
:1018B000F0B583B002ADFF2305F8013D0022074BD0
:1018C0001A700A24064F074E012229463846B047AF
:1018D000631E13F0FF04F7D103B0F0BD0A0F002020
:1018E00000800040011D40002DE9F04385B0044612
:1018F00091469846FF238DF80F300023514A13700C
:1019000000F03F0242F040028DF808200A0E8DF8E8
:1019100009200A0C8DF80A200A0A8DF80B208DF890
:101920000C1002AF4FF0080C0DF10D0E17F8011B53
:1019300062465B00DBB283EA010010F0800F18BF43
:1019400083F009034900C9B2013A12F0FF02F0D155
:101950007745EBD15B0043F001038DF80D303A4F32
:1019600001220DF10F013846384DA847062202A981
:101970003846A84704A9FF2301F8093D012238464B
:10198000334B98470727304E314D01220DF10701A7
:101990003046A8479DF8073013F0800F08D07B1E13
:1019A00013F0FF07F1D10222264B1A70002344E006
:1019B000284A136013F0080F04D00622214B1A7036
:1019C00000233AE013F0040F04D009221D4B1A70D3
:1019D000002332E033F0010304D00122194B1A70C6
:1019E00000232AE014F4005F07D01B4B98470346FE
:1019F00018B90321134A11701FE014F4007F06D0B8
:101A0000144900230B6001220F48114B984714F42E
:101A1000806F08D00F4C042221460B480C4B98478E
:101A200023681BBA23600D4BA3F800900C4BA3F85E
:101A3000008000220B4B1A600123184605B0BDE858
:101A4000F08300BF0A0F002000800040011D40000D
:101A5000351D40000C0F002061174000080F0020CA
:101A6000020F0020040F002010B582B00022009267
:101A70001346024CA04702B010BD00BFE918400059
:101A8000014B1868704700BF0C0F002010B582B0E2
:101A900004460022144B1A70144B1B88144A116818
:101AA000B1FBF3F203FB12131BB9124B9847034629
:101AB000B8B1042221461048104B98470C4A1368CD
:101AC00004331360094A1188B3FBF1F201FB1233AE
:101AD00033B9022201A90848084B9847012300E0C6
:101AE0000123184602B010BD0A0F0020080F002085
:101AF000040F0020B917400000800040351D400051
:101B00002DE9F04F83B00022154B1A7009B30C4633
:101B100081461546DFF858B0DFF85880114FD84796
:101B20008246C0B1B8F8002009EB050138460E4ED8
:101B3000B047B8F800301D440C4A11680B441360DC
:101B4000022201A93846B047013CA4B2002CE6D1DC
:101B500001E04FF0010A504603B0BDE8F08F00BF2E
:101B60000A0F002000800040351D4000040F0020B7
:101B7000B9174000080F00200120704710B50E482B
:101B80000E4B98473E2100200D4B98470D4CA04727
:101B90000028FCD00C4B98470C4A0D4B9A620D4C18
:101BA000A0470028FCD010200B4B98470B4B9847C0
:101BB0000148024B984710BD000E2707C52E400074
:101BC000312540008525400095254000013F132028
:101BD00000040E40A525400085244000B12D4000A2
:101BE00010B50446104B984780232360636843F088
:101BF00001036360636843F010036360636823F06C
:101C00008003636000212046084B9847636823F0F7
:101C100002036360636823F00403636000212046CD
:101C2000034B984710BD00BF3D2840004D284000A1
:101C3000652840002DE9F04104460D461646154939
:101C40001846154B9847074600231A462968204630
:101C5000DFF85C80C0470822296820460F4B984770
:101C6000FAB2296820460E4B984708222968204678
:101C70000C4B98477208296820460B4B984786F012
:101C8000010202F0010229682046084B9847BDE88E
:101C9000F08100BF000E270711294000FD284000F9
:101CA00029294000B928400079284000992840009F
:101CB0005129400008B5436813F0040F05D00968A6
:101CC0000F290AD8054B984708BD0B68032B04D889
:101CD00001219940C943014B984708BD4D28400058
:101CE00010B50446236913F4007FFBD00F21204672
:101CF000024B98474FF08073236010BD4D28400081
:101D000022B900207047013B05D10FE010B4144602
:101D1000013943F69923026912F0020FF3D011F84A
:101D2000013FC360013CF4D1002001E06FF00200EC
:101D300010BC704722B900207047013B08D11CE05D
:101D400070B415460139FF2640F2012443F6992369
:101D5000026912F0020FF0D0C66043F6992301E049
:101D6000013B0DD0026934EA0202F9D1836801F81F
:101D7000013F013DEAD1002004E06FF0020001E0E4
:101D80006FF0020070BC7047F8B53848384B984780
:101D90000B20384CA0470C20A0470D20A047364B05
:101DA0004FF400021A631A61C3F8A020334C0425D3
:101DB0006561C4F8A0506566C4F8905065656562B9
:101DC000C4F88050226F22F004022267626F22F072
:101DD000040262674FF480121A631A61C3F8A020EC
:101DE0004FF4803222632261C4F8A0204FF48002B5
:101DF0001A631A61C3F8A0204FF000620C2120483A
:101E0000204B9847204F39460320204EB047394693
:101E10002846B04739460C20B04739460D20B04718
:101E200039460E20B0474FF080510920B04718497D
:101E30000A20B04707F1405739465520B047394688
:101E40005F20B04713494C20B0476566C4F89050F6
:101E500065656562C4F88050236F23F0040323672F
:101E6000636F23F004036367F8BD00BF50140E4096
:101E7000F52C4000B525400000120E40000E0E402B
:101E800000100E401922400001000008F52040001B
:101E9000010000100100002830B401240460002576
:101EA000456040F20224C0F82041C0F80451C0F857
:101EB000145144685200B1FBF2F14A1E120292B270
:101EC00023431A434260284630BC70474368D2011E
:101ED000D2B2194311434160704700BF022303602F
:101EE000704700BF012303FA01F10161704700BF91
:101EF0000F299ABF503050F821000020704700BFD2
:101F0000C0F8841052004FF40043B3FBF2F2013AE0
:101F1000C2F30D02C0F88C20704700BF4264B1F1DB
:101F2000C05F2FD007D8B1F1006F14D0B1F1805F3E
:101F30001ED039B97047B1F1205F36D004D8B1F165
:101F4000005F29D042607047B1F1405F2DD0B1F100
:101F5000605F2AD0F6E710B4046F016FD3432140CD
:101F600019400167446F416F21400B4043671AE0FD
:101F7000036F13430367416F436F0B4023EA020370
:101F80004367DFE7016F036F0B4023EA0203036738
:101F9000436F13434367D5E7036F13430367436FEF
:101FA00013434367CEE7426010BC7047416412F0B0
:101FB000010F14BF4166016612F00A0F14BF0162DF
:101FC000416212F0020F02D0C0F8801004E012F05B
:101FD000080F18BFC0F8841041610160704700BF4E
:101FE00010B44164019C0CB1416600E001660BB184
:101FF000016500E041650AB1016300E041630161F0
:10200000016010BC704700BF70B582B0054616462F
:102010001C46B1F1005F14D009D8B1F1805F10D037
:10202000B1F1C05F0DD0B1F1006F2BD109E0B1F17A
:10203000405F17D0B1F1605F14D0B1F1205F0BD0D9
:1020400020E032462846114B984714F0010F14BF88
:102050006E662E66012016E01A4631460C4B9847F4
:10206000012010E004F001030093C4F38003B1F1F8
:10207000605F14BF0022012231462846054CA0476C
:10208000012000E0002002B070BD00BF1D1F400015
:10209000AD1F4000E11F400012F0100F10D0C0F83B
:1020A000B01012F0200F14BFC0F8D410C0F8D01038
:1020B00012F0400F14BFC0F8C010C0F8C410704731
:1020C000C0F8B410704700BF0164704741647047A6
:1020D000C06C7047806C7047430903F5001303F22E
:1020E00007735B02DB6B00F01F0023FA00F000F0C7
:1020F0000100704770B582B00D46430903F5001327
:1021000003F207735C0201F0F043B3F1005F47D0C4
:1021100009D8B3F1805F21D0B3F1C05F2FD0B3F104
:10212000006F6FD109E0B3F1405F55D0B3F1605F4C
:1021300052D0B3F1205F44D064E000F01F000126CC
:10214000864032464FF000612046304B984715F0EC
:10215000010F14BF66662666012054E000F01F00E0
:102160000126864032464FF080512046274B984743
:1021700015F0010F14BF66662666012043E000F0EB
:102180001F000126864032464FF0C05120461F4BAB
:10219000984715F0010F14BF66662666012032E0ED
:1021A00000F01F000126864032464FF000512046C5
:1021B000164B984715F0010F14BF6666266601207E
:1021C00021E000F01F0101262A4606FA01F120460F
:1021D0000F4B9847304616E005F0605200F01F01A3
:1021E000012605EA06030093C5F38003B2F1605FA0
:1021F00014BF0022012206FA01F12046054CA04737
:10220000304600E0002002B070BD00BF1D1F40003E
:10221000AD1F4000E11F400070B582B005460E467C
:10222000144602F0F043B3F1005F38D009D8B3F19F
:10223000805F1CD0B3F1C05F25D0B3F1006F50D1E7
:1022400009E0B3F1405F3AD0B3F1605F37D0B3F14A
:10225000205F30D045E00A464FF00061224B98479E
:1022600014F0010F14BF6E662E6601203AE00A4694
:102270004FF080511C4B984714F0010F14BF6E664D
:102280002E6601202EE00A464FF0C051164B9847AB
:1022900014F0010F14BF6E662E66012022E00A467C
:1022A0004FF00051104B984714F0010F14BF6E66A9
:1022B0002E66012016E00D4B9847012012E004F035
:1022C000605204F001030093C4F38003B2F1605F35
:1022D00014BF0022012231462846054CA0470120A8
:1022E00000E0002002B070BD1D1F4000AD1F400087
:1022F000E11F40002DE9F84381468846124B98477C
:1023000005464846114B9847054013D0104C04F140
:1023100060062368434508D16168294205D0E36817
:1023200040469847636825EA0305B44202D010345A
:10233000002DEED1074B1B6823B1074B1B680BB177
:1023400048469847BDE8F883D1204000D52040009A
:10235000180F0020F00F0020140F0020F8B5174CC4
:102360002668062E28D84FF0000C6446144FA64667
:1023700025017D598D4204D107EB04156D68954206
:1023800004D00134E4B2A446A642F0D20C4D4FEA88
:102390000E1E05EB0E0445F80E106260A360069950
:1023A000E1600136664504BF04490E6011461A46D5
:1023B000044B98470020F8BD0120F8BD100F002005
:1023C000180F00209920400008B50B210148024B4E
:1023D000984708BD000E0E40F522400008B50C21BC
:1023E0000148024B984708BD00100E40F5224000FE
:1023F00008B50D210148024B984708BD00120E4058
:10240000F5224000F8B505460C461746184B98478C
:1024100006464FF0FF312846164B98472846164B84
:102420009847E2B202F01F030121994063099B0023
:1024300003F1604303F56143C3F88010C3F88011D2
:10244000002C06DA02F00F023F01FFB20B4887545E
:1024500007E03F01FFB204F1604404F5614484F8F1
:102460000073196031462846054B9847F8BD00BFF8
:10247000D5204000CD204000D120400014ED00E0E8
:10248000C9204000184A136B23F0700318431063EF
:10249000936E13F0080F03D009E0013B03D11EE057
:1024A0004FF4006310498A6E12F0080FF5D00E4AFF
:1024B000136B23F0030343F002031363906E10F0D9
:1024C000080004D000207047013B03D109E04FF41D
:1024D000006305498A6E12F0080FF5D0704701209D
:1024E00070470120704700BF00040E40012806D14C
:1024F000054A936843F0254343F480139360034AED
:10250000014B1A60704700BF10140E40080000A570
:10251000054B5B6913F0800F1DBF044B986EC0F331
:10252000C0100020704700BF10140E4000040E4081
:1025300038B111490B6A114A1A40114B13430B620F
:1025400070470D48026A090289B222F45C1323F035
:10255000030343F45C1343F001030B43036202469D
:10256000936E13F0010FFBD0034A136A43F09B7381
:1025700043F480331362704700040E40FCFFC8FE32
:1025800002003701024B986E00F48030704700BFA4
:1025900000040E404FF00052014B9A62704700BF9A
:1025A00000040E40024B986E00F00200704700BF1E
:1025B00000040E4022281ED81F280CD8114B9A69FF
:1025C00001238340934318D0012303FA00F00D4BFD
:1025D00018610020704720380A4BD3F808210123E6
:1025E000834093430BD0012303FA00F0054BC3F85B
:1025F0000001002070470120704700207047002034
:10260000704700BF00040E4021B1436843F001034E
:1026100043607047436823F001034360704700BF85
:1026200030B485688468A54203D084688568A54273
:10263000FBD161B1C4F3015000EB8005C4F303404A
:1026400000EB450014F4800F18BF0C30086042B155
:10265000C4F3023101EB8101C4F3032000EB41011B
:10266000116043B1C4F3021202EB820204F00F04C2
:1026700004EB42041C6030BC704700BFF0B44468F7
:1026800014F0010F05D00C2905D90C394FF4800640
:1026900002E0002600E000261C4CA4FB0357FF08C4
:1026A00007EB8705A3EB450343EA0713A4FB027579
:1026B000ED0843EA053305EB8505A2EB450243EA45
:1026C00002223243A4FB0143DB0842EA035203EB3C
:1026D0008303A1EB430342EA0341836913F0040F30
:1026E000FBD0036843F001030360836913F0010F1B
:1026F000FBD00123C3618160036823F00103036001
:10270000C06A00F00100F0BC704700BFCDCCCCCC5B
:10271000F0B4049EC568C468A54203D0C468C56807
:10272000A542FBD199B1C4F3021000EB800504F07F
:102730000F0000EB4505C4F3033000EB8000C4F349
:10274000032707EB4000642707FB0500086042B140
:10275000C4F3005188000144C4F3034000EB41017D
:10276000116043B1C4F3017202EB8202C4F303614E
:1027700001EB42021A6016B1C4F342543460F0BC5B
:10278000704700BFF0B52A4EA6FB034E4FEADE0E9F
:10279000059C640544EA0E770EEB8E0EA3EB4E0506
:1027A00047EA0565A6FB0243DB0845EA035503EB50
:1027B0008303A2EB430345EA03441E4BA3FB01231F
:1027C0009B0944EA03121C4CA4FB01346309A6FBD9
:1027D0000354E40804EB8404A3EB44031343A6FB73
:1027E0000124E40804EB8402A1EB420243EA022341
:1027F000A6FB0426F60806EB8606A4EB460643EA8B
:102800000632836913F0040FFBD0036843F0020320
:102810000360836913F0010FFBD00123C361C26021
:10282000036823F002030360C06A00F00200F0BDF9
:10283000CDCCCCCCD34D62101F85EB5108B5152003
:10284000014B984708BD00BFB5254000436823F4FD
:10285000702343604368090401F470210B43436013
:10286000704700BF436823F07F434360436843EAF7
:1028700001614160704700BF32B100EB8100036B22
:1028800043F001030363704700EB8100036B23F007
:1028900001030363704700BF32B100EB8100036B9B
:1028A00043F002030363704700EB8100036B23F0E6
:1028B00002030363704700BF042A0AD100EB8100C2
:1028C000036B23F008030363036B43F00403036308
:1028D000704752B900EB8100036B23F008030363D8
:1028E000036B23F0040303637047082A05D100EB50
:1028F0008100036B43F008030363704700EB810121
:102900000B6B23F0F0030B630B6B1A430A637047E6
:10291000431E1944B1FBF0F0431EFE2B94BF00B2DE
:102920004FF0FF30704700BF6AB110B4144600EB9F
:1029300081010B6B23F47F430B630A6B42EA042291
:102940000A63002002E04FF0FF30704710BC704770
:1029500010B400EB8101086B80B208630C6B44EA91
:10296000036343EA02420A6310BC70472B4B99424F
:1029700049D8A3F57A5399422BD910B4284CA4FB1B
:102980000234A40B043C274B0B449B00B2FBF3F234
:10299000043AFF2C39D9002301336408FF2C02D9F3
:1029A000072BF9D10AE0FF2A08D9062B00D905E048
:1029B00001335208FF2A01D9062BF9D9120292B22B
:1029C0001B0403F4E0231A43E4B222430261002013
:1029D00021E04900B2FBF1F2043AFF2A07D90023B3
:1029E00001335208FF2A03D9072BF9D100E0002355
:1029F000110289B21B0403F4E0230B43D2B21A4341
:102A000002610020704701207047FF2A88BF002321
:102A1000CED80023D2E710BC704700BF801A060052
:102A2000F11976050012FD3F38B504460D464FF00A
:102A3000FF338362036A80230360036B0823036010
:102A400020230360042303600A684968054B984704
:102A5000012814BF002001206B7A012B04BF402302
:102A6000236038BD6D2940000A4659B10378012919
:102A7000C4BF417841EA0323022A05DD807840EA99
:102A80000320704700207047184670472DE9F04139
:102A9000CC68002C45D00B4605468E680020686047
:102AA0004A68120202F4407242F480511A7C120405
:102AB00002F4FE020A436A60E86059681846274B30
:102AC0009847E860012C04D103232B604FF0010EDE
:102AD00033E001232B604FF0000E2EE00A462B6AF4
:102AE00013F4807F20D1511E0AB3012C06D1BEF110
:102AF000000F2FD1C5F80080E6462BE013F0020F3F
:102B000005D02B6B3370013C01363A4600E00A4693
:102B1000002CE4D12B6A13F0010FFBD02B6ABDE827
:102B2000F0810120BDE8F0810520BDE8F081092099
:102B3000BDE8F0810520BDE8F0812B6A13F48070B8
:102B4000F8D147F22F5147F230574FF002084FF0BB
:102B5000010CCAE713F0020FC0D0D2E7692A400087
:102B600010B4AC2303600B684A68B3FBF2F31B0993
:102B70005C1E4FF6FE7294420AD803628B68436073
:102B800040F20223C0F8203150230360002000E00F
:102B9000012010BC704700BF40230360704700BF96
:102BA00010230360704700BF40697047436913F00A
:102BB000020F1ABFC161002001207047436913F062
:102BC000010F1DBF83690B7000200120704700BFFB
:102BD00010B40C0194420FD91AE0416841F400216D
:102BE0004160120402F4E0221A43026200201CE059
:102BF00001201AE0012018E0630803EBC202B2FBD7
:102C0000F4F2D3085C1E4FF6FE718C42E9D9EFE76F
:102C1000C9004B0803EBC202B2FBF1F2D3085C1E01
:102C20004FF6FE718C42E5D8D7E710BC704700BF65
:102C30000A4BC0F8E4300023436043628362882378
:102C40000360242303604FF4807303604FF4002378
:102C500003604FF400330360704700BF00415355D9
:102C600070B505460C4616460F4B984700220F4B91
:102C70001A609CB13246216828460D4B984702469F
:102C800070B96168A368194323691943E3680B436A
:102C900006490B6069680B436B6002E0012200E0AB
:102CA0000122104670BD00BF312C4000880F00206B
:102CB000D12B400040230360704700BF1023036006
:102CC000704700BF40697047436913F0020F1DBF92
:102CD000C1F30801C161002001207047436913F06E
:102CE000010F05D08369C3F308030B600020704710
:102CF000012070474FF4004343607047FEE700BF78
:102D000008B5204B204A9A4212D9204B1D4A9A42BC
:102D10001ED21146013B9B1A23F0030304331A4AC7
:102D2000134452F8040B41F8040B9A42F9D10FE016
:102D3000144B154A9A420BD2144B124A9A1A144851
:102D400011182AB151F8042943F8042D8142F9D110
:102D500000BF104B104A9A420BD2131D0F4AD21AD1
:102D600022F003021A44043B002143F8041B9A4258
:102D7000FBD10B4B0B4A9A600B4B98470B4B984778
:102D8000FEE700BF0000002034484000940C002003
:102D90003048400040100020940C002043100020D8
:102DA00000ED00E0000040005D3D400019304000B3
:102DB0003D4B1B6B03F00303032B5DD8DFE803F0EF
:102DC000020E2B2B394B5B6913F0800F14BF4FF4AD
:102DD00000424FF4FA42364B1A604DE0324B1B6A08
:102DE00013F0807F03D0334A314B1A6044E0324AFB
:102DF0002F4B1A602C4B1B6A03F07003102B02D070
:102E0000202B04D038E02D4A294B1A6034E0294A9F
:102E1000274B1A6030E0244B1B6A13F0807F03D0ED
:102E2000244A234B1A6012E0234A214B1A601E4B9E
:102E30001B6A03F07003102B02D0202B04D006E095
:102E40001E4A1B4B1A6002E01A4A194B1A60164BB5
:102E50001B6B03F00303022B134A07BF936A926AAA
:102E6000D36AD26A1248C3F30A41036801FB0333F1
:102E7000D2B2B3FBF2F303600B4B1B6B03F0700396
:102E8000702B07D10A4A13680D49A1FB03135B0895
:102E900013607047044B1B6B0549C3F302120B68A8
:102EA000D3400B60704700BF00040E4010140E406A
:102EB00050040020001BB70000093D0000127A00FA
:102EC000ABAAAAAA1A4B984207D84FF08063194AB6
:102ED000136002F5007213607047174B984206D8D2
:102EE000164B144A136002F5007213607047144BBE
:102EF000984206D8134B0F4A136002F50072136014
:102F00007047114B984206D8104B0A4A136002F5DD
:102F10000072136070470E4B984294BF4FF0042329
:102F20000C4B044A136002F500721360704700BF37
:102F3000FF2C3101000A0E40FF596202000100041B
:102F4000FF86930300020004FFB3C40400030004DF
:102F5000FFE0F50500050004094B1B6813B9094A99
:102F6000074B1A60064B1B681A180749914204DB8D
:102F70001046034A1060184670474FF0FF30704704
:102F80008C0F002040400020FC3F012007280DD876
:102F9000074B53F820300BB100221A7009B10023FF
:102FA0000B70034B43F82010002070470B20704734
:102FB000900F00200122024B1A70024B18607047DC
:102FC000B20F0020F80F00202DE9F8430D4B1D78BB
:102FD0000D4C04F13C07DFF83890DFF838800B4ED9
:102FE00015B12068C04701E02068C84754F8040BB9
:102FF000B047BC42F4D185F00105024B1D70BDE81D
:10300000F88300BF54040020FC0F0020710E400024
:10301000650E4000550E40002DE9F04F89B0804B01
:1030200098478048804B9847DFF840B202AB019345
:1030300000278BF8007078207C4B984782464FF031
:103040000A08DFF8F0911AE0ABB2FC18A4B20AEB60
:10305000C406424600210198C847334602980399A6
:1030600003C3734B43F824600135032DECD10337C0
:10307000BFB208F101081FFA88F80F2F01D0002510
:10308000E2E704AC0223002201212046694DA84753
:10309000694B1C6006AC00231A4602212046A84753
:1030A000664B1C6000238DF81E30654F07F13C0411
:1030B0003D46644E55F8040FB047AC42FAD15E4B22
:1030C0001868604B98475F4E9AE0C8205E4B98475F
:1030D0005E4B1B7823B35E4B1B68022B08D0032B7F
:1030E00017D0012B19D1544B18685A4B984714E04C
:1030F000524B1B689A7982B901229A714E490A682B
:10310000528801325A800B689A884C4B1B689A800F
:1031100003E0494B1868504B984700224B4B1A70FC
:10312000464B186843880F2B02D10023837103E0BC
:1031300083790BB1494B9847494B1B88052B07D125
:10314000484B9847464B1B88052B08BF002302D0ED
:1031500001339BB2FFE7424A1380384BD3F800C0DB
:103160009CF80600324B03F13C014FF00009CA46BF
:10317000A0B11A68B2F802E0BCF80250AE450DD119
:10318000B2F804E0BCF80450AE4507D19579002DA3
:1031900018BF9146002D18BF4FF0010A0433994221
:1031A000E6D1BAF1000F04D0002389F806308CF87C
:1031B00006302D4B98473D4655F8040F837903B1EF
:1031C000B047AC42F8D11C4B1868B0471B4B18688D
:1031D000837903B1B0479BF800003B4653F8042FB6
:1031E000518831B99279002A18BF9046002A18BF39
:1031F00010469C42F2D1B8F1000F01D08BF80000CC
:103200009BF80080B8F1000F3FF45FAF164B984772
:103210000E4B1B78002BFDD000220C4B1A7007E7D9
:103220006D0D4000B52F40008D084000AD3D4000C1
:10323000FC0F0020F10D400038100020F40F00209A
:10324000F80F0020150E4000C1014000B20F002011
:10325000F80F0020650E4000550E40007D0E400026
:10326000B00F0020C92F4000B1064000B30F00206E
:1032700081F0004102E000BF83F0004330B54FEA27
:1032800041044FEA430594EA050F08BF90EA020F94
:103290001FBF54EA000C55EA020C7FEA645C7FEA27
:1032A000655C00F0E2804FEA5454D4EB5555B8BF4A
:1032B0006D420CDD2C4480EA020281EA030382EABB
:1032C000000083EA010180EA020281EA0303362D4D
:1032D00088BF30BD11F0004F4FEA01314FF4801C20
:1032E0004CEA113102D0404261EB410113F0004F32
:1032F0004FEA03334CEA133302D0524263EB4303E9
:1033000094EA050F00F0A780A4F10104D5F1200E86
:103310000DDB02FA0EFC22FA05F2801841F10001E1
:1033200003FA0EF2801843FA05F359410EE0A5F1B5
:1033300020050EF1200E012A03FA0EFC28BF4CF0E6
:10334000020C43FA05F3C01851EBE37101F000459C
:1033500007D54FF0000EDCF1000C7EEB00006EEBA9
:103360000101B1F5801F1BD3B1F5001F0CD3490833
:103370005FEA30004FEA3C0C04F101044FEA44528A
:1033800012F5800F80F09A80BCF1004F08BF5FEA11
:10339000500C50F1000041EB045141EA050130BDF1
:1033A0005FEA4C0C404141EB010111F4801FA4F194
:1033B0000104E9D191F0000F04BF01460020B1FAE9
:1033C00081F308BF2033A3F10B03B3F120020CDA21
:1033D0000C3208DD02F1140CC2F10C0201FA0CF0FF
:1033E00021FA02F10CE002F11402D8BFC2F1200C64
:1033F00001FA02F120FA0CFCDCBF41EA0C0190401A
:10340000E41AA2BF01EB0451294330BD6FEA040462
:103410001F3C1CDA0C340EDC04F11404C4F120024D
:1034200020FA04F001FA02F340EA030021FA04F35F
:1034300045EA030130BDC4F10C04C4F1200220FAB6
:1034400002F001FA04F340EA0300294630BD21FAF4
:1034500004F0294630BD94F0000F83F4801306BFBA
:1034600081F480110134013D4EE77FEA645C18BFAE
:103470007FEA655C29D094EA050F08BF90EA020F45
:1034800005D054EA000C04BF1946104630BD91EA3D
:10349000030F1EBF0021002030BD5FEA545C05D140
:1034A0004000494128BF41F0004130BD14F580047F
:1034B0003CBF01F5801130BD01F0004545F0FE41F3
:1034C00041F470014FF0000030BD7FEA645C1ABF28
:1034D000194610467FEA655C1CBF0B46024650EA5F
:1034E000013406BF52EA033591EA030F41F400218B
:1034F00030BD00BF90F0000F04BF0021704730B511
:103500004FF4806404F132044FF000054FF00001E5
:1035100050E700BF90F0000F04BF0021704730B5A6
:103520004FF4806404F1320410F0004548BF40427B
:103530004FF000013EE700BF42004FEAE2014FEAD0
:1035400031014FEA02701FBF12F07F4393F07F4FAB
:1035500081F06051704792F0000F14BF93F07F4FDD
:10356000704730B54FF4607401F0004521F0004120
:1035700020E700BF50EA010208BF704730B54FF0A6
:1035800000050AE050EA010208BF704730B511F0AB
:10359000004502D5404261EB41014FF4806404F1E3
:1035A00032045FEA915C3FF4DCAE4FF003025FEA65
:1035B000DC0C18BF03325FEADC0C18BF033202EBED
:1035C000DC02C2F1200300FA03FC20FA02F001FA47
:1035D00003FE40EA0E0021FA02F11444C1E600BFE6
:1035E00070B54FF0FF0C4CF4E06C1CEA11541DBF99
:1035F0001CEA135594EA0C0F95EA0C0F00F0DEF864
:103600002C4481EA030621EA4C5123EA4C5350EA48
:10361000013518BF52EA033541F4801143F4801399
:1036200038D0A0FB02CE4FF00005E1FB02E506F02A
:103630000042E0FB03E54FF00006E1FB03569CF07F
:10364000000F18BF4EF0010EA4F1FF04B6F5007F85
:1036500064F5407404D25FEA4E0E6D4146EB0606F7
:1036600042EAC62141EA55514FEAC52040EA5E5080
:103670004FEACE2EB4F1FD0C88BFBCF5E06F1ED82A
:10368000BEF1004F08BF5FEA500E50F1000041EB61
:10369000045170BD06F0004646EA010140EA02000E
:1036A00081EA0301B4EB5C04C2BFD4EB0C0541EA30
:1036B000045170BD41F480114FF0000E013C00F345
:1036C000AB8014F1360FDEBF002001F0004170BD69
:1036D000C4F10004203C35DA0C341BDC04F1140482
:1036E000C4F1200500FA05F320FA04F001FA05F20E
:1036F00040EA020001F0004221F0004110EBD370DB
:1037000021FA04F642EB06015EEA430E08BF20EA06
:10371000D37070BDC4F10C04C4F1200500FA04F3A9
:1037200020FA05F001FA04F240EA020001F000413B
:1037300010EBD37041F100015EEA430E08BF20EAAE
:10374000D37070BDC4F1200500FA05F24EEA020EF6
:1037500020FA04F301FA05F243EA020321FA04F025
:1037600001F0004121FA04F220EA020000EBD370DC
:103770005EEA430E08BF20EAD37070BD94F0000FDC
:103780000FD101F00046400041EB010111F4801F10
:1037900008BF013CF7D041EA060195F0000F18BFC1
:1037A000704703F00046520043EB030313F4801FFD
:1037B00008BF013DF7D043EA0603704794EA0C0FB7
:1037C0000CEA135518BF95EA0C0F0CD050EA4106CD
:1037D00018BF52EA4306D1D181EA030101F000414A
:1037E0004FF0000070BD50EA410606BF1046194672
:1037F00052EA430619D094EA0C0F02D150EA01367E
:1038000013D195EA0C0F05D152EA03361CBF1046BE
:1038100019460AD181EA030101F0004141F0FE415D
:1038200041F470014FF0000070BD41F0FE4141F4E1
:10383000780170BD70B54FF0FF0C4CF4E06C1CEAE1
:1038400011541DBF1CEA135594EA0C0F95EA0C0F96
:1038500000F0A7F8A4EB050481EA030E52EA033551
:103860004FEA013100F088804FEA03334FF0805572
:1038700045EA131343EA12634FEA022245EA11159F
:1038800045EA10654FEA00260EF000419D4208BF50
:10389000964244F1FD0404F5407402D25B084FEAFD
:1038A0003202B61A65EB03055B084FEA32024FF4A9
:1038B00080104FF4002CB6EB020E75EB030E22BF06
:1038C000B61A754640EA0C005B084FEA3202B6EBC6
:1038D000020E75EB030E22BFB61A754640EA5C0075
:1038E0005B084FEA3202B6EB020E75EB030E22BF05
:1038F000B61A754640EA9C005B084FEA3202B6EB06
:10390000020E75EB030E22BFB61A754640EADC00C4
:1039100055EA060E18D04FEA051545EA16754FEA26
:1039200006164FEAC30343EA52734FEAC2025FEA44
:103930001C1CC0D111F4801F0BD141EA00014FF0D3
:1039400000004FF0004CB6E711F4801F04BF0143A4
:103950000020B4F1FD0C88BFBCF5E06F3FF6AFAEC0
:10396000B5EB030C04BFB6EB020C5FEA500C50F150
:10397000000041EB045170BD0EF0004E4EEA1131D3
:1039800014EB5C04C2BFD4EB0C0541EA045170BDDA
:1039900041F480114FF0000E013C90E645EA060E1E
:1039A0008DE60CEA135594EA0C0F08BF95EA0C0F4C
:1039B0003FF43BAF94EA0C0F0AD150EA01347FF494
:1039C00034AF95EA0C0F7FF425AF104619462CE76B
:1039D00095EA0C0F06D152EA03353FF4FDAE1046CE
:1039E000194622E750EA410618BF52EA43067FF41F
:1039F000C5AE50EA41047FF40DAF52EA43057FF4AF
:103A0000EBAE12E74A0011D212F5001211D20DD519
:103A10006FF47873B3EB62520ED44FEAC12343F0D4
:103A2000004343EA505323FA02F070474FF000007E
:103A3000704750EA013002D14FF0FF3070474FF02D
:103A40000000704753B94AB9002908BF00281CBFBD
:103A50004FF0FF314FF0FF3000F07EB9ADF1080CB0
:103A60006DE904CE00F006F8DDF804E0DDE902239C
:103A700004B070472DE9F0478C460E460446089D79
:103A8000002B50D18A4217466CD9B2FA82FEBEF1A1
:103A9000000F0BD0CEF1200420FA04F401FA0EF648
:103AA00044EA060C02FA0EF700FA0EF44FEA174940
:103AB000220CBCFBF9F01FFA87F809FB10C642EA9A
:103AC000064600FB08F3B34209D9F61900F1FF32AC
:103AD00080F02281B34240F21F8102383E44F61A40
:103AE000A2B2B6FBF9F309FB136642EA064403FBF4
:103AF00008F8A04509D9E41903F1FF3280F00A81E2
:103B0000A04540F20781023B3C44C8EB040443EA71
:103B100000400021002D62D024FA0EF400232C6016
:103B20006B60BDE8F0878B4207D9002D55D000218E
:103B300085E841000846BDE8F087B3FA83F1002923
:103B400040F09080B34202D3824200F2F880841A9F
:103B500066EB03060120B446002D40D085E8101026
:103B6000BDE8F08712B90127B7FBF2F7B7FA87FE75
:103B7000BEF1000F35D1F31B4FEA17481FFA87FC3F
:103B80000121B3FBF8F0220C08FB103642EA06468E
:103B90000CFB00F3B34207D9F61900F1FF3202D251
:103BA000B34200F2CE801046F61AA2B2B6FBF8F38A
:103BB00008FB136642EA06440CFB03FCA44507D944
:103BC000E41903F1FF3202D2A44500F2B580134696
:103BD000CCEB040443EA00409CE729462846BDE8B4
:103BE000F087CEF1200106FA0EF307FA0EF720FA5D
:103BF00001F94FEA1748CE4049EA0309B6FBF8FA43
:103C00004FEA194408FB1A661FFA87FC44EA064388
:103C10000AFB0CF29A4200FA0EF40AD9DB190AF1F7
:103C2000FF3180F087809A4240F28480AAF1020A34
:103C30003B449B1A1FFA89F9B3FBF8F108FB1133D7
:103C400049EA034301FB0CF69E4207D9DB1901F157
:103C5000FF326BD29E4269D902393B449B1B41EA39
:103C60000A418EE7C1F1200E22FA0EF48B40234365
:103C700020FA0EF706FA01F44FEA134C26FA0EF674
:103C80003C43B6FBFCF9270C0CFB19661FFA83F8C2
:103C900047EA064609FB08F7B74202FA01F200FAC2
:103CA00001FA08D9F61809F1FF3041D2B7423FD9DD
:103CB000A9F102091E44F61BA0B2B6FBFCF40CFBF2
:103CC000146640EA064704FB08F8B84507D9FF1810
:103CD00004F1FF3028D2B84526D9023C1F4444EAFB
:103CE0000940C8EB0707A0FB02894F4544464E46F2
:103CF00014D329D065B3BAEB040367EB060707FAC0
:103D00000EFECB40CF404EEA030385E88800002139
:103D1000BDE8F0871346F8E61046E0E6B8EB02048B
:103D200069EB03060138E5E70446D8E7114695E755
:103D30008146C0E78A467CE7023B3C4448E70846A8
:103D40000AE702383E442FE7C245E7D33E46D1E7B3
:103D50002946BDE8F08700BF704700BF70B50F4E21
:103D60000F4D761BB61018BF002405D0013455F84E
:103D7000043B9847A642F9D10A4E0B4D761B00F042
:103D800043FDB61018BF002406D0013455F8043B9B
:103D90009847A642F9D170BD70BD00BF14484000DD
:103DA000144840001C48400014484000024B0146A3
:103DB000186800F003B800BF800800202DE9F04F1C
:103DC00001F10B05162D83B0064640F29F8035F0B9
:103DD000070500F1BF80A94200F2BC8000F0F4FAB0
:103DE000B5F5FC7FC0F09C826B0A00F0BA80042B12
:103DF00000F28381A80900F1390E4FEA4E033830F2
:103E0000C44F07EB8303A3F108015C68A14207D10B
:103E1000ACE0002A80F2AC80E468A14200F0A68009
:103E2000636823F003035A1B0F2AF2DDB9493C698A
:103E300001F1080E744500F0B381636823F00303B9
:103E40005A1B0F2A00F39981002AC1F814E0C1F827
:103E500010E080F29E80B3F5007F80F06781DB0880
:103E600003F1010C01229B1002FA03F34A6851F896
:103E70003C80C4F8088001EBCC091A43A9F108037F
:103E8000E3604A6041F83C40C8F80C4083100124CC
:103E90009C40944200F28A80144206D120F0030034
:103EA0006400144200F10400FAD007EBC009CC46CC
:103EB0008046DCF80C108C4507D173E1002A80F2B3
:103EC0008181C9688C4500F06D814B6823F0030344
:103ED0005A1B0F2AF2DD0C46D1F80CC054F8088F9B
:103EE0004B1945F001054D6042F00101C8F80CC0C6
:103EF0003046CCF808807B613B61C3F80CE0C3F826
:103F000008E059609A5000F061FA1FE0102921D8AA
:103F100000F05AFA1025062302207E4F07EB830398
:103F2000A3F108025C68944200F045816368E1688F
:103F3000A56823F00303234430465A68E96042F041
:103F400001028D605A6000F041FA0834204603B047
:103F5000BDE8F08F00240C232046336003B0BDE899
:103F6000F08F80234FF0400E3F2049E770465DE719
:103F70002344E1685A68A56842F00102E9603046CE
:103F80008D605A6000F022FA0834204603B0BDE884
:103F9000F08F234430465A6842F001025A6000F024
:103FA00015FA0834204603B0BDE8F08FBC6863689A
:103FB00023F00308A84504D3C5EB08030F2B00F337
:103FC0008C80554BDFF860911A68D9F800300133C6
:103FD0002A4404EB080A00F0608102F580520F3297
:103FE00022F47F6222F00F0211463046019200F067
:103FF000EFF9B0F1FF3F8346019A00F05881824506
:1040000000F2FC80454B1968DA451144196000F054
:104010005381D9F80000DFF810E101301BBFCAEB73
:104020000B0A5144CEF800B019601BF0070100F0F4
:104030001781C1F10800C1F58051834408315A4409
:10404000C2F30B02C2EB010949463046019300F06E
:10405000BFF9431C019B00F03F81CBEB00024A44B7
:1040600042F001021968C7F808B04944BC42CBF8D5
:1040700004201960DFF8A49016D0B8F10F0F40F2B9
:10408000FD806268A8F10C0323F00703E01802F03A
:1040900001024FF0050E1A430F2B6260C0F804E0D6
:1040A000C0F808E000F21C811D4BBC681A68914200
:1040B00088BF19601B4B1A689142626888BF1960FB
:1040C00022F003029542A2EB050301D80F2B04DC7A
:1040D000304600F07BF9002438E7621943F0010311
:1040E00045F0010565603046BA60536000F06EF936
:1040F0000834204603B0BDE8F08F142B71D9542B3F
:1041000000F2A480280B00F16F0E4FEA4E036E30D0
:1041100076E600BF84080020BC0F0020C00F0020FE
:10412000B80F0020B40F0020900C00205A0A042A77
:104130005ED9142A00F2B38002F15C0149005B32BF
:1041400007EB810C57F82110DFF8DC81ACF1080C8B
:104150008C4500F088804A6822F00302934202D224
:1041600089688C45F7D1D1F80CC07A68C4F80CC0C6
:10417000A160CCF80840CC6088E6631942F00107E2
:1041800045F00105656030464B610B61C3F80CE0FA
:10419000C3F808E05F609A50083400F017F9D5E6DC
:1041A0004A6873E608F1010818F0030F0CF1080CD7
:1041B0007FF47FAE30E0DC68A34208BF02303FF4FA
:1041C00035AEB3E60B440C465A68C96854F8085F2C
:1041D00042F001025A603046E9608D6000F0F6F866
:1041E000B4E603F15C0E03F15B004FEA4E0307E611
:1041F0009A0902F1390149003832A1E7BC424A4B21
:104200003FF400AF9C68626822F003025AE759F855
:104210000839994540F0828010F0030F00F1FF301B
:10422000F5D17B6823EA04037B6064009C423FF67F
:10423000BDAE002C3FF4BAAE1C4240467FF435AE12
:1042400064001C4200F10400FAD02EE6B3F5AA7F08
:1042500018D8E80B00F1780E4FEA4E037730CFE51F
:104260004FF48051EBE60121D8F80430921001FAA6
:1042700002F21A43C8F80420614677E70123CBF81D
:10428000043025E740F25452934220D8A80C00F1A4
:104290007D0E4FEA4E037C30B2E51032A4E6542A7C
:1042A00026D81A0B02F16F0149006E3248E7BC684C
:1042B000626822F0030205E7CAF30B0000287FF4CE
:1042C000A8AE4244BB6842F001025A60ECE6FE230D
:1042D0004FF07F0E7E2093E501224FF00009C1E6EA
:1042E00004F10801304600F0F7F8D9F80010DBE6D9
:1042F000B2F5AA7F05D8DA0B02F1780149007732CE
:104300001EE740F254518A4205D89A0C02F17D0111
:1043100049007C3214E7FE217E2211E77B6884E7A6
:10432000E808431C5B00F8E58408002070B48407AB
:1043300046D0541E002A41D0CDB2034602E0621E90
:10434000E4B3144603F8015B9A07F8D1032C2ED985
:10435000CDB245EA05250F2C45EA054519D903F1EB
:1043600010022646103E0F2E42F8105C42F80C5CFC
:1043700042F8085C42F8045C02F11002F2D8A4F1A1
:10438000100222F00F0204F00F041032032C134429
:104390000DD91E462246043A032A46F8045BFAD891
:1043A000221F22F003020432134404F003042CB150
:1043B000C9B21C4403F8011BA342FBD170BC704777
:1043C00014460346C2E700BF704700BF704700BFF6
:1043D00038B5074C0023054608462360FEF7BCFDB0
:1043E000431C00D038BD2368002BFBD02B6038BDA8
:1043F0003C100020024B13B1024800F005B8704792
:104400000000000015444000002301461A461846EB
:1044100000F04AB938B5074D074C2C1BA41005D045
:10442000013C55F8043D9847002CF9D1BDE83840CF
:1044300000F0F4B92C48400028484000F8B5234F5C
:104440000C460646FFF7C0FFBB685D6825F0030514
:10445000291B01F6EF7121F47F6121F00F01A1F515
:104460008054B4F5805F07DB00213046FFF7B0FFD2
:10447000BB682B44984204D03046FFF7A7FF0020CA
:10448000F8BD61423046FFF7A3FF01300DD0104B5D
:10449000BA6819682D1B45F001053046091B5560A7
:1044A0001960FFF793FF0120F8BD00213046FFF7A8
:1044B0008FFFBA68831A0F2BDEDD064C044924688F
:1044C00043F00103001B53600860D5E78408002017
:1044D000C00F0020900C0020002945D02DE9F041AC
:1044E0000D468046FFF770FF55F8047C6A4927F0B7
:1044F0000103A5F10804E2188E685068B24220F06A
:10450000030062D0FE0750600BD455F8087CE41B12
:1045100001F1080EA56875453B446FD0E768EF6070
:10452000BD6015186D68ED0742D543F00102626069
:10453000E350B3F5007F18D2DB085A1C4D6851F8E0
:104540003270A76001209B1000FA03F301EBC20058
:104550001D430838E0604D6041F83240FC60404641
:10456000BDE8F041FFF732BF70475A0A042A53D81A
:104570009A0902F139077F0002F1380501EB870043
:1045800051F827204449083890424DD0516821F015
:1045900003018B4202D292689042F7D1D068E0606A
:1045A000A2608460D4604046BDE8F041FFF70EBFD2
:1045B00095683A4FBD4203443FD0D068E86043F06D
:1045C000010285606260E350B3E7FF07034407D44C
:1045D00055F8082CA41A1344A068E268C2609060E1
:1045E0002F4A126843F00100934260608C60B6D39A
:1045F0002C4B40461968FFF721FFB0E711184968B6
:10460000C90744D49168D268CA60034443F00100EA
:1046100091606060E350A2E7142A17D802F15C07AA
:104620007F0002F15B05A9E7AA104B68012505FA96
:1046300002F213434B600246B1E743F001024C61C2
:104640000C61E560A5606260E35088E7542A06D8F3
:104650001A0B02F16F077F0002F16E058EE7B2F5CB
:10466000AA7F06D8DA0B02F178077F0002F17705FE
:1046700084E740F25450824206D89A0C02F17D073A
:104680007F0002F17C0579E7FE277E2576E743F07F
:1046900001026260E35062E7840800208C08002079
:1046A0008C0C0020BC0F00202DE9F047254C25681C
:1046B000D5F848410646884692469946C4B3606894
:1046C0001F2817DC431C76B104EB80050122C5F8D6
:1046D00088A0D4F8881182401143022EC4F88811B2
:1046E000C5F808911ED00230636044F82080002095
:1046F000BDE8F087144B03B34FF4C870FFF756FBC7
:104700000446D0B1D5F84831002780E88800C5F8C4
:10471000484138460123C4F88871C4F88C71002ED2
:10472000E1D0D1E7D4F88C110A43C4F88C21DAE740
:1047300005F5A674C5F84841C1E74FF0FF30BDE864
:10474000F08700BF04484000AD3D4000000000007D
:104750000D000000000000000E0000000700000037
:10476000C7070000000000000A0000000C00000065
:104770000D0000000F0000001400000019000000F0
:104780001E00000023000000280000002D00000093
:1047900032000000370000003C000000460000002E
:1047A000500000000A00000064000000E803000060
:1047B00010270000000000000000000000000000C2
:1047C000000000000A0000000C0000000D000000C6
:1047D0000F000000140000001A0000001E0000007E
:1047E00023000000280000002D000000340000001D
:1047F000370000003C0000004600000050000000B0
:104800004300000058040020F8B500BFF8BC08BC05
:104810009E467047F5434000F1004000F8B500BFE8
:0C482000F8BC08BC9E467047CD0040006C
:08482C0048F2FF7F01000000CB
:10483400BFF35F8F0138FBD1704700BF0144000014
:1048440001C40000050608F00806000003FE828289
:10485400030638C0038282FE0304020403808080BE
:104864000202040044020020500200205C020020E6
:1048740068020020740200208002002088020020C8
:104884009002002054030020580300205C03002001
:104894006003002064030020680300206C030020F0
:1048A40070030020040300200C03002014030020E4
:1048B4001C030020B00100202C030020340200203F
:1048C400B801002044030020C00100200C00002097
:1048D40010000020C8010020D0010020D8010020D1
:1048E400E0010020E8010020940200209C02002046
:1048F400A4020020F4010020FC0100200402002096
:104904000C020020C0020020C8020020CC020020BB
:10491400D4020020DC020020E4020020EC0200208B
:10492400F4020020FC020020140200201C020020DB
:10493400240200202C020020240300203C0200203A
:10494400340300203C030020140000204C0300200A
:104954001C0000202000002024000020280000204B
:104964002C00002030000020740300207C03002071
:10497400840300208C030020940300209C03002067
:10498400A0030020A8030020B0030020B4030020EB
:10499400B8030020C0030020C4030020CC0300207F
:1049A400D4030020DC030020E4030020EC030020F7
:1049B400F0030020F8030020FC030020040400207E
:1049C4000C040020140400201C04002024040020F3
:1049D400AC020020B0020020B4020020B802002083
:1049E40005302824FE200000050202F20A06000019
:1049F400054C9292927C000004102844820000002E
:104A040004282828280000000482442810000000FC
:104A1400050402A2120C000008384492AAAABA247F
:104A24001800000004FE82827C00000004FE9292C2
:104A34008200000004FE121202000000057C829233
:104A440092F40000057C82A242BC000004FE1232F3
:104A5400CC000000044C929264000000050202FEA7
:104A640002020000057C929292640000050E30C0A0
:104A7400300E0000080000000000000000000000EC
:104A840008997E3C24243C3C180000000804BD66C0
:104A94003C3E65BC0400000008181818180000000B
:104AA400000000000800000000181818180000009A
:104AB40005462610C8C40000056C92AC40A0000056
:104AC4000106000005F8141214F8000004FE929286
:104AD4006C000000047C82824400000003106C829D
:104AE40001FE000003826C10051008102010000065
:104AF40004FE1010FE0000000382FE820440808049
:104B04007E00000005FE10284482000004FE808020
:104B14008000000005FE040804FE000005FE0418E1
:104B240060FE0000047C82827C00000004FE1212FD
:104B34000C000000057CA2928A7C0000050084FE23
:104B4400800000000584C2A2928C00000544829279
:104B5400926C0000047E80807E000000055E8A8ADC
:104B64008A720000053EC038C03E000005C6281009
:104B740028C60000056C9292926C000005C2A292B5
:104B84008A860000033844820382443803281028AC
:104B94000310381001C00000031010100180000041
:104BA40003C0380604708888F800000004FE888872
:104BB40070000000047088888800000004708888F1
:104BC400FE0000000470A8A83000000003FC1202DC
:104BD4000410A8A87800000004FE1008F0000000EB
:104BE40001FA000002807A0004FE205088000000D0
:104BF40001FE000005F808F008F0000004F81008B1
:104C0400F0000000047088887000000004F8282870
:104C14001000000004102828F800000003F8100811
:104C24000490A8A84800000003087C8804788080C9
:104C3400F800000005186080601800000538C030D6
:104C4400C038000005885020508800000418A0A037
:104C54007800000003C8A8980000000000000000CD
:104C64004C000000000000000000000000000000F4
:104C7400000000000000000000000000010000002F
:104C840000093D000100000000000000440700206E
:104C9400AC07002014080020000000000000000001
:104CA4000000000000000000000000000000000000
:104CB4000000000000000000000000000048400068
:104CC40000000000000000000000000000000000E0
:104CD40000000000000000000000000000000000D0
:104CE40000000000000000000000000000000000C0
:104CF40000000000000000000000000000000000B0
:104D0400000000000000000000000000000000009F
:104D1400000000000000000000000000000000008F
:104D2400000000000000000000000000000000007F
:104D340001000000000000000E33CDAB34126DE61C
:104D4400ECDE05000B000000000000000000000085
:104D5400000000000000000000000000000000004F
:104D6400000000000000000000000000000000003F
:104D7400000000000000000000000000000000002F
:104D8400000000000000000000000000000000001F
:1050B40058040020000000000000000084080020C4
:1050C400840800208C0800208C080020940800200C
:1050D400940800209C0800209C080020A4080020BC
:1050E400A4080020AC080020AC080020B40800206C
:1050F400B4080020BC080020BC080020C40800201C
:10510400C4080020CC080020CC080020D4080020CB
:10511400D4080020DC080020DC080020E40800207B
:10512400E4080020EC080020EC080020F40800202B
:10513400F4080020FC080020FC08002004090020DA
:10514400040900200C0900200C0900201409002087
:10515400140900201C0900201C0900202409002037
:10516400240900202C0900202C09002034090020E7
:10517400340900203C0900203C0900204409002097
:10518400440900204C0900204C0900205409002047
:10519400540900205C0900205C09002064090020F7
:1051A400640900206C0900206C09002074090020A7
:1051B400740900207C0900207C0900208409002057
:1051C400840900208C0900208C0900209409002007
:1051D400940900209C0900209C090020A4090020B7
:1051E400A4090020AC090020AC090020B409002067
:1051F400B4090020BC090020BC090020C409002017
:10520400C4090020CC090020CC090020D4090020C6
:10521400D4090020DC090020DC090020E409002076
:10522400E4090020EC090020EC090020F409002026
:10523400F4090020FC090020FC090020040A0020D5
:10524400040A00200C0A00200C0A0020140A002082
:10525400140A00201C0A00201C0A0020240A002032
:10526400240A00202C0A00202C0A0020340A0020E2
:10527400340A00203C0A00203C0A0020440A002092
:10528400440A00204C0A00204C0A0020540A002042
:10529400540A00205C0A00205C0A0020640A0020F2
:1052A400640A00206C0A00206C0A0020740A0020A2
:1052B400740A00207C0A00207C0A0020840A002052
:1052C400840A00208C0A00208C0A0020940A002002
:1052D400940A00209C0A00209C0A0020A40A0020B2
:1052E400A40A0020AC0A0020AC0A0020B40A002062
:1052F400B40A0020BC0A0020BC0A0020C40A002012
:10530400C40A0020CC0A0020CC0A0020D40A0020C1
:10531400D40A0020DC0A0020DC0A0020E40A002071
:10532400E40A0020EC0A0020EC0A0020F40A002021
:10533400F40A0020FC0A0020FC0A0020040B0020D0
:10534400040B00200C0B00200C0B0020140B00207D
:10535400140B00201C0B00201C0B0020240B00202D
:10536400240B00202C0B00202C0B0020340B0020DD
:10537400340B00203C0B00203C0B0020440B00208D
:10538400440B00204C0B00204C0B0020540B00203D
:10539400540B00205C0B00205C0B0020640B0020ED
:1053A400640B00206C0B00206C0B0020740B00209D
:1053B400740B00207C0B00207C0B0020840B00204D
:1053C400840B00208C0B00208C0B0020940B0020FD
:1053D400940B00209C0B00209C0B0020A40B0020AD
:1053E400A40B0020AC0B0020AC0B0020B40B00205D
:1053F400B40B0020BC0B0020BC0B0020C40B00200D
:10540400C40B0020CC0B0020CC0B0020D40B0020BC
:10541400D40B0020DC0B0020DC0B0020E40B00206C
:10542400E40B0020EC0B0020EC0B0020F40B00201C
:10543400F40B0020FC0B0020FC0B0020040C0020CB
:10544400040C00200C0C00200C0C0020140C002078
:10545400140C00201C0C00201C0C0020240C002028
:10546400240C00202C0C00202C0C0020340C0020D8
:10547400340C00203C0C00203C0C0020440C002088
:10548400440C00204C0C00204C0C0020540C002038
:10549400540C00205C0C00205C0C0020640C0020E8
:1054A400640C00206C0C00206C0C0020740C002098
:1054B400740C00207C0C00207C0C002000000200F6
:0454C400FFFFFFFFE8
:0400000500402D0189
:00000001FF
