:020000040040BA
:10000000203C0020B52B4000B12B4000B12B40001C
:10001000B12B4000B12B4000B12B4000000000008C
:100020000000000000000000000000000D02400081
:10003000B12B400000000000B12B4000C101400086
:10004000B12B4000B12B4000B12B40000104400017
:10005000B12B4000B12B4000B12B4000B12B400030
:10006000B12B4000350A400000000000B9224000DA
:10007000CD224000E1224000B12B4000710A400037
:100080000000000000000000B12B4000B12B400038
:10009000B12B4000B12B4000B12B4000B12B4000F0
:1000A000B12B4000B12B4000B12B4000B12B4000E0
:1000B000B12B4000B12B4000B12B4000B12B4000D0
:1000C000B12B4000B12B4000B12B400010B5054CC6
:1000D000237833B9044B13B10448AFF300800123F4
:1000E000237010BD6408002000000000883C400020
:1000F0000C4B43B10C480D4910B5AFF300800C48D0
:10010000036823B910BD0A48036833B97047094B27
:10011000002BF7D0BDE810401847064B002BF5D058
:10012000184700BF00000000883C4000680800201D
:10013000883C400000000000034B1B6843F4802310
:1001400019430160002070478008002041B9094A26
:10015000136823F0807313600268134303607047D1
:10016000044A136843F0807313600268134303600A
:10017000704700BF80080020036823EA0101024B9A
:100180001B681943016070478008002082688368FB
:100190009A4203D0826883689342FBD11846704725
:1001A000C06870477047000008B5014B984708BD0C
:1001B0007D1A4000014B1860704700BF800B002083
:1001C00008B5024B1B68984708BD00BF7C0B002098
:1001D00038B518B909200A4B984738BD014643F293
:1001E000B062002343F2AF6400250648E0FB0145FE
:1001F00020462946044CA047014B984738BD00BF14
:1002000001000020000E2707893640000D4B1B68B7
:100210001847EFF309807047EFF3148343F00103AD
:1002200083F31488BFF36F8F7047EFF3148343F0A9
:10023000020383F31488BFF36F8F704780F309883C
:1002400070470000800B002008B50B2802D00D2855
:100250000ED008BD042906D00129FAD10C4B1B6829
:100260000120984708BD0A4B1B680020984708BD2D
:10027000B1F1005F07D0B1F1804FEAD1044B1B68A8
:1002800003209847E5E7024B1B680220984708BD0A
:100290008408002070B582B0064602AC022344F800
:1002A000043D094D21462846084B98474FF400125B
:1002B000074B5A63EE605620064B98472146284666
:1002C000054B984702B070BD00800040B51B400050
:1002D00000120E4001000020E51B400030B585B043
:1002E000044600230C224FF000610C480C4DA84737
:1002F00009200C4B98470C4B019302944FF4006378
:1003000003930A4C01A92046094B98472046094B04
:1003100098472046084B984705B030BD00100E4066
:10032000011F4000A1244000000E270700080E40D6
:10033000292A40005F2A4000652A400030B587B076
:10034000054600234FF4C0024FF000610F48104CE7
:10035000A0470F200F4CA04700230393049305935D
:100360000095C02301934FF4006302930F20A04730
:10037000094C0A4A69462046094B98472046094BD2
:1003800098472046084B984707B030BD000E0E40F6
:10039000011F4000A124400000800240000E2707FA
:1003A000192B40006D2B4000732B400010B5054BFE
:1003B00098470B20044CA0470C20A0470D20A047D5
:1003C00010BD00BF8D1C4000A124400038B504467C
:1003D000084D00212846084B984704EB4414B4F517
:1003E000004F28BF4FF40044A1B22846034B984762
:1003F00038BD00BF30140E404D01400039014000AF
:1004000008B50548054B984710F0020F00D108BD0C
:10041000034B1B689847FAE730140E40A1014000D7
:100420008808002008B5064B0822C3F88020C3F8CE
:1004300080214FF400310348034B984708BD00BFAB
:1004400000E100E030140E407901400008B5024898
:10045000024B984708BD00BF30140E408D0140008C
:100460000F4B4FF400021A61C3F8A0204FF4801222
:100470001A61C3F8A02002F18042A2F5F9324FF4CC
:1004800080311161C2F8A0104FF480021A61C3F8E4
:10049000A0204FF400221A61C3F8A020704700BFCB
:1004A00000120E4004281BD8DFE800F003121416D7
:1004B00018005722530903F5001303F207735B0278
:1004C00081B102F01F02012101FA02F25A63704762
:1004D0005422EFE71022EDE75622EBE75322E9E73B
:1004E0000022E7E702F01F02012101FA02F21A637B
:1004F000704704281ED8DFE800F0031517191B0009
:100500005722530903F5001303F207735B02D96BFB
:1005100002F01F02012303FA02F20A420CBF18463E
:10052000002070475422ECE71022EAE75622E8E761
:100530005322E6E70022E4E710B50020054B984778
:10054000054CA0470028FCD000210448044B9847E4
:1005500010BD00BFD9234000FD23400060140E40B1
:10056000F524400070B582B00446084D0123009385
:10057000C368026941692846054EB047236862682E
:10058000A1682846034CA04702B070BD60140E401D
:100590006D26400065254000F0B585B0044604ADE9
:1005A000002345F8043D0A4E0346021D00F10801F0
:1005B0003046084FB847009504F10C0304F11002CF
:1005C00004F114013046044CA04705B0F0BD00BF53
:1005D00060140E400B254000F925400008B5014B82
:1005E000984708BDD10D40002DE9F04782B0203872
:1005F0001F4B53F820703B7803B301241D4EDFF8E6
:100600008090DFF8808017F804A002AD022345F83F
:10061000043D29463046C8474FF40013C8F830302F
:10062000C6F80CA05620144B984729463046134B69
:1006300098470134E4B23B78A342E4D202AC0223EF
:1006400044F8043D0B4D214628460D4B98474FF486
:1006500000120C4B1A630023EB605620064B9847A0
:1006600021462846054B984702B0BDE8F08700BFF9
:100670008C0200200080004001000020E51B4000AB
:10068000B51B400000120E402DE9F04F83B04FF033
:10069000000ADFF878B05746DFF874900AF00700D8
:1006A00040F0B000D8471020D8473846D8478026B9
:1006B000134DDFF8608002AC022344F8043D21466C
:1006C0002846C0474FF40013C9F83030EF60562079
:1006D0000C4B9847214628460B4B9847013EEAD1E0
:1006E0000AF1010ABAF1040FD8D1B020074CA04793
:1006F0001020A0470020A04703B0BDE8F08F00BF46
:100700000080004001000020E51B400095024000F1
:1007100000120E40B51B400070B50D46C6B2C6F3C0
:10072000021040F01000054CA04706F00F00A04753
:1007300005F0070040F0B000A04770BD95024000F2
:100740000420704738B510B101281CD038BD4FF0D7
:10075000205120200D4B98471D200D4B98470D4CE4
:1007600000230D4A0D4920460D4DA847042120467F
:100770000C4B98470122002120460B4B98472046FE
:100780000A4B984738BD0A4B984738BDE91F4000CF
:10079000A12440000080034040420F00000E2707C4
:1007A0009D1D4000E51D4000D11D4000DF1D4000A3
:1007B000890E40000000000010B584B018B1012877
:1007C0001AD0002016E004211B481C4B98471C4BF4
:1007D000984717A3D3E900231A4CA04700221A4BCD
:1007E0001A4CA04702460B4600201749184CA04758
:1007F000184B984704B010BD00220023CDE9002318
:1008000003220023CDE90223134C6846A04750B1D0
:10081000DDE90223501C43F10001CDE90201002B68
:1008200008BF042AF1D3DDE900010A4B9847E1E74C
:100830000000000000FEAF4000800340EF1D4000BC
:1008400039314000793440000000594025324000E1
:10085000BD2E400049364000F50E40002DE9F04F16
:1008600083B0384B18600B20DFF8F4A0D0470A2281
:1008700004213548DFF8EC90C847DFF8EC80CDF86C
:100880000080792304220B212F48304FB847304E87
:100890004FF4006BC6F800B005220B212A482D4DFD
:1008A000A847042128482C4CA0470B20D0470A22F7
:1008B00001212548C847CDF80080792301220B216A
:1008C0002148B847C6F800B005220B211E48A847AA
:1008D00001211D48A0470D20D0470A224FF00051AA
:1008E0001E48C847CDF8008079234FF000520D21F3
:1008F0001A48B8474FF4005BC6F800B005220D2136
:100900001648A8474FF000511448A0470D20D04783
:100910000A224FF080411148C847CDF80080792362
:100920004FF080420D210D48B847C6F800B00522AF
:100930000D210A48A8474FF080410848A04703B05E
:10094000BDE8F08F84080020000E0E4049224000D0
:1009500000E100E0F5224000BB1F400000120E4005
:10096000A1244000FD1D40004902400008B510B11F
:10097000012804D008BD0846034B984708BD084627
:10098000024B984708BD00BFDD0240003D03400018
:1009900008B510B1012809D008BD094A536913F000
:1009A000020FFBD00648074B984708BD064A53691B
:1009B00013F0020FFBD00448044B984708BD00BF5A
:1009C00000080E406F2A4000008002407D2B40004E
:1009D00030B583B000238DF8073028B1012810D03E
:1009E0009DF8070003B030BD0C4D0D4C2846A047C4
:1009F00010F0010FFAD00DF107010848094B984794
:100A0000EEE7094D094C2846A04710F0010FFAD037
:100A10000DF107010448064B9847E1E700080E4036
:100A20006B2A40007F2A400000800240792B400062
:100A3000912B400000B583B009480A4B984710F04D
:100A4000010F02D103B05DF804FB0DF1070104486A
:100A5000054B9847054B1B689DF807009847F1E741
:100A600000080E406B2A40007F2A40008C080020BE
:100A700000B583B009480A4B984710F0010F02D126
:100A800003B05DF804FB0DF107010448054B9847DE
:100A9000054B1B689DF807009847F1E7008002406E
:100AA000792B4000912B4000900800207047704740
:100AB000012817D1F8B50122134B1A704C20134BA3
:100AC000984708B10020F8BD114B98470B24114DF1
:100AD000114F124E0020A84730B1013CF2D03846E9
:100AE000B047F7E7002070470D4C4FF40C7200211F
:100AF00020460C4B9847214600200B4B9847B0FAF4
:100B000080F04009F8BD00BFC40A0020CB1F4000A0
:100B100091114000BD1140006E281A000100002014
:100B200094080020E9394000052E400038B52C4BD0
:100B3000984704684568836913F8023C102B4ED827
:100B4000DFE803F0091015191D21262A2E33363A45
:100B50003F434D474A00291C18BF01212046214B25
:100B6000984738BD2046204B9847287038BD20460E
:100B70001E4B984738BD20461D4B984738BD204630
:100B80001C4B984738BDE9B220461B4B984738BDEF
:100B900020461A4B984738BD2046194B984738BD18
:100BA0002046184B9847286038BD174B984738BDEA
:100BB000E0B2164B984738BD29462046144B98475B
:100BC00038BD144B9847206038BD2046124B9847DB
:100BD00038BD124B984738BD114B9847206038BD3F
:100BE00013024000A5044000F30440005D084000EB
:100BF000990540006505400091094000D109400079
:100C000045074000B907400089064000E90540005B
:100C10001907400041074000CD0340002504400073
:100C20004D04400008B50248024B984708BD00BF7C
:100C30002D0B4000B50140002DE9F84301210020B3
:100C40001A4CA04701210846A04701210220A047D5
:100C500001210320A04701210420A0470027B94615
:100C6000DFF85880124E39464846C0475F247C253D
:100C70002846B047013CFBD10137042FF3D1C820EF
:100C80000C4B984700210846084CA0470021012042
:100C9000A04700210220A04700210320A0470021F7
:100CA0000420A047044B9847BDE8F883A504400002
:100CB000E9054000D10140008906400019074000C5
:100CC00030B587B00020124CA0470120A047114B3F
:100CD0009847114B98474FF4E13100200F4CA04743
:100CE0004FF4E1310120A0470D4B984701200D4BF7
:100CF00098476C460C4D0FCD0FC495E8030084E86F
:100D000003006846094B9847094B984707B030BD28
:100D10004507400039054000DD0540006D094000F1
:100D200061044000B10A4000A43B4000650540005A
:100D3000390C400008B5074B9847074B9847074BBD
:100D40009847074B9847074B9847074B9847074BDF
:100D5000984708BDA9014000AD034000AF0A40001C
:100D6000AD0A4000C10C4000A5014000250C400028
:100D700082B002AB03E9030002B0704782B002AB5D
:100D800003E9030002B0704770B582B0064602ACBA
:100D9000022344F8043D094D21462846084B984754
:100DA0004FF40012074B5A63EE605620064B9847EB
:100DB00021462846054B984702B070BD0080004090
:100DC000B51B400000120E4001000020E51B400052
:100DD000F0B585B0254D4FF000466E635620244C8B
:100DE000A0472E635620A047022704AE46F8047D94
:100DF000204C2046204B9847002500951F4B2A4643
:100E0000314620461E4EB04701232360A8201D4CCA
:100E1000A0471F20A047D320A0472846A047402036
:100E2000A047A120A047C820A047DA20A047384605
:100E3000A0478120A0478F20A047A420A047A6203C
:100E4000A047D520A0478020A0478D20A047142090
:100E5000A047DB20A0474020A047D920A047F12091
:100E6000A047AF20A04705B0F0BD00BF00120E4064
:100E70000100002000800040E11A4000404B4C007F
:100E8000351B4000890D400000B585B00023039359
:100E9000074B019342F2107302931320054B9847BE
:100EA00001A90548054B984705B05DF804FB00BF54
:100EB000000E2707A12440000080014005294000C2
:100EC00010B586B000240194059401438DF80410F8
:100ED00001210291039304924F238DF8143001A94C
:100EE0000248034B9847C0B206B010BD00800140D5
:100EF0006929400070B582B0044600208DF80400D6
:100F00008DF8050001AB02220146274DA847054692
:100F100010BB9DF804209DF8053043EA02231BB264
:100F20009AB2002BBABFC2F30E024FF0FF3001207D
:100F30001E4B1B78DBB2032B0ED8DFE803F0021048
:100F40001C29D20900FB02F0194B98470022194BCB
:100F5000194EB047C4E90001284602B070BD92099D
:100F600000FB02F0124B98470022144B124EB04780
:100F7000C4E90001F0E7520900FB02F00C4B98476E
:100F800000224FF07F530C4EB047C4E90001E3E765
:100F9000120900FB02F0064B98470022084B064E50
:100FA000B047C4E90001D7E7C10E4000C50A0020E0
:100FB000593140000000E03F253240000000D03FA2
:100FC0000000B03F10B5074B196891F8223000338C
:100FD00018BF01234A7C096803480078034CA047E6
:100FE00010BD00BFC80A0020CD0A00203D174000F8
:100FF00008B104207047334B9A68530903F5001376
:1010000003F207735B02D96B02F01F02012303FA9C
:1010100002F20A4210D02B4B9B7B012B04D00422FE
:10102000284B9A7302207047274B1B78002BF6D071
:101030000022264B1A60F2E710B5224B9B7B042B53
:1010400005D0012B19D0032B2CD1032010BD012278
:101050001C4B9A731D4B1B683BB91B4B1A701B4BE7
:101060001B4959601A60022010BD0022164B1A70ED
:101070001848194B9847022010BD134B1B783BB101
:10108000124B1B6813F4803F1AD000220F4B1A60DA
:101090000C4B02229A73114A1A6001225A740022E0
:1010A00083F8222000220E4B1A70064C0D4B1C6058
:1010B0000D4B9847A07B022814BF0020012010BDD3
:1010C000022010BD08040020CC0A002010E000E03F
:1010D000C0E1E40025CA820001000020801A060059
:1010E000CD0A0020C80A0020C50F40002DE9F041BC
:1010F000094C0027094E0A4D394641F60D30B047DC
:10110000804630B1A847C0B218B1013CF4D14FF0CD
:1011100000084046BDE8F081410D0300651940001C
:101120007D19400010B582B00D4B1B6899890123D1
:101130000093102291400B480B4CA047034610B976
:10114000184602B010BD064B186801211230074B3B
:10115000984703460028F3D0054B98470346EFE72E
:10116000C80A002009110800DD174000FD194000E1
:10117000791A400008B5044B1B7803B108BD002064
:10118000024B9847FAE700BFCD0A00207D174000C8
:1011900008B50D20054B98470422054B9A73FF2292
:1011A000044B1A70044B984708BD00BFA1244000AF
:1011B00008040020CD0A00200D1740002DE9F0435F
:1011C00087B09A4B98470446012805D0984B98471A
:1011D000204607B0BDE8F083964B1B680122DA7306
:1011E00000251D749D81944B984729464FF48850E3
:1011F000924B984730B98F4B1B6803249C738C4BE0
:101200009847E5E74FF4D57145F208508B4B984766
:10121000002829D10027874B1B68DB7B13F0010FC7
:1012200040F0DF81834B1B68DB7B03F00903012B5C
:1012300011D14FF4007141F21010804B98470028F3
:10124000D9D07C4B1B68DB7B13F0010F03D07C4BA8
:1012500098470028CFD07B4B9847764B1B680022DD
:101260009A73734B9847B3E7774B9847B0F1FF3FBA
:1012700000F0B581C0F30B00B0F5D57FBBD10127DD
:10128000C9E7002140F23A506C4B9847F0B9694BDE
:101290001B680222DA7300214FF48850674B98478D
:1012A0000028A8D041F6EF354FF00008634E664F96
:1012B000414641F20110B04700289CD0B84710F0D9
:1012C000010F00F08480013DF2D194E75E4B984716
:1012D00010F0804F05D0574B1A68D37B43F00803BA
:1012E000D373002141F23B10544B9847002882D021
:1012F000504B1B68DB7B13F0010F00F09081534BC8
:10130000984700283FF477AF4A4B1B685A7D02F09C
:1013100007004F4951F820004FF47A7101FB00F1AA
:10132000C2F3C3024B4850F8222002FB01F21A60BC
:101330009A7C920940F02A81997E587E1A7E920208
:1013400042EA800242EAA112187FD97E490041EAAE
:10135000E011C2F30B02013201F0070102318A40B1
:10136000D97D01F00F018A40920A5A6099890904D7
:1013700041F23710314B984700283FF43CAF01232E
:101380000093082200213448344DA84700283FF438
:1013900032AF012104A8324B984700283FF42BAF0D
:1013A000304B984700283FF426AF9DF8103003F0EB
:1013B0000F03012B00F00481002B00F0F480022BBE
:1013C00000F003811B4B1B6810221A74EFE0002110
:1013D00040F23A50194B984700283FF40CAF1A4B93
:1013E000984700F0C040B0F1804F05D1114B1A680A
:1013F000D37B43F00803D373002141F23B100F4B22
:10140000984700283FF4F7AE104B984700283FF468
:10141000F2AE084B1A68937CC3F38303013B032BA2
:1014200022D8DFE803F08D90939600BFF10F4000C3
:1014300075114000C80A0020A5174000651940003A
:10144000ED104000C50F40007D19400025114000FF
:10145000FC3B4000183C400033110800DD17400001
:10146000FD194000791A400012231374537DC3F311
:10147000C30003F007036D4951F823104FF47A734A
:1014800003FB01F36A4951F8201003FB01F31360D9
:10149000917E507E137E9B0243EA800343EAA113B0
:1014A000C3F30B0340F6FF718B420FD0107FD17E48
:1014B000490041EAE011013301F0070102318B409C
:1014C000D17D01F00F018B409B0A5360137C3F2BB1
:1014D0004BD90021009101234FF400725548564D1D
:1014E000A84700283FF487AE0025544E03A8B04714
:1014F00000283FF480AE0135ADB2322DF6D1504B0D
:101500001B689A7E597E1B7E9B0243EA810343EA55
:10151000A213C3F30B0340F6FF7293420ED1474E62
:1015200004A8B04700283FF466AE0135ADB2352DB2
:10153000F6D9434B1A68049B5B0853603F4E12E098
:101540001423137492E7222313748FE73023137448
:101550008CE74023137489E704A8B04700283FF4C0
:101560004AAE0135ADB27F2DF6D94FF4007141F28C
:101570001010344B984700283FF43DAE324B98474B
:1015800000283FF438AE314B984766E6D97E987E06
:101590005A7E120442EA00220A43C2F315020132C3
:1015A00052025A60E2E6264B1B6810221A74244B42
:1015B0001B68DB7B03F00903012B7FF442AE38E6A6
:1015C0001F4B1B681A221A74F1E79DF81230DB09D1
:1015D0001B4B1B6814BF302220221A74E7E7002738
:1015E00019E6BF0741F6EF354FF00008154EDFF85A
:1015F0006090414641F23710B04700283FF447AEB3
:10160000394641F22910B04700283FF440AEC847A0
:1016100010F0010F3FF435AE013DEAD137E603F09B
:101620000903012B7FF417AE03E600BFFC3B40002B
:10163000BC3B400008110800DD174000891940003C
:10164000C80A002065194000ED104000C50F400099
:101650007D19400070B582B002ACFF2304F8013D53
:101660000F4E0122214630460E4DA8470122214649
:101670003046A847012221463046A8470A4C9DF82B
:101680000730FF2B08D001220DF107013046A84793
:10169000013CF4D1002000E0012002B070BD00BF89
:1016A00000800040391C4000400D0300F0B583B0BD
:1016B00002AD002305F8013D104C114F114E0122DF
:1016C00029463846B0479DF8073013F0F00F08D090
:1016D000FE2B10D0013CF2D104220B4B1A700020DB
:1016E00007E013F0070F14BF07220B22064B1A70F6
:1016F000002003B0F0BD0120FBE700BF20A10700E0
:1017000000800040391C4000D00A00200022084B15
:101710001A70084B1B6913F4803F00D0704710B556
:10172000044C2046044B98470123236010BD00BFA2
:10173000D00A002000800040E11A400070B582B05D
:101740000022094B1A70094C04EB8004084D0092EA
:101750000B4621462846074EB04721462846064BF1
:10176000984702B070BD00BFD00A00202C040020B2
:1017700000800040351B4000B51B400008B500222A
:10178000044B1A70044901EB80010448044B98474C
:1017900008BD00BFD00A00202C04002000800040BB
:1017A000E51B4000F0B583B002ADFF2305F8013D15
:1017B0000022074B1A700A24064F074E01222946C1
:1017C0003846B047631E13F0FF04F7D103B0F0BDF5
:1017D000D00A002000800040051C40002DE9F043A5
:1017E00085B0044691469846FF238DF80F300023BC
:1017F000534A137000F03F0242F040028DF8082077
:101800000A0E8DF809200A0C8DF80A200A0A8DF8B4
:101810000B208DF80C1002AF4FF0080C0DF10D0EDF
:1018200001E0774512D017F8011B62465B00DBB27E
:1018300083EA010010F0800F18BF83F0090349000C
:10184000C9B2013A12F0FF02F0D1EAE75B0043F0BF
:1018500001038DF80D303B4F01220DF10F01384689
:10186000394DA847062202A93846A84704A9FF23F4
:1018700001F8093D01223846344B98470727314E7D
:10188000324D01220DF107013046A8479DF807307F
:1018900013F0800F0BD07B1E13F0FF07F1D1022253
:1018A000274B1A700023184605B0BDE8F083284A7C
:1018B000136013F0080F19D113F0040F1BD133F08C
:1018C00001031DD114F4005F1FD114F4007F25D152
:1018D00014F4806F2AD11F4BA3F800901E4BA3F87D
:1018E000008000221D4B1A600123DCE70622144B06
:1018F0001A700023D7E70922114B1A700023D2E790
:1019000001220F4B1A700023CDE7154B9847034671
:101910000028DAD103210A4A1170C4E70C490023D8
:101920000B6001220748094B9847D1E7084C042275
:1019300021460448054B984723681BBA2360CAE731
:10194000D00A002000800040051C4000391C4000E7
:10195000D40A0020CE0A0020D20A0020D80A002093
:101960005516400010B582B0002200921346024C7A
:10197000A04702B010BD00BFDD174000014B186842
:10198000704700BFD40A002010B582B00446002280
:10199000144B1A70144B1A88144B1968B1FBF2F3EC
:1019A00002FB13131BB9124B9847034680B1042264
:1019B00021461048104B98470C4A136804331360B3
:1019C000094A1188B3FBF1F201FB12331BB1012369
:1019D000184602B010BD022201A90648064B9847DE
:1019E0000123F5E7D00A0020CE0A0020D80A002003
:1019F000AD16400000800040391C40002DE9F04F3A
:101A000083B00022164B1A7039B34C1EA4B2814623
:101A10001546DFF85CB0DFF85C80124FD84782468D
:101A2000B8B1B8F8002009EB050138460E4EB047B2
:101A3000B8F800100D440D4A13680B4413600222DD
:101A400001A93846B047013CA4B24FF6FF739C424F
:101A5000E4D1504603B0BDE8F08F4FF0010AF8E73B
:101A6000D00A002000800040391C4000D80A002025
:101A7000AD164000CE0A00200120704710B50E4878
:101A80000E4B98473E2100200D4B98470D4CA04728
:101A90000028FCD00C4B98470C4A0D4B9A620D4C19
:101AA000A0470028FCD010200B4B98470B4B9847C1
:101AB0000148024B984710BD000E2707712D4000CA
:101AC0001D2440007124400081244000013F132068
:101AD00000040E409124400075234000612C40001A
:101AE00010B50446104B984780232360636843F089
:101AF00001036360636843F010036360636823F06D
:101B00008003636000212046084B9847636823F0F8
:101B100002036360636823F00403636000212046CE
:101B2000034B984710BD00BF2527400035274000D4
:101B30004B2740002DE9F04104460D461646154955
:101B40001846154B9847074600231A462968204631
:101B5000DFF85C80C0470822296820460F4B984771
:101B6000FAB2296820460E4B984708222968204679
:101B70000C4B98477208296820460B4B984786F013
:101B8000010202F0010229682046084B9847BDE88F
:101B9000F08100BF000E2707F3274000DF27400039
:101BA00009284000992740005D2740007B2740001E
:101BB0002F28400008B5436813F0040F06D00968C9
:101BC0000F2900D908BD064B984708BD09680329AD
:101BD000F8D8012303FA01F1C943014B9847F1E713
:101BE0003527400010B50446236913F4007FFBD06D
:101BF0000F212046024B98474FF08073236010BDA1
:101C0000352740001AB110B40C46114406E00020FC
:101C1000704714F8013BC360A1420BD043F69923EF
:101C2000026912F0020FF4D1013BF9D16FF002000A
:101C300010BC70470020FBE73AB170B415460C4663
:101C40000D44FF2640F2012112E000207047C660DB
:101C500043F69923026931EA020204D0013BF9D12B
:101C60006FF002000EE0836804F8013BA5420BD040
:101C700043F69923026912F0020FE8D1013BF9D132
:101C80006FF0020070BC70470020FBE7F8B53848E1
:101C9000384B98470B20384CA0470C20A0470D200C
:101CA000A047364B4FF400021A631A61C3F8A02014
:101CB000334C04256561C4F8A0506566C4F89050A3
:101CC00065656562C4F88050226F22F004022267C5
:101CD000626F22F0040262674FF480121A631A6185
:101CE000C3F8A0204FF4803222632261C4F8A02000
:101CF0004FF480021A631A61C3F8A0204FF000620B
:101D00000C212048204B9847204F39460320204E75
:101D1000B04739462846B04739460C20B0473946C7
:101D20000D20B04739460E20B0474FF080510920B2
:101D3000B04718490A20B04707F1405739465520A7
:101D4000B04739465F20B04713494C20B04765661D
:101D5000C4F8905065656562C4F88050236F23F025
:101D600004032367636F23F004036367F8BD00BFB8
:101D700050140E40A92B4000A124400000120E4038
:101D8000000E0E4000100E40092140000100000826
:101D9000E91F4000010000100100002830B40124B8
:101DA00004600024446040F20225C0F82051C0F8CD
:101DB0000441C0F8144145685200B1FBF2F2013A07
:101DC000120292B22B431A434260204630BC704745
:101DD0004368D201D2B219430A43426070470223DA
:101DE00003607047012303FA01F1016170470F2975
:101DF0009ABF503050F8210000207047C0F884107E
:101E000053004FF40042B2FBF3F2013AC2F30D0269
:101E1000C0F88C2070474264B1F1C05F39D013D84C
:101E2000B1F1006F25D0B1F1805F0AD1036F134388
:101E30000367436F416F0B4023EA0203436742602D
:101E400070470029FBD17047B1F1205F20D009D83D
:101E5000B1F1005FF3D1036F13430367436F134383
:101E60004367ECE7B1F1405F12D0B1F1605F0FD092
:101E7000E5E710B4016F046FD34321401C461940BD
:101E80000167436F416F0B4023404367426010BCC2
:101E90007047036F016F0B4023EA02030367436F30
:101EA00013434367CBE7416412F0010F14BF41664F
:101EB000016612F00A0F14BF0162416212F0020FB4
:101EC00007D112F0080F18BFC0F8841041610160FB
:101ED0007047C0F88010F9E710B4019C416444B920
:101EE000016643B1016542B941630161016010BC03
:101EF00070474166F5E74165F5E70163F5E70000E6
:101F000070B582B0054616461C46B1F1005F14D08C
:101F10000AD9B1F1405F22D0B1F1605F1FD0B1F1B9
:101F2000205F16D0002012E0B1F1805F05D0B1F142
:101F3000C05F02D0B1F1006FF4D132462846104B99
:101F4000984714F0010F14BF6E662E66012002B090
:101F500070BD1A4631460B4B98470120F7E704F055
:101F600001030093C4F38003B1F1605F14BF00224A
:101F7000012231462846044CA0470120E7E700BF74
:101F8000171E4000A71E4000D91E400012F0100F7F
:101F900010D0C0F8B01012F0200F14BFC0F8D41049
:101FA000C0F8D01012F0400F14BFC0F8C010C0F835
:101FB000C4107047C0F8B4107047016470474164A2
:101FC0007047C06C7047806C7047430903F500137D
:101FD00003F207735B02DB6B00F01F0023FA00F0D3
:101FE00000F001007047000070B582B00D46430953
:101FF00003F5001303F207735C0201F0F043B3F141
:10200000005F53D00AD8B3F1805F2DD0B3F1C05F29
:102010003BD0B3F1006F15D0002023E0B3F1405F57
:1020200055D0B3F1605F52D0B3F1205FF4D100F02E
:102030001F0101262A4606FA01F120462F4B984738
:1020400030460FE000F01F000126864032464FF078
:10205000006120462A4B984715F0010F14BF6666B1
:102060002666012002B070BD00F01F0001268640E8
:1020700032464FF080512046214B984715F0010F12
:1020800014BF666626660120ECE700F01F000126FB
:10209000864032464FF0C0512046194B984715F004
:1020A000010F14BF666626660120DBE700F01F0003
:1020B0000126864032464FF000512046104B98478B
:1020C00015F0010F14BF666626660120CAE705F009
:1020D000605200F01F01012605EA06030093C5F3D4
:1020E0008003B2F1605F14BF0022012206FA01F101
:1020F0002046044CA0473046B4E700BFA71E40006E
:10210000171E4000D91E400070B582B005460E462D
:10211000144602F0F043B3F1005F3DD00AD8B3F1AA
:10212000805F21D0B3F1C05F2AD0B3F1006F0ED031
:10213000002017E0B3F1405F3AD0B3F1605F37D0D1
:10214000B3F1205FF4D1234B984701200AE00A46FF
:102150004FF00061204B984714F0010F14BF6E66DA
:102160002E66012002B070BD0A464FF080511A4B16
:10217000984714F0010F14BF6E662E660120F1E738
:102180000A464FF0C051144B984714F0010F14BF8A
:102190006E662E660120E5E70A464FF000510E4BB1
:1021A000984714F0010F14BF6E662E660120D9E720
:1021B00004F0605204F001030093C4F38003B2F111
:1021C000605F14BF0022012231462846034CA0471D
:1021D0000120C7E7A71E4000171E4000D91E40007F
:1021E0002DE9F84381460F46124B9847054648466D
:1021F000114B9847054013D0104C04F1600603E0E2
:10220000B4420DD010345DB12068B842F8D1616895
:102210002942F5D0E3689847636825EA0305EFE7AC
:10222000074B1B6823B1074B1B680BB14846984707
:10223000BDE8F883C31F4000C71F4000DC0A002030
:10224000840B0020500B0020F8B5184C2668062E91
:1022500029D84FF0000C6446154F04E00134E4B275
:10226000A446A64209D3A64625017D598D42F5D143
:1022700007EB04156D689542F0D10D4D4FEA0E1E27
:1022800005EB0E0445F80E106260A3600699E1604C
:102290000136664504BF05490E6011461A46054BD6
:1022A00098470020F8BD0120F8BD00BF4C0B00206E
:1022B000DC0A00208D1F400008B50B210148024BAD
:1022C000984708BD000E0E40E121400008B50C21E2
:1022D0000148024B984708BD00100E40E121400024
:1022E00008B50D210148024B984708BD00120E4069
:1022F000E1214000F8B505460C461746184B9847B3
:1023000006464FF0FF312846164B98472846164B95
:102310009847E2B202F01F030121994063099B0034
:1023200003F1604303F56143C3F88010C3F88011E3
:10233000002C0DDB3F01FFB204F1604404F5614461
:1023400084F80073196031462846084B9847F8BD59
:1023500002F00F023F01FFB205488754F2E700BFC9
:10236000C71F4000BF1F4000C31F4000BB1F4000ED
:1023700014ED00E0174A136B23F070031843106349
:10238000936E13F0080F0AD14FF4006311498A6E5F
:1023900012F0080F03D1013BF9D1012070470D4A1B
:1023A000136B23F0030343F002031363936E13F0E4
:1023B000080F0AD14FF4006306498A6E12F0080F25
:1023C00005D1013BF9D10120704700207047002062
:1023D000704700BF00040E40012803D0054A064B99
:1023E0001A607047044A936843F0254343F480130E
:1023F0009360F3E7080000A510140E40054B5B69DD
:1024000013F0800F1DBF044B986EC0F3C010002066
:10241000704700BF10140E4000040E40C8B9114AA6
:10242000136A090289B223F45C1323F0030343F413
:102430005C1343F001030B431362936E13F0010F1F
:10244000FBD0084A136A43F09B7343F48033136252
:10245000704704490B6A044A1A40044B13430B6249
:10246000704700BF00040E40FCFFC8FE02003701A9
:10247000024B986E00F48030704700BF00040E409D
:102480004FF00052014B9A62704700BF00040E40AB
:10249000024B986E00F00200704700BF00040E402F
:1024A00022281ED81F280CD8114B9A69012383407B
:1024B000934318D0012303FA00F00D4B186100205C
:1024C000704720380A4BD3F80821012383409343F7
:1024D0000BD0012303FA00F0054BC3F800010020E4
:1024E000704701207047002070470020704700BFF0
:1024F00000040E4021B9436823F001034360704794
:10250000436843F001034360704730B485688468D2
:10251000A54203D085688468AC42FBD161B1C4F3A5
:10252000015000EB8005C4F3034000EB450014F4B8
:10253000800F18BF0C30086042B1C4F3023101EBC8
:102540008101C4F3032000EB4101116043B1C4F3E6
:10255000021202EB820204F00F0404EB42041C603E
:1025600030BC7047F0B4446814F0010F05D00C295A
:102570003DD90C394FF4800700E000271D4CA4FB27
:102580000356F60806EB8605A3EB450343EA06135C
:10259000A4FB0265ED0843EA053305EB8505A2EBD4
:1025A000450543EA05233B43A4FB0142D20843EA25
:1025B000025302EB8202A1EB420143EA014183692B
:1025C00013F0040FFBD0036843F001030360836939
:1025D00013F0010FFBD00123C3618160036823F076
:1025E00001030360C06A00F00100F0BC70470027DF
:1025F000C4E700BFCDCCCCCCF0B4049EC568C468A1
:10260000A54203D0C568C468AC42FBD199B1C4F3FC
:10261000033000EB8000C4F3032707EB4007C4F34B
:10262000021000EB800504F00F0000EB450064256C
:1026300005FB0070086042B1C4F3005081000844FB
:10264000C4F3034101EB4001116043B1C4F30172D3
:1026500002EB8202C4F3036101EB42021A6016B17D
:10266000C4F342543460F0BC7047000070B42A4D8B
:10267000A5FB0346F608039C640544EA067406EBD2
:102680008606A3EB460344EA0363A5FB0264E40861
:1026900043EA045304EB8404A2EB440243EA0242FB
:1026A0001E4BA3FB01439B0942EA03121C4BA3FBF5
:1026B00001435B09A5FB0364E40804EB8404A3EB7A
:1026C00044031A43A5FB0143DB0803EB8304A1EB9E
:1026D000440142EA0122A5FB0315ED0805EB85053F
:1026E000A3EB450542EA0532836913F0040FFBD0E2
:1026F000036843F002030360836913F0010FFBD00A
:102700000123C361C260036823F002030360C06A4F
:1027100000F0020070BC7047CDCCCCCCD34D621021
:102720001F85EB5108B51520014B984708BD00BF28
:10273000A1244000436823F47023436043680904E4
:1027400001F47021194341607047436823F07F43CF
:102750004360436843EA01614160704732B900EB6E
:102760008100036B23F001030363704700EB8100DA
:10277000036B43F001030363704732B900EB810040
:10278000036B23F002030363704700EB8100036BCC
:1027900043F0020303637047042A03D06AB1082A96
:1027A00016D0704700EB8100036B23F0080303632E
:1027B000036B43F004030363704700EB8100036B7A
:1027C00023F008030363036B23F0040303637047E0
:1027D00000EB8100036B43F008030363E1E700EBC8
:1027E00081010B6B23F0F0030B630B6B1A430A633D
:1027F0007047431E1944B1FBF0F0431EFE2B94BFFB
:1028000000B24FF0FF30704772B110B4144600EBC5
:1028100081010B6B23F47F430B630A6B42EA0422B2
:102820000A63002010BC70474FF0FF30704710B4AF
:1028300000EB8101086B80B208630C6B44EA036310
:1028400043EA02430B6310BC704700002A4B9942D5
:1028500049D8A3F57A5399422BD910B4274CA4FB3D
:102860000234A40B043C264B0B449B00B2FBF3F256
:10287000043AFF2C39D9002101316408FF2C0DD90D
:102880000729F9D113029BB2090401F4E0210B439B
:10289000E4B223430361002010BC7047FF2AF1D942
:1028A0000629EFD801315208FF2AEBD90629F9D9B8
:1028B000E8E74900B2FBF1F2043AFF2A11D90023FC
:1028C00001335208FF2A01D9072BF9D1110289B22D
:1028D0001B0403F4E0230B43D2B21A43026100202D
:1028E00070470023F2E701207047FF2A88BF0021CC
:1028F000D8D80021C6E700BF801A0600F119760576
:102900000012FD3F38B504460D464FF0FF33836299
:10291000036A80230360036B0823036020230360A2
:10292000042303600A684968054B9847012814BFCF
:10293000002001206B7A012B04BF4023236038BDA7
:102940004D2840000A4659B103780129C4BF417897
:1029500041EA0323022A04DD827842EA032300E0ED
:102960000023184670470000F8B5CC68002C4FD003
:102970000B4605468E68002068604A68120202F421
:10298000407242F48052097C090401F4FE010A43BA
:102990006A60E86059681846224B9847E860012C45
:1029A0000FD001232B6000202B6A13F4807F36D1D7
:1029B00047F22F5147F230574FF0010E4FF0020C03
:1029C00019E003232B600120EEE70A4670460CE075
:1029D00008B9C5F800C013F0020FF6D070462B6B93
:1029E0003370013C01363A4664B12B6A13F4807FA0
:1029F00011D1511E8AB1012CEAD013F0020FEED191
:102A00000A46F1E72B6A13F0010FFBD02B6A00E0B6
:102A100001242046F8BD0524FBE70924F9E7052435
:102A2000F7E700BF4529400010B4AC2303600B68F2
:102A30004A68B3FBF2F31B095C1E4FF6FE72944228
:102A40000BD803628B68436040F20223C0F8203148
:102A500050230360002010BC70470120FBE7402397
:102A600003607047102303607047406970474369F3
:102A700013F0020F1ABFC1610020012070474369A3
:102A800013F0010F1DBF83690B70002001207047F8
:102A900010B40B01934214D9C9004B0803EBC202D6
:102AA000B2FBF1F2D3085C1E4FF6FE718C4201D9E5
:102AB000012017E0416841F4002141600CE0012051
:102AC00010E0590801EBC202B2FBF3F2D3085C1E1E
:102AD0004FF6FE718C42F2D8120402F4E0221A433F
:102AE0000262002010BC70470A4BC0F8E43000239B
:102AF00043604362836288230360242303604FF4AE
:102B0000807303604FF4002303604FF400330360CD
:102B1000704700BF0041535570B505460C46164638
:102B20000F4B984700220F4B1A60A4B13246216820
:102B300028460D4B9847024678B96368A1680B4355
:102B400021690B43E1680B4306490B6069680B433D
:102B50006B60104670BD0122FBE70122F9E700BF60
:102B6000E92A4000540B0020912A400040230360D2
:102B7000704710230360704740697047436913F042
:102B8000020F1DBFC1F30801C16100200120704781
:102B9000436913F0010F05D08369C3F308030B6089
:102BA00000207047012070474FF400434360704796
:102BB000FEE7000008B5214B214A9A4228D9214B53
:102BC0001E4A9A420CD2013B9B1A23F003030433A2
:102BD00013441B4951F8040B42F8040B9A42F9D1F3
:102BE00000BF194B194A9A420AD2013B9B1A23F0A3
:102BF000030304331344002142F8041B9A42FBD11F
:102C0000134B144A9A60144B9847144B9847FEE7AD
:102C10000A4B0B4A9A42E3D20A4B0848181A11464B
:102C2000043A02440028DBD0C1F1040152F804093F
:102C300043F8040DCA42F9D1D2E700BF00000020DA
:102C4000883C4000640800201C0C00206408002020
:102C500000ED00E00000400099394000412E4000A6
:102C60003C4B1B6B03F00303032B0ED8DFE803F090
:102C7000021C3838384B5B6913F0800F14BF4FF4D7
:102C800000424FF4FA42354B1A60324B1B6B03F093
:102C90007003702B55D02F4B1A6B3049C2F30212C0
:102CA0000B68D3400B6070472A4B1B6A13F0807F80
:102CB00003D02B4A294B1A60E7E72A4A274B1A60B0
:102CC000244B1B6A03F07003102B05D0202BDCD1A2
:102CD000234A224B1A60D8E7234A204B1A60D4E7D4
:102CE0001C4B1B6A13F0807F18D01D4A1B4B1A60C7
:102CF000184B1B6B03F00303022B164A07BF916AA4
:102D0000926AD16AD26A1548C1F30A41036801FB8D
:102D10000333D2B2B3FBF2F30360B6E7114A0F4BB1
:102D20001A600C4B1B6A03F07003102B05D0202B8C
:102D3000DED10B4A094B1A60DAE70B4A074B1A60DF
:102D4000D6E7064A13680949A1FB03135B08136021
:102D5000704700BF00040E4010140E4030040020E5
:102D6000001BB70000093D0000127A00ABAAAAAA16
:102D70001A4B984214D91A4B984219D9194B9842B8
:102D80001DD9194B984221D9184B984294BF4FF046
:102D90000423174B174A136002F500721360704743
:102DA0004FF08063134A136002F50072136070479E
:102DB000114B104A136002F50072136070470F4BFD
:102DC0000C4A136002F50072136070470C4B094AFD
:102DD000136002F500721360704700BFFF2C3101D1
:102DE000FF596202FF869303FFB3C404FFE0F505B9
:102DF00000050004000A0E40000100040002000467
:102E000000030004072801D90B207047064B53F834
:102E100020300BB100221A7009B100230B70024B55
:102E200043F8201000207047580B00200122024B6D
:102E30001A70024B18607047780B0020900B00202E
:102E400008B5124B98471248124B9847124E134D33
:102E5000134C06E0134B18689988134B98470023CE
:102E600023703378002BFDD14FF4FA60A847237804
:102E7000002BF6D00D4B1B68012BEBD0032BEED1B2
:102E8000084B186899880A4B9847E8E7350D4000C9
:102E90002D2E40005D084000790B0020D10140003C
:102EA000780B0020F00B0020710D4000900B0020EB
:102EB0007D0D400081F0004102E000BF83F000433F
:102EC00030B54FEA41044FEA430594EA050F08BFC5
:102ED00090EA020F1FBF54EA000C55EA020C7FEA89
:102EE000645C7FEA655C00F0E2804FEA5454D4EB06
:102EF0005555B8BF6D420CDD2C4480EA020281EAD0
:102F0000030382EA000083EA010180EA020281EA07
:102F10000303362D88BF30BD11F0004F4FEA013159
:102F20004FF4801C4CEA113102D0404261EB410168
:102F300013F0004F4FEA03334CEA133302D05242EE
:102F400063EB430394EA050F00F0A780A4F10104AA
:102F5000D5F1200E0DDB02FA0EFC22FA05F28018E4
:102F600041F1000103FA0EF2801843FA05F35941CA
:102F70000EE0A5F120050EF1200E012A03FA0EFC49
:102F800028BF4CF0020C43FA05F3C01851EBE37173
:102F900001F0004507D54FF0000EDCF1000C7EEB90
:102FA00000006EEB0101B1F5801F1BD3B1F5001FCE
:102FB0000CD349085FEA30004FEA3C0C04F10104ED
:102FC0004FEA445212F5800F80F09A80BCF1004F16
:102FD00008BF5FEA500C50F1000041EB045141EA98
:102FE000050130BD5FEA4C0C404141EB010111F499
:102FF000801FA4F10104E9D191F0000F04BF014644
:103000000020B1FA81F308BF2033A3F10B03B3F121
:1030100020020CDA0C3208DD02F1140CC2F10C02B1
:1030200001FA0CF021FA02F10CE002F11402D8BF0F
:10303000C2F1200C01FA02F120FA0CFCDCBF41EADB
:103040000C019040E41AA2BF01EB0451294330BDAA
:103050006FEA04041F3C1CDA0C340EDC04F1140487
:10306000C4F1200220FA04F001FA02F340EA03005E
:1030700021FA04F345EA030130BDC4F10C04C4F1A4
:10308000200220FA02F001FA04F340EA0300294684
:1030900030BD21FA04F0294630BD94F0000F83F4CE
:1030A000801306BF81F480110134013D4EE77FEAB1
:1030B000645C18BF7FEA655C29D094EA050F08BFFD
:1030C00090EA020F05D054EA000C04BF19461046DE
:1030D00030BD91EA030F1EBF0021002030BD5FEA22
:1030E000545C05D14000494128BF41F0004130BD4A
:1030F00014F580043CBF01F5801130BD01F000459E
:1031000045F0FE4141F470014FF0000030BD7FEA10
:10311000645C1ABF194610467FEA655C1CBF0B460B
:10312000024650EA013406BF52EA033591EA030F22
:1031300041F4002130BD00BF90F0000F04BF00211A
:10314000704730B54FF4806404F132044FF000054D
:103150004FF0000150E700BF90F0000F04BF0021C6
:10316000704730B54FF4806404F1320410F000452C
:1031700048BF40424FF000013EE700BF42004FEA27
:10318000E2014FEA31014FEA02701FBF12F07F43A4
:1031900093F07F4F81F06051704792F0000F14BFA1
:1031A00093F07F4F704730B54FF4607401F00045E5
:1031B00021F0004120E700BF50EA010208BF70473C
:1031C00030B54FF000050AE050EA010208BF704731
:1031D00030B511F0004502D5404261EB41014FF49A
:1031E000806404F132045FEA915C3FF4DCAE4FF09E
:1031F00003025FEADC0C18BF03325FEADC0C18BF85
:10320000033202EBDC02C2F1200300FA03FC20FAD5
:1032100002F001FA03FE40EA0E0021FA02F1144422
:10322000C1E600BF70B54FF0FF0C4CF4E06C1CEA37
:1032300011541DBF1CEA135594EA0C0F95EA0C0FAC
:1032400000F0DEF82C4481EA030621EA4C5123EA1F
:103250004C5350EA013518BF52EA033541F480114E
:1032600043F4801338D0A0FB02CE4FF00005E1FB01
:1032700002E506F00042E0FB03E54FF00006E1FB4B
:1032800003569CF0000F18BF4EF0010EA4F1FF048E
:10329000B6F5007F64F5407404D25FEA4E0E6D41CE
:1032A00046EB060642EAC62141EA55514FEAC520DF
:1032B00040EA5E504FEACE2EB4F1FD0C88BFBCF55B
:1032C000E06F1ED8BEF1004F08BF5FEA500E50F10C
:1032D000000041EB045170BD06F0004646EA0101D2
:1032E00040EA020081EA0301B4EB5C04C2BFD4EB04
:1032F0000C0541EA045170BD41F480114FF0000EFD
:10330000013C00F3AB8014F1360FDEBF002001F06A
:10331000004170BDC4F10004203C35DA0C341BDCE4
:1033200004F11404C4F1200500FA05F320FA04F0B6
:1033300001FA05F240EA020001F0004221F00041EA
:1033400010EBD37021FA04F642EB06015EEA430E5D
:1033500008BF20EAD37070BDC4F10C04C4F120058D
:1033600000FA04F320FA05F001FA04F240EA020040
:1033700001F0004110EBD37041F100015EEA430E11
:1033800008BF20EAD37070BDC4F1200500FA05F231
:103390004EEA020E20FA04F301FA05F243EA0203B0
:1033A00021FA04F001F0004121FA04F220EA0200BF
:1033B00000EBD3705EEA430E08BF20EAD37070BD05
:1033C00094F0000F0FD101F00046400041EB0101E5
:1033D00011F4801F08BF013CF7D041EA060195F0C7
:1033E000000F18BF704703F00046520043EB030381
:1033F00013F4801F08BF013DF7D043EA060370476E
:1034000094EA0C0F0CEA135518BF95EA0C0F0CD078
:1034100050EA410618BF52EA4306D1D181EA0301BE
:1034200001F000414FF0000070BD50EA410606BFB8
:103430001046194652EA430619D094EA0C0F02D1FD
:1034400050EA013613D195EA0C0F05D152EA033642
:103450001CBF104619460AD181EA030101F0004160
:1034600041F0FE4141F470014FF0000070BD41F0A9
:10347000FE4141F4780170BD70B54FF0FF0C4CF483
:10348000E06C1CEA11541DBF1CEA135594EA0C0FA2
:1034900095EA0C0F00F0A7F8A4EB050481EA030EEF
:1034A00052EA03354FEA013100F088804FEA0333D6
:1034B0004FF0805545EA131343EA12634FEA0222A4
:1034C00045EA111545EA10654FEA00260EF0004165
:1034D0009D4208BF964244F1FD0404F5407402D2B7
:1034E0005B084FEA3202B61A65EB03055B084FEA48
:1034F00032024FF480104FF4002CB6EB020E75EB45
:10350000030E22BFB61A754640EA0C005B084FEA6C
:103510003202B6EB020E75EB030E22BFB61A7546E9
:1035200040EA5C005B084FEA3202B6EB020E75EB34
:10353000030E22BFB61A754640EA9C005B084FEAAC
:103540003202B6EB020E75EB030E22BFB61A7546B9
:1035500040EADC0055EA060E18D04FEA051545EAA8
:1035600016754FEA06164FEAC30343EA52734FEA51
:10357000C2025FEA1C1CC0D111F4801F0BD141EACA
:1035800000014FF000004FF0004CB6E711F4801F2F
:1035900004BF01430020B4F1FD0C88BFBCF5E06F0F
:1035A0003FF6AFAEB5EB030C04BFB6EB020C5FEA1F
:1035B000500C50F1000041EB045170BD0EF0004E74
:1035C0004EEA113114EB5C04C2BFD4EB0C0541EAA6
:1035D000045170BD41F480114FF0000E013C90E6A3
:1035E00045EA060E8DE60CEA135594EA0C0F08BF67
:1035F00095EA0C0F3FF43BAF94EA0C0F0AD150EA66
:1036000001347FF434AF95EA0C0F7FF425AF1046F8
:1036100019462CE795EA0C0F06D152EA03353FF420
:10362000FDAE1046194622E750EA410618BF52EA9D
:1036300043067FF4C5AE50EA41047FF40DAF52EA71
:1036400043057FF4EBAE12E74A0011D212F50012E7
:1036500011D20DD56FF47873B3EB62520ED44FEAEA
:10366000C12343F0004343EA505323FA02F070476A
:103670004FF00000704750EA013002D14FF0FF30A8
:1036800070474FF00000704753B94AB9002908BF8E
:1036900000281CBF4FF0FF314FF0FF3000F07AB927
:1036A000ADF1080C6DE904CE00F006F8DDF804E099
:1036B000DDE9022304B070472DE9F0478C460D4642
:1036C0000446089E002B51D18A4217466DD9B2FAA2
:1036D00082FEBEF1000F0BD0CEF1200C01FA0EF5E8
:1036E00020FA0CFC02FA0EF74CEA050C00FA0EF474
:1036F0004FEA174A250CBCFBFAF81FFA87F90AFBB8
:1037000018CC45EA0C4508FB09F3AB420AD9ED1980
:1037100008F1FF3280F02381AB4240F22081A8F112
:1037200002083D44ED1AA4B2B5FBFAF00AFB1055AD
:1037300044EA054400FB09F9A14509D9E41900F15F
:10374000FF3380F00A81A14540F2078102383C44F2
:10375000A4EB090440EA08400021002E61D024FABD
:103760000EF4002334607360BDE8F0878B4207D904
:10377000002E54D0002186E821000846BDE8F087DD
:10378000B3FA83F1002940F08E80AB4202D382422B
:1037900000F2FA80841A65EB03050120AC46002E86
:1037A0003FD086E81010BDE8F08712B90127B7FBBB
:1037B000F2F7B7FA87FEBEF1000F34D1EB1B3A0CDB
:1037C0001FFA87FC0121B3FBF2F8250C02FB18332A
:1037D00045EA03450CFB08F3AB4207D9ED1908F1A4
:1037E000FF3002D2AB4200F2D1808046ED1AA3B284
:1037F000B5FBF2F002FB105543EA05440CFB00FC5C
:10380000A44507D9E41900F1FF3302D2A44500F220
:10381000B8801846A4EB0C0440EA08409DE7314606
:103820003046BDE8F087CEF1200405FA0EF307FA22
:103830000EF720FA04F83A0C25FA04F448EA0308D3
:10384000B4FBF2F14FEA184502FB11441FFA87FC62
:1038500045EA044501FB0CF3AB4200FA0EF409D92A
:10386000ED1901F1FF3080F08A80AB4240F2878091
:1038700002393D44EB1A1FFA88F5B3FBF2F002FB64
:10388000103345EA034500FB0CF3AB4207D9ED19B1
:1038900000F1FF386FD2AB426DD902383D44EB1ACC
:1038A00040EA01418FE7C1F1200722FA07F88B4077
:1038B00005FA01F448EA030320FA07FE4FEA134C25
:1038C000FD404EEA040EB5FBFCF94FEA1E440CFB2A
:1038D00019551FFA83F844EA054509FB08F4AC4280
:1038E00002FA01F200FA01FA08D9ED1809F1FF30E5
:1038F00043D2AC4241D9A9F102091D442D1B1FFA44
:103900008EFEB5FBFCF00CFB10554EEA054400FBA7
:1039100008F8A04507D9E41800F1FF3529D2A045E1
:1039200027D902381C4440EA0940A4EB0804A0FB54
:1039300002894C45C6464D4615D312D056B1BAEB56
:103940000E0364EB050404FA07F7CB401F43CC4099
:10395000376074600021BDE8F0871846F8E69046AD
:10396000E0E6C245EAD2B8EB020E69EB0305013886
:10397000E4E72846D7E7404691E78146BEE701469F
:1039800078E702383C4445E7084608E7A8F1020812
:103990003D442BE7704700BF70B50F4E0F4D761BAF
:1039A000B61018BF002405D0013455F8043B9847E1
:1039B000A642F9D10A4E0B4D761B00F04FF9B61016
:1039C00018BF002406D0013455F8043B9847A6429E
:1039D000F9D170BD70BD00BF683C4000683C40003C
:1039E000703C4000683C400070B4860746D0541ECE
:1039F000002A41D0CAB2034602E014F1FF343BD39F
:103A000003F8012B9D07F8D1032C2ED9CDB245EA3E
:103A100005250F2C45EA054519D903F11002264664
:103A2000103E0F2E42F8105C42F80C5C42F8085C25
:103A300042F8045C02F11002F2D8A4F1100222F064
:103A40000F0204F00F041032032C13440DD91E464C
:103A50002246043A032A46F8045BFAD8221F22F0D1
:103A600003020432134404F003042CB1C9B21C4411
:103A700003F8011B9C42FBD170BC704714460346FF
:103A8000C2E700BF024B13B1024800F005B870470F
:103A900000000000A53A4000002301461A461846DF
:103AA00000F01EB838B50A4C0A4D641BA4100AD0A9
:103AB00004F18043013B05EB8305013C55F80439D3
:103AC0009847002CF9D1BDE8384000F0D1B800BFCC
:103AD000803C40007C3C4000704700BF704700BF06
:103AE0002DE9F8432C4D0646286898460F46914626
:103AF000FFF7F2FF294B1C68D4F84831002B3ED069
:103B00005A681F2A1CDC02F1010E76B103EB820118
:103B10000124C1F88890D3F8880194402043022EF4
:103B2000C3F88801C1F8088123D00232C3F804E049
:103B3000286843F82270FFF7D1FF0020BDE8F88322
:103B4000174B0BB34FF4C870AFF300800346D8B1E6
:103B5000D4F848210260002141600A46C4F84801B7
:103B60004FF0010EC0F88811C0F88C11002EDCD087
:103B7000CCE7D3F88C110C43C3F88C41D5E704F59E
:103B8000A673C4F84831BBE72868FFF7A7FF4FF0DA
:103B9000FF30BDE8F88300BF60080020583C4000BB
:103BA00000000000000000000D0000000000000008
:103BB0000E00000007000000C70700000000000022
:103BC0000A0000000C0000000D0000000F000000C3
:103BD000140000001A0000001E0000002300000076
:103BE000280000002D000000340000003700000015
:103BF0003C00000046000000500000000A000000E9
:103C000064000000E803000010270000000000002E
:103C10000000000000000000000000000A0000009A
:103C20000C0000000D0000000F0000001400000058
:103C3000190000001E000000230000002800000002
:103C40002D00000032000000370000003C000000A2
:103C5000460000005000000038040020F8B500BF06
:103C6000F8BC08BC9E467047853A4000F100400011
:103C7000F8B500BFF8BC08BC9E467047CD004000B8
:083C800038FAFF7F010000008B
:103C8800BFF35F8F0138FBD17047000003106C82CF
:103C980001FE000003826C100510081020100000BF
:103CA8000200000001BE0000030600060528FE28E9
:103CB800FE280000054854FE54240000054626103E
:103CC800C8C40000056C92AC40A0000001060000CA
:103CD800033844820382443803281028031038101C
:103CE80001C00000031010100180000003C0380656
:103CF8000144000001C400000410284482000000B0
:103D08000428282828000000048244281000000005
:103D1800050402A2120C000008384492AAAABA2488
:103D28001800000003FE8282030638C0038282FE68
:103D3800030402040380808002020400057CA2922E
:103D48008A7C0000050084FE800000000584C2A271
:103D5800928C000005448292926C00000530282461
:103D6800FE200000055E8A8A8A720000057C929215
:103D780092640000050202F20A060000056C9292A5
:103D8800926C0000054C9292927C000005F8141287
:103D980014F8000004FE92926C000000047C8282F9
:103DA8004400000004FE82827C00000004FE92921F
:103DB8008200000004FE121202000000057C8292BC
:103DC80092F4000004FE1010FE0000000382FE8240
:103DD800044080807E00000005FE10284482000018
:103DE80004FE80808000000005FE040804FE000038
:103DF80005FE041860FE0000047C82827C0000003E
:103E080004FE12120C000000057C82A242BC0000D5
:103E180004FE1232CC000000044C929264000000B0
:103E2800050202FE02020000047E80807E0000007F
:103E3800050E30C0300E0000053EC038C03E000000
:103E480005C6281028C60000050608F00806000068
:103E580005C2A2928A86000004708888F8000000D3
:103E680004FE8888700000000470888888000000BC
:103E780004708888FE0000000470A8A830000000C4
:103E880003FC12020410A8A87800000004FE100821
:103E9800F000000001FA000002807A0004FE2050C1
:103EA8008800000001FE000005F808F008F0000096
:103EB80004F81008F0000000047088887000000002
:103EC80004F828281000000004102828F800000032
:103ED80003F810080490A8A84800000003087C888C
:103EE80004788080F80000000518608060180000E1
:103EF8000538C030C03800000588502050880000C0
:103F08000418A0A07800000003C8A898200000208A
:103F180024000020280000202C000020340000206D
:103F28003C000020440000204C00002050000020ED
:103F380054000020580000205C0000206000002091
:103F480064000020680000206C000020BC000020F5
:103F5800C4000020CC000020D4000020DC00002099
:103F6800E4000020EC000020F4000020FC00002009
:103F78000401002070000020740000207800002058
:103F88008000002088000020900000209800002079
:103F98000C010020140100201C0100202401002035
:103FA8002C010020340100203C01002044010020A5
:103FB8004C01002050010020580100206001002021
:103FC8006801002070010020780100208001002095
:103FD800880100209001002098010020A001002005
:103FE800A8010020B0010020B8010020C001002075
:103FF800C8010020D0010020A4000020A800002053
:10400800AC000020B0000020B4000020B800002060
:10401800D8010020E0010020E8010020F001002084
:10402800F801002000020020040200200C020020F9
:1040380014020020180200201C0200202402002084
:104048002802002030020020380200204002002010
:104058004802002050020020540200205C02002088
:104068006002002068020020700200207802002010
:1040780080020020880200200C0000201000002090
:1040880014000020180000200000000000000000BC
:104098004C000000000000000000000000000000CC
:1040A8000000000000000000000000000100000007
:1040B80000093D0000000000000000002407002067
:1040C8008C070020F407002000000000000000001A
:1040D80000000000000000000000000000000000D8
:1040E80000000000000000000000000000000000C8
:1040F80000000000000000000000000000000000B8
:1041080000000000000000000000000000000000A7
:104118000000000000000000000000000000000097
:104128000000000000000000000000000000000087
:104138000000000000000000000000000000000077
:104148000000000000000000000000000000000067
:104158000000000000000000000000000000000057
:1041680001000000000000000E33CDAB34126DE6F4
:10417800ECDE05000B00000000000000000000005D
:104188000000000000000000000000000000000027
:104198000000000000000000000000000000000017
:1041A8000000000000000000000000000000000007
:1041B80000000000000000000000000000000000F7
:0444E800F80B0020AD
:0400000500402BB5D7
:00000001FF
